:1000000033C000004CC000004AC0000048C00000DF
:1000100046C0000044C0000042C0000040C00000D4
:100020003EC000003CC000003AC0000038C00000E4
:1000300036C0000034C0000032C0000030C00000F4
:100040002EC000002CC000002AC0000028C0000004
:1000500026C0000024C0000022C0000020C0000014
:100060001EC000001CC0000011241FBECFEFD8E04E
:10007000DEBFCDBF11E0A0E0B1E0E2E8F4E002C0F5
:1000800005900D92AA32B107D9F721E0AAE2B1E0BA
:1000900001C01D92A238B207E1F74AD1F0C1B0CF3A
:1000A000CF93C82F873061F4209180013091810176
:1000B00047E050E061E070E08EE091E077D10BC066
:1000C0008A3011F48DE0ECDFE0ECF0E0908195FFF8
:1000D000FDCFC093C60080E090E0CF9108956F926D
:1000E0007F928F929F92AF92BF92CF92DF92EF92C8
:1000F000FF920F931F93CF93DF9320917A0130915A
:100100007B01232B09F0C7C08C010F2EFAE28F2E42
:10011000F1E09F2EF02DC0ECD0E00F2EF6ECCF2EAC
:10012000D12CF02D54010F2EF9E26F2EF1E07F2E2D
:10013000F02D88818823ECF7888184FDBFC08881F9
:1001400083FDBFC0F60180818D3011F08A3061F4EB
:100150008AE0F4018083B801A3DF8AE291E0909302
:100160007B0180937A0197C0893039F090EE980F27
:100170009F3520F0803AA8F001C080E2F9E78F16A1
:10018000F1E09F0621F4B80187E08ADFD2CF740145
:100190009FEFE91AF90AF4018083B80181DF470172
:1001A000C8CF8231B9F130F4833009F48DC0883082
:1001B000E9F0BFCF873129F08F37C1F0853179F071
:1001C000B8CFFAE28F16F1E09F0609F008F4B1CF3C
:1001D000F40131978081803209F045C0AACF8AE2CC
:1001E000881681E0980609F048F5A3CF9AE28916AF
:1001F00091E0990609F008F49CCFB80188E050DF3F
:10020000B80180E24DDFB80188E04ADFE1E08E1AF4
:1002100091088FCFB8018DE043DFFAE28F16F1E04D
:100220009F0609F008F485CF7501B801F7018191A7
:100230007F0136DFE814F904C1F77BCFB80188E00D
:100240002FDFB80180E22CDFB80188E029DFF1E080
:100250008F1A91088AE2881681E0980679F7F301EF
:1002600031964F0166CF7401F1E0EF1AF108B80141
:1002700088E016DFB80180E213DFB80188E010DF04
:100280004701EA14FB0409F454CFF70182917F017E
:10029000803269F74ECFE0917A01F0917B01CF0176
:1002A000019690937B0180937A0180818A3021F4BA
:1002B00010927B0110927A0190E008C08EEF9FEFC0
:1002C00005C08FEF9FEF02C08FEF9FEFDF91CF91BF
:1002D0001F910F91FF90EF90DF90CF90BF90AF9064
:1002E0009F908F907F906F9008950F931F93E0ECF5
:1002F000F0E0A081A260A08389019A01000F111F84
:10030000221F331F000F111F221F331FA901980145
:10031000220F331F441F551F27D021502093C400A4
:10032000E1ECF0E08081886180831F910F91089556
:1003300020E032EC41E050E060E472E48FE090E0D5
:10034000D4DFECE7F1E080E091E095838483918352
:100350008083938382839C0142E150E061E070E0FE
:1003600086E191E023D0FFCFA1E21A2EAA1BBB1B8E
:10037000FD010DC0AA1FBB1FEE1FFF1FA217B30771
:10038000E407F50720F0A21BB30BE40BF50B661F87
:10039000771F881F991F1A9469F76095709580954B
:1003A00090959B01AC01BD01CF010895A0E0B0E0A4
:1003B000EBEDF1E033C05B014A017901D9011396FD
:1003C0002C9121FF1DC0C0E0D0E0C815D905D9F09F
:1003D0008C016C01CA0CDB1CC8010C151D0571F0E9
:1003E0000F5F1F4FD7011896ED91FC911997B70138
:1003F000DC018C910995892B79F305C02196E5CF15
:1004000080E090E001C0CE01CDB7DEB7ECE022C0C5
:100410002F923F924F925F926F927F928F929F9214
:10042000AF92BF92CF92DF92EF92FF920F931F9302
:10043000CF93DF93CDB7DEB7CA1BDB0B0FB6F894B3
:10044000DEBF0FBECDBF09942A88398848885F84F3
:100450006E847D848C849B84AA84B984C884DF8064
:10046000EE80FD800C811B81AA81B981CE0FD11D48
:100470000FB6F894DEBF0FBECDBFED010895F8941E
:02048000FFCFAC
:10048200000000030000000050006F0000002A720C
:10049200696E672A0A0048656C6C6F2C20776F7250
:0A04A2006C6421203D290A0A0000C5
:00000001FF
