:1000000045C0000060C000005EC000005CC0000091
:100010005AC0000058C0000056C0000054C0000084
:1000200052C0000050C000004EC000004CC0000094
:100030004AC00000AAC2000046C0000044C0000040
:100040007FC2000040C000003EC000003CC0000075
:100050003AC0000038C0000036C0000034C00000C4
:1000600032C0000030C000002EC000002CC00000D4
:100070002AC0000028C0000026C0000024C00000E4
:1000800022C0000020C000001EC0000011241FBEBE
:10009000CFEFD0E4DEBFCDBF11E0A0E0B1E0EEECE9
:1000A000F7E000E00BBF02C007900D92A038B10747
:1000B000D9F722E0A0E8B1E001C01D92A633B20753
:1000C000E1F7C3D282C39CCFCF93C82F873061F4AE
:1000D000209134023091350247E050E061E070E059
:1000E0008DE191E030D30BC08A3011F48DE0ECDF6C
:1000F000E0ECF0E0908195FFFDCFC093C60080E07A
:1001000090E0CF9108956F927F928F929F92AF92DD
:10011000BF92CF92DF92EF92FF920F931F93CF93F4
:10012000DF932091220230912302232B11F080E0F3
:10013000D0C08C010F2EF2ED8F2EF1E09F2EF02D0E
:10014000C0ECD0E00F2EF6ECCF2ED12CF02D5401C8
:100150000F2EF1ED6F2EF1E07F2EF02D8881882398
:10016000ECF7888184FDB7C0888183FDB7C0F601B4
:1001700080818D3011F08A3089F48AE0F401808327
:10018000B801A2DF83ED91E09093230280932202D5
:100190008091D2018A3009F09CC097C0893039F033
:1001A00090EE980F9F3520F0803AA8F001C080E2D1
:1001B000F1E28F16F2E09F0621F4B80187E084DFB8
:1001C000CDCF74019FEFE91AF90AF4018083B801D9
:1001D0007BDF4701C3CF8231B9F130F4833009F4BA
:1001E00080C08830E9F0BACF873129F08F37C1F06D
:1001F000853179F0B3CFF2ED8F16F1E09F0609F06B
:1002000008F4ACCFF40131978081803209F045C009
:10021000A5CF82ED881681E0980609F048F59ECFBB
:1002200092ED891691E0990609F008F497CFB8018C
:1002300088E04ADFB80180E247DFB80188E044DFA8
:10024000E1E08E1A91088ACFB8018DE03DDFF2ED32
:100250008F16F1E09F0609F008F480CF7501B80110
:10026000F70181917F0130DFE814F904C1F776CFFF
:10027000B80188E029DFB80180E226DFB80188E014
:1002800023DFF1E08F1A910882ED881681E098064D
:1002900079F7F30131964F0161CF7401F1E0EF1A64
:1002A000F108B80188E010DFB80180E20DDFB80185
:1002B00088E00ADF4701EA14FB0409F44FCFF70195
:1002C00082917F01803269F749CF10922302109208
:1002D000220290E008C08EEF9FEF05C08FEF9FEFE6
:1002E00002C08FEF9FEFDF91CF911F910F91FF9091
:1002F000EF90DF90CF90BF90AF909F908F907F90C6
:100300006F900895CF93C82F873061F42091340205
:100310003091350247E050E061E070E08DE191E01E
:1003200012D20BC08A3011F48DE0ECDFE8ECF0E083
:10033000908195FFFDCFC093CE0080E090E0CF91FB
:1003400008956F927F928F929F92AF92BF92CF92B9
:10035000DF92EF92FF920F931F93CF93DF93209141
:10036000D0013091D101232B11F080E0D0C08C015D
:100370000F2EF0E88F2EF1E09F2EF02DC8ECD0E08C
:100380000F2EFEECCF2ED12CF02D54010F2EFFE7B7
:100390006F2EF1E07F2EF02D88818823ECF7888185
:1003A00084FDB7C0888183FDB7C0F60180818D30A0
:1003B00011F08A3089F48AE0F4018083B801A2DF69
:1003C00081E891E09093D1018093D00180918001E8
:1003D0008A3009F09CC097C0893039F090EE980FB0
:1003E0009F3520F0803AA8F001C080E2FFEC8F1624
:1003F000F1E09F0621F4B80187E084DFCDCF7401DE
:100400009FEFE91AF90AF4018083B8017BDF470105
:10041000C3CF8231B9F130F4833009F480C0883021
:10042000E9F0BACF873129F08F37C1F0853179F003
:10043000B3CFF0E88F16F1E09F0609F008F4ACCFD7
:10044000F40131978081803209F045C0A5CF80E862
:10045000881681E0980609F048F59ECF90E8891645
:1004600091E0990609F008F497CFB80188E04ADFD7
:10047000B80180E247DFB80188E044DFE1E08E1A8E
:1004800091088ACFB8018DE03DDFF0E88F16F1E0EA
:100490009F0609F008F480CF7501B801F70181913A
:1004A0007F0130DFE814F904C1F776CFB80188E0A6
:1004B00029DFB80180E226DFB80188E023DFF1E020
:1004C0008F1A910880E8881681E0980679F7F30181
:1004D00031964F0161CF7401F1E0EF1AF108B801D4
:1004E00088E010DFB80180E20DDFB80188E00ADFA4
:1004F0004701EA14FB0409F44FCFF70182917F0111
:10050000803269F749CF1092D1011092D00190E06A
:1005100008C08EEF9FEF05C08FEF9FEF02C08FEFF7
:100520009FEFDF91CF911F910F91FF90EF90DF90A0
:10053000CF90BF90AF909F908F907F906F900895D5
:100540001F920F920FB60F9211248F939F93AF9328
:10055000BF9380912C0290912D02A0912E02B09118
:100560002F020196A11DB11D80932C0290932D02A4
:10057000A0932E02B0932F02BF91AF919F918F91C4
:100580000F900FBE0F901F9018951F920F920FB6ED
:100590000F9211248F939F9395B182E0892785B99B
:1005A0009F918F910F900FBE0F901F901895E0ECC8
:1005B000F0E080818260808388E08093C400E1EC79
:1005C000F0E08081886180830895E8ECF0E080812C
:1005D0008260808388E08093CC00E9ECF0E0808149
:1005E000886180830895EEE6F0E0808182608083F8
:1005F00084B5826084BD85B5836085BD8CE787BD89
:100600000895EFE6F0E0808182608083E1E8F0E029
:1006100080818B60808383ED90E390938900809349
:1006200088000895E1E6F0E080E88083108285B5D7
:10063000816085BD0895E1E6F0E080E8808383E095
:10064000808385B58E7F85BD0895B1DFBEDFCBDFAA
:10065000D8DF84B1836084B92FE031E04CE250E010
:1006600061E070E085E291E06ED021E031E04CE2A3
:1006700050E061E070E082E591E065D07894C1E0FF
:10068000DC2F80912C0290912D02A0912E02B0912E
:100690002F02409124025091250260912602709110
:1006A0002702841B950BA60BB70B84369105A10579
:1006B000B10598F080912C0290912D02A0912E020C
:1006C000B0912F028093240290932502A0932602DA
:1006D000B093270285B18C2785B980912C02909127
:1006E0002D02A0912E02B0912F024091280250912C
:1006F000290260912A0270912B02841B950BA60B94
:10070000B70B803A9F40A105B10508F4BACF80919C
:100710002C0290912D02A0912E02B0912F02809375
:10072000280290932902A0932A02B0932B02809171
:100730000001882321F0109200017DDFA2CFD09329
:10074000000170DF9ECF8F929F92AF92BF92CF92A7
:10075000DF92EF92FF920F931F93CF93DF935B0192
:100760004A017901D90113962C9121FF1DC0C0E0E7
:10077000D0E0C815D905D9F08C016C01CA0CDB1C7E
:10078000C8010C151D0571F00F5F1F4FD70118969A
:10079000ED91FC911997B701DC018C910995892B9A
:1007A00079F305C02196E5CF80E090E001C0CE014D
:1007B000DF91CF911F910F91FF90EF90DF90CF903D
:0E07C000BF90AF909F908F900895F894FFCF58
:1007CE000100000003000000008201A101000000F2
:1007DE00000003000000006400830000002A72691C
:1007EE006E672A0A0048656C6C6F2C20776F726CEE
:1007FE006421203D29205468697320697320554176
:10080E0052543020737065616B696E672121210A25
:10081E000A0048656C6C6F2C20776F726C64212017
:10082E003D442054686973206973205541525431F8
:10083E0020737065616B696E672121210A0A0000C1
:00000001FF
