S019000041544D656761313238345F566172436C6B2E737265638B
S113000045C0000060C000005EC000005CC000008D
S11300105AC0000058C0000056C0000054C0000080
S113002052C00000FEC100004EC000004CC00000E1
S11300304AC0000048C0000046C0000044C00000A0
S1130040CBC1000040C000003EC000003CC0000026
S11300503AC0000038C0000036C0000034C00000C0
S113006032C0000030C000002EC000002CC00000D0
S11300702AC0000028C0000026C0000024C00000E0
S113008022C0000020C000001EC0000011241FBEBA
S1130090CFEFD0E4DEBFCDBF11E0A0E0B1E0E6E1F8
S11300A0F7E000E00BBF02C007900D92AE32B1073B
S11300B0D9F721E0AEE2B1E001C01D92AE38B2073B
S11300C0E1F7E4D126C39CCFCF93C82F873061F4E6
S11300D020918C0130918D0147E050E061E070E0A7
S11300E083E191E099D20BC08A3011F48DE0ECDF0A
S11300F0E0ECF0E0908195FFFDCFC093C60080E076
S113010090E0CF9108956F927F928F929F92AF92D9
S1130110BF92CF92DF92EF92FF920F931F93CF93F0
S1130120DF9320917E0130917F01232B09F0C7C01A
S11301308C010F2EFEE28F2EF1E09F2EF02DC0ECED
S1130140D0E00F2EF6ECCF2ED12CF02D54010F2E33
S1130150FDE26F2EF1E07F2EF02D88818823ECF7ED
S1130160888184FDBFC0888183FDBFC0F601808182
S11301708D3011F08A3061F48AE0F4018083B80193
S1130180A3DF8EE291E090937F0180937E0197C07C
S1130190893039F090EE980F9F3520F0803AA8F01E
S11301A001C080E2FDE78F16F1E09F0621F4B8015B
S11301B087E08ADFD2CF74019FEFE91AF90AF401CC
S11301C08083B80181DF4701C8CF8231B9F130F4AF
S11301D0833009F48DC08830E9F0BFCF873129F02E
S11301E08F37C1F0853179F0B8CFFEE28F16F1E098
S11301F09F0609F008F4B1CFF40131978081803271
S113020009F045C0AACF8EE2881681E0980609F06D
S113021048F5A3CF9EE2891691E0990609F008F407
S11302209CCFB80188E050DFB80180E24DDFB8010F
S113023088E04ADFE1E08E1A91088FCFB8018DE0A3
S113024043DFFEE28F16F1E09F0609F008F485CF44
S11302507501B801F70181917F0136DFE814F904D3
S1130260C1F77BCFB80188E02FDFB80180E22CDF33
S1130270B80188E029DFF1E08F1A91088EE2881630
S113028081E0980679F7F30131964F0166CF740146
S1130290F1E0EF1AF108B80188E016DFB80180E256
S11302A013DFB80188E010DF4701EA14FB0409F406
S11302B054CFF70182917F01803269F74ECFE091EC
S11302C07E01F0917F01CF01019690937F0180938D
S11302D07E0180818A3021F410927F0110927E0188
S11302E090E008C08EEF9FEF05C08FEF9FEF02C034
S11302F08FEF9FEFDF91CF911F910F91FF90EF90C0
S1130300DF90CF90BF90AF909F908F907F906F9031
S113031008950F931F93E0ECF0E0A081A260A08306
S113032089019A01000F111F221F331F000F111F93
S1130330221F331FA9019801220F331F441F551F89
S1130340F4D021502093C400E1ECF0E08081886176
S113035080831F910F9108950F931F93E8ECF0E0B1
S1130360A081A260A08389019A01000F111F221F9E
S1130370331F000F111F221F331FA9019801220FE1
S1130380331F441F551FD1D021502093CC00E9ECDA
S1130390F0E08081886180831F910F910895E1E6E8
S11303A0F0E080E88083108287E08093C40080932B
S11303B0CC0085B5816085BD0895E1E6F0E080E874
S11303C0808383E080838FEF8093C4008093CC008C
S11303D085B58E7F85BD08951F920F920FB60F923B
S11303E011248F939F93AF93BF9380918401909135
S11303F08501A0918601B09187010196A11DB11DCF
S11304008093840190938501A0938601B093870122
S1130410BF91AF919F918F910F900FBE0F901F903E
S113042018951F920F920FB60F9211240BB60F92CC
S11304302F933F934F935F936F937F938F939F93E8
S1130440AF93BF93EF93FF93D9D08093B300809180
S11304501201882321F010921201AFDF04C081E061
S1130460809312019CDFFF91EF91BF91AF919F9117
S11304708F917F916F915F914F913F912F910F9049
S11304800BBE0F900FBE0F901F90189520E032EC1A
S113049041E050E060E072E18AE790E03ADF20E07A
S11304A032EC41E050E060E072E18AE790E054DF32
S11304B0E8E8F1E084E091E095838483918380838C
S11304C0938382839C0142E150E061E070E08BE120
S11304D091E0A2D021E04091840150918501609186
S11304E08601709187018091800190918101A09192
S11304F08201B09183017A018B01E81AF90A0A0B8F
S11305001B0BD801C701883E03E09007A105B10584
S1130510D0F34093800150938101609382017093E2
S1130520830185B1822785B9D6CFA1E21A2EAA1BF1
S1130530BB1BFD010DC0AA1FBB1FEE1FFF1FA2178F
S1130540B307E407F50720F0A21BB30BE40BF50B8C
S1130550661F771F881F991F1A9469F76095709515
S1130560809590959B01AC01BD01CF0108958F92B8
S11305709F92AF92BF92CF92DF92EF92FF92CF936E
S1130580DF93EC01688179818A819B816115710512
S11305908105910521F464E279ED8BE597E02DE185
S11305A033EF41E050E07AD049015A019B01AC019C
S11305B0A7EAB1E48FD06B017C01ACEEB4EFA501E6
S11305C0940194D0DC01CB018C0D9D1DAE1DBF1D8B
S11305D0B7FF03C00197A109B04888839983AA8310
S11305E0BB839F77DF91CF91FF90EF90DF90CF9007
S11305F0BF90AF909F908F900895B9CF80E091E025
S1130600B6CFA0E0B0E08093000190930101A093E5
S11306100201B093030108958F929F92AF92BF920B
S1130620CF92DF92EF92FF920F931F93CF93DF93BA
S11306305B014A017901D90113962C9121FF1DC058
S1130640C0E0D0E0C815D905D9F08C016C01CA0C02
S1130650DB1CC8010C151D0571F00F5F1F4FD7017E
S11306601896ED91FC911997B701DC018C910995CD
S1130670892B79F305C02196E5CF80E090E001C095
S1130680CE01DF91CF911F910F91FF90EF90DF90FA
S1130690CF90BF90AF909F908F900895052E97FBB9
S11306A016F400940FD057FD05D03FDF07FC02D0AD
S11306B046F408C050954095309521953F4F4F4FD3
S11306C05F4F089590958095709561957F4F8F4FFA
S11306D09F4F08950FD0A59F900DB49F900DA49F98
S11306E0800D911D11240895B7FFF4CFF3DF821B11
S11306F0930B0895A29FB001B39FC001A39F700DF7
S1130700811D1124911DB29F700D811D1124911D15
S10907100895F894FFCFE8
S113071601000000000000030000000064008300E4
S11307260000012A72696E672A0A0048656C6C6FBC
S11107362C20776F726C6421203D290A0A0082
S9030000FC
