:020000021000EC
:10E00000CAC00000E7C00000E5C00000E3C0000097
:10E01000E1C00000DFC00000DDC00000DBC0000088
:10E02000D9C00000D7C00000D5C00000D3C0000098
:10E03000D1C00000CFC00000CDC00000CBC00000A8
:10E04000A6C70000C7C00000C5C00000C3C00000D4
:10E05000C1C00000BFC00000BDC00000BBC00000C8
:10E06000B9C00000B7C00000B5C00000B3C00000D8
:10E07000B1C00000AFC00000ADC00000ABC00000E8
:10E08000A9C00000A7C00000A5C00000010204084C
:10E09000102040801B36637C777BF26B6FC53001AC
:10E0A000672BFED7AB76CA82C97DFA5947F0ADD44B
:10E0B000A2AF9CA472C0B7FD9326363FF7CC34A51F
:10E0C000E5F171D8311504C723C31896059A0712D4
:10E0D00080E2EB27B27509832C1A1B6E5AA0523BC3
:10E0E000D6B329E32F8453D100ED20FCB15B6ACB7A
:10E0F000BE394A4C58CFD0EFAAFB434D338545F982
:10E10000027F503C9FA851A3408F929D38F5BCB62A
:10E11000DA2110FFF3D2CD0C13EC5F974417C4A79C
:10E120007E3D645D197360814FDC222A908846EE43
:10E13000B814DE5E0BDBE0323A0A4906245CC2D337
:10E14000AC629195E479E7C8376D8DD54EA96C56D0
:10E15000F4EA657AAE08BA78252E1CA6B4C6E8DDC6
:10E16000741F4BBD8B8A703EB5664803F60E613551
:10E1700057B986C11D9EE1F8981169D98E949B1EEE
:10E1800087E9CE5528DF8CA1890DBFE64268419909
:10E190002D0FB054BB1611241FBECFEFD0E4DEBF4D
:10E1A000CDBF12E0A0E0B1E0E6E9FEEF01E00BBF79
:10E1B00002C007900D92A432B107D9F722E0A4E281
:10E1C000B2E001C01D92A532B207E1F70E94B4FD92
:10E1D0000C9449FF15CFAF92BF92CF92DF92EF928E
:10E1E000FF920F931F93CF93DF9300D0CDB7DEB78D
:10E1F0006B017901B90149835A83C5D64981E42F5E
:10E200005A81F52F5801CF014096D80121912D93C5
:10E21000E817F907D9F7B701C801F1D0F601005F97
:10E220001F4F8191D5019C9189278D935D01A01786
:10E23000B107B9F70F900F90DF91CF911F910F9118
:10E24000FF90EF90DF90CF90BF90AF900895EF9246
:10E25000FF920F931F93CF93DF937B01E901FA01A4
:10E2600089019A01205F3F4FDE0141914D93E217F2
:10E27000F307D9F7BC01CE01C2D0F70160968191B6
:10E28000D8019C9189278D938D01AC17BD07B9F7F3
:10E29000DF91CF911F910F91FF90EF900895AF9272
:10E2A000BF92CF92DF92EF92FF920F931F93CF9383
:10E2B000DF9300D0CDB7DEB76B017901B901498397
:10E2C0005A8361D64981E42F5A81F52F5801CF0135
:10E2D0004096D80121912D93E817F907D9F7B70196
:10E2E000C8018DD0F601005F1F4F8191D5019C912F
:10E2F00089278D935D01A017B107B9F70F900F9093
:10E30000DF91CF911F910F91FF90EF90DF90CF9011
:10E31000BF90AF900895EF92FF920F931F93CF930A
:10E32000DF937B01E901FA0189019A01205F3F4FE8
:10E33000DE0141914D93E217F307D9F7BC01CE01FD
:10E340005ED0F70160968191D8019C9189278D93C9
:10E350008D01AC17BD07B9F7DF91CF911F910F91D8
:10E36000FF90EF9008958F929F92AF92BF92CF92BD
:10E37000DF92EF92FF920F931F93CF93DF93CDB76E
:10E38000DEB7C05FD1090FB6F894DEBF0FBECDBFB8
:10E390006B017A015901BE016F5F7F4FF4D500E038
:10E3A00010E0470180E1880E911C0A151B0598F4C6
:10E3B000D601A00FB11FF7018D919081892781931C
:10E3C000E815F905C9F7BE016F5F7F4FC70117D088
:10E3D000005F1F4FEACFC051DF4F0FB6F894DEBF8A
:10E3E0000FBECDBFDF91CF911F910F91FF90EF90A6
:10E3F000DF90CF90BF90AF909F908F9008954EE0A8
:10E400005BC0CF93DF9300D000D0CDB7DEB7DC0187
:10E410008C91898314968C9114978A8318968C9189
:10E4200018978B831C968C911C978C83862F8370F6
:10E43000E1E0F0E0EC0FFD1FE80FF11D80818C930F
:10E4400070E0FB013196E370FF2781E090E08C0FD4
:10E450009D1FE80FF91F808114968C931497FB0180
:10E460003296E370FF2781E090E08C0F9D1FE80F4C
:10E47000F91F808118968C931897FB013396E370EF
:10E48000FF2781E090E08C0F9D1FE80FF91F80812E
:10E490001C968C930F900F900F900F90DF91CF915F
:10E4A0000895982F991F9927991F2BE1929F902DDE
:10E4B0001124880F892708952F923F924F925F92DF
:10E4C0006F927F928F929F92AF92BF92CF92DF9284
:10E4D000EF92FF920F931F93CF93DF93CDB7DEB7E9
:10E4E000E2970FB6F894DEBF0FBECDBF8C015B0183
:10E4F000E42E0E94A2FE6E0121E2C20ED11C360162
:10E50000E0E19E2E9C0C0E94A2FEF30181933F014C
:10E510009E12F9CF75E0F72E0E94A2FE0E94A2FE85
:10E52000FA94F110F9CF0E94A2FE65E070E00E941B
:10E5300048FE882E0E94A2FE60E170E00E9448FE24
:10E5400090E0981520F48F5F8F709F5FFACF8F5FF8
:10E550008F70282F30E0F60141916F01F801E20F32
:10E56000F31F908194279083D501A20FB31F2C91A4
:10E570002427922790839C10EACFCC24C394D12CDB
:10E5800055E0652E712C60E1862E912C4C2C8E2D41
:10E590008F19823008F4CFC20E94A2FE582E0E942A
:10E5A000A2FEB3010E9448FE482E0E94A2FEB401C2
:10E5B0000E9448FE282F19AA89A9803180F439A821
:10E5C0002AAB0E94A2FEE1E1F0E0EC0FFD1FE30D9B
:10E5D000F11D808389A98F5F89AB2AA9EDCFF1E076
:10E5E000FF1520F43DE0C316D10491F430E034155A
:10E5F00078F42F5F2F70852D90E08A569F41092E69
:10E60000000CAA0BBB0BABBFFC0157903F5FEFCFD9
:10E6100019AA89A98031E8F42F5F2F70822F90E02A
:10E62000F801E80FF91F408150E04A565F41052E7E
:10E63000000C660B770B6BBFFA014791E1E1F0E04C
:10E64000EC0FFD1FE80FF91F408389A98F5F89AB8D
:10E65000E0CF41E04F1520F45DE0C516D10481F410
:10E6600084E0841568F0852D90E08A569F41092E3C
:10E67000000CAA0BBB0BABBFFC0157904394F0CF2F
:10E6800019AA89A9803158F559A80E94A2FEE1E093
:10E69000F0E0EC0FFD1FE50DF11DB4010E9448FEF6
:10E6A000808399A929A989A961E170E06C0F7D1F78
:10E6B000690F711DE1E0F0E0EC0FFD1FE80FF11DA7
:10E6C000A1E1B0E0AC0FBD1FA20FB11D90818C91F4
:10E6D0008927FB01808389A98F5F89ABD2CF61E055
:10E6E000CE0142968EDE61E0CE0102968ADE62E0C5
:10E6F000CE01439686DE62E0CE01039682DE63E0C1
:10E70000CE0144967EDE63E0CE0104967ADE19AA3D
:10E7100089A9843008F0E7C099A939A989A929A94C
:10E72000A2E1B0E0AC0FBD1FF4E03F9FA00DB11D12
:10E730001124E3E1F0E0EC0FFD1F34E0839FE00DD6
:10E74000F11D11245C9080815826E1E1F0E0EC0F8E
:10E75000FD1F44E0949FE00DF11D11249081592686
:10E76000E4E1F0E0EC0FFD1F54E0259FE00DF11D0A
:10E7700011248081582689A999A9A2E1B0E0AC0FA3
:10E78000BD1FE4E09E9FA00DB11D1124E1E1F0E06A
:10E79000EC0FFD1F24E0829FE00DF11D11249C91E0
:10E7A000808189277EDE99A929A9F80134E0239F79
:10E7B000E00DF11D1124A1E1B0E0AC0FBD1F44E05C
:10E7C000949FA00DB11D11249C91952589278083CC
:10E7D00089A999A9A3E1B0E0AC0FBD1F54E0959FB2
:10E7E000A00DB11D1124E2E1F0E0EC0FFD1F94E05B
:10E7F000899FE00DF11D11249C918081892751DEB4
:10E8000099A929A9F80134E0239FE00DF11D1124F5
:10E81000A2E1B0E0AC0FBD1F44E0949FA00DB11D7C
:10E8200011249C9195258927818389A999A9A4E11F
:10E83000B0E0AC0FBD1F54E0959FA00DB11D112499
:10E84000E3E1F0E0EC0FFD1F94E0899FE00DF11D86
:10E8500011249C918081892724DE99A929A9F80196
:10E8600034E0239FE00DF11D1124A3E1B0E0AC0FD3
:10E87000BD1F44E0949FA00DB11D11249C919525CE
:10E880008927828399A989A9A4E1B0E0AC0FBD1FB3
:10E8900054E0959FA00DB11D1124E1E1F0E0EC0FD3
:10E8A000FD1F94E0899FE00DF11D11249C91808152
:10E8B0008927F7DD99A929A9F80134E0239FE00D04
:10E8C000F11D1124A4E1B0E0AC0FBD1F44E0949F02
:10E8D000A00DB11D11249C9159268525838389A9FA
:10E8E0008F5F89AB15CF19AA89A9843008F0F3C0CE
:10E8F00099A939A989A929A9A2E0B0E0AC0FBD1F47
:10E9000054E0359FA00DB11D1124E3E0F0E0EC0FC1
:10E91000FD1F34E0839FE00DF11D11245C90808188
:10E920005826E1E0F0E0EC0FFD1F44E0949FE00D7D
:10E93000F11D112490815926E4E0F0E0EC0FFD1F59
:10E9400054E0259FE00DF11D11248081582689A9EE
:10E9500099A9A2E0B0E0AC0FBD1FE4E09E9FA00D1E
:10E96000B11D1124E1E0F0E0EC0FFD1F24E0829FD7
:10E97000E00DF11D11249C918081892792DD99A9D8
:10E9800029A9E1E1F0E0EC0FFD1F34E0239FE00D49
:10E99000F11D1124A1E0B0E0AC0FBD1F44E0949F35
:10E9A000A00DB11D11249C9195258927808389A9EB
:10E9B00099A9A3E0B0E0AC0FBD1F54E0959FA00D56
:10E9C000B11D1124E2E0F0E0EC0FFD1F94E0899FFF
:10E9D000E00DF11D11249C918081892762DD99A9A8
:10E9E00029A9E2E1F0E0EC0FFD1F34E0239FE00DE8
:10E9F000F11D1124A2E0B0E0AC0FBD1F44E0949FD4
:10EA0000A00DB11D11249C9195258927808389A98A
:10EA100099A9A4E0B0E0AC0FBD1F54E0959FA00DF4
:10EA2000B11D1124E3E0F0E0EC0FFD1F94E0899F9D
:10EA3000E00DF11D11249C918081892732DD99A977
:10EA400029A9E3E1F0E0EC0FFD1F34E0239FE00D86
:10EA5000F11D1124A3E0B0E0AC0FBD1F44E0949F72
:10EA6000A00DB11D11249C9195258927808399A91A
:10EA700089A9A4E0B0E0AC0FBD1F54E0959FA00DA4
:10EA8000B11D1124E1E0F0E0EC0FFD1F94E0899F3F
:10EA9000E00DF11D11249C918081892702DD99A947
:10EAA00029A9E4E1F0E0EC0FFD1F34E0239FE00D25
:10EAB000F11D1124A4E0B0E0AC0FBD1F44E0949F11
:10EAC000A00DB11D11249C9159268525808389A90B
:10EAD0008F5F89AB09CF0E94A2FEB4010E9448FE5D
:10EAE00019AAA60134E0440F551F3A95E1F799A9F8
:10EAF0009031E0F48F5F8F70282F30E0D801A20FA3
:10EB0000B31FFA01E20FF31FEA0DFB1D60819C9118
:10EB10009627E1E1F0E0EC0FFD1FE20FF31F2081EB
:10EB200092279C9399A99F5F99ABE1CFF3945FEFF4
:10EB3000C51AD50A2BCD512C0E94A2FED82E0E94B8
:10EB4000A2FE65E070E00E9448FEC82E0E94A2FE70
:10EB500060E170E00E9448FE90E09C1578F48F5FC1
:10EB60008F704D2D50E04A565F41052E000C660B0C
:10EB7000770B6BBFFA01D7909F5FEFCF90E17E01DB
:10EB8000E1E1EE0EF11C8F5F8F70282F30E0F8016D
:10EB9000E20FF31F408150E04A565F41052E000C02
:10EBA000660B770B6BBFFA014791F701E20FF31F7A
:10EBB0004083915041F7F4E0FC1568F08D2D90E012
:10EBC0008A569F41092E000CAA0BBB0BABBFFC0160
:10EBD000D790C394F0CF9E012F5F3F4F490167014B
:10EBE000190120E1622E712C20E12E0D2AAB0E942A
:10EBF000A2FEB3010E9448FEF40181934F01F60189
:10EC00009081892781936F012AA92E13EFCF61E0AC
:10EC1000CE014296F6DB61E0CE010296F2DB62E0C5
:10EC2000CE014396EEDB62E0CE010396EADB63E0C1
:10EC3000CE014496E6DB63E0CE010496E2DB0E945F
:10EC4000A2FE60E170E00E9448FED82E0E94A2FE63
:10EC500065E070E00E9448FEC82E90E1992E0E9467
:10EC6000A2FE9A949110FBCF90E09C1530F481E0C5
:10EC70008D0D8F70D82E9F5FF8CF20E184E0440C7B
:10EC8000551C8A95E1F781E08D0D8F70D82E90E0AC
:10EC9000F701E80FF91F4081F801E80FF91F4083E1
:10ECA000D201A80FB91FAA0DBB1D3C913427D10179
:10ECB000A80FB91F9C91832F89278083215019F7B2
:10ECC000E2960FB6F894DEBF0FBECDBFDF91CF91B5
:10ECD0001F910F91FF90EF90DF90CF90BF90AF907A
:10ECE0009F908F907F906F905F904F903F902F906C
:10ECF00008952F923F924F925F926F927F928F92E0
:10ED00009F92AF92BF92CF92DF92EF92FF920F93BA
:10ED10001F93CF93DF93CDB7DEB729970FB6F89443
:10ED2000DEBF0FBECDBF8C015A017B0145E0F694DA
:10ED3000E7944A95E1F72E2C47019924240127E016
:10ED4000420E511C342D330F330F39876B0153E0C2
:10ED5000D694C7945A95E1F7512C652C712C6C14FC
:10ED60007D0438F4EFD7F501E60DF71D808B539441
:10ED7000F4CFA601B801C501F3D7E4D765E070E090
:10ED800087D7082FDFD7182FDDD783703E2C5E2C56
:10ED9000412C35E0632E712C2985521608F0DAC01B
:10EDA000252D30E03E832D83690131E0C31A30EC1C
:10EDB000D30ACC0CDD1CCC0CDD1C95012C0D3D1DAB
:10EDC00038872F83F90140815181628173814983A2
:10EDD0005A836B837C83531409F447C0F8E02F12E5
:10EDE0009BC0952D9770943009F096C090E09017D5
:10EDF00069F0412F50E04A565F41052E000C660B2A
:10EE0000770B6BBFFA0117919F5FF1CF44E050E0A1
:10EE10008F5F8370A1E0B0E0AC0FBD1FA80FB11DE4
:10EE20006C9170E06A567F416B01770FEE08FF0826
:10EE3000EBBEF60197919C934150510949F705307B
:10EE400068F4812F90E08A569F41092E000CAA0B8E
:10EE5000BB0BABBFFC0117910F5FF1CF73D7B301B1
:10EE600017D7082F6FD7837057C0352C320C998174
:10EE70003A8139833B813A833C813B839C8390E098
:10EE8000901769F0412F50E04A565F41052E000C63
:10EE9000660B770B6BBFFA0117919F5FF1CF44E0D0
:10EEA00050E08F5F8370A1E0B0E0AC0FBD1FA80FF2
:10EEB000B11D6C9170E06A567F416B01770FEE08CF
:10EEC000FF08EBBEF60197919C934150510949F719
:10EED000053068F4812F90E08A569F41092E000C7E
:10EEE000AA0BBB0BABBFFC0117910F5FF1CF2AD769
:10EEF000B301CED6082F26D78370442D50E0445757
:10EF00005F41052E000C660B770B6BBFFA01479132
:10EF10009981492749834394ED81FE81E819F909D4
:10EF2000EE0FFF1FEE0FFF1FEA0DFB1DC080D1800B
:10EF3000E280F38049815A816B817C814C255D257B
:10EF40006E257F25EF81F88544835583668377831B
:10EF5000539422CF29960FB6F894DEBF0FBECDBFD3
:10EF6000DF91CF911F910F91FF90EF90DF90CF90A5
:10EF7000BF90AF909F908F907F906F905F904F90D9
:10EF80003F902F900895AB0160E071E0B2CE1F92E8
:10EF90000F920FB60F9211240BB60F922F933F933F
:10EFA0004F935F936F937F938F939F93AF93BF9391
:10EFB000EF93FF9380912402882361F080E880938F
:10EFC000610083E08093610085B58E7F85BD1092DE
:10EFD00024020BC080E8809361001092610085B527
:10EFE000816085BD81E080932402ACD66AE070E048
:10EFF0004FD687BDFF91EF91BF91AF919F918F91B8
:10F000007F916F915F914F913F912F910F900BBE28
:10F010000F900FBE0F901F901895CF93DF93CDB731
:10F02000DEB7C856D3400FB6F894DEBF0FBECDBFD3
:10F030007E012FEAE21A2CEFF20A80E1F701119229
:10F040008A95E9F798E288E10FB6F894A89580933D
:10F0500060000FBE90936000D7D5811101C0FCCF36
:10F060005E01FFE0AF1AFDEFBF0A450120E3820E0B
:10F07000911C6501A814B90429F0CCD5F501819340
:10F080005F01F8CFA89520E230E0A701B6018CE738
:10F0900091E069D9A895F701D6019096C7014096ED
:10F0A000F12CE817F90739F031912D913217C9F396
:10F0B000FF24F394F6CFFF2031F085E19ED58CEB51
:10F0C00091E0C7D5FFCFA8958E010F5D1C4F9E0123
:10F0D0002F5F3D4F4CE151E0B6018CE391E0DFD86A
:10F0E0009801205F3F4FB601605F7F4FA601CE01C0
:10F0F0008F5F9D4F10D9A895E4E0F1E0D80121E0A1
:10F10000EC31F20739F091918D919817C1F3FF24FA
:10F11000F394F5CFFF2031F085E16FD586EC91E0D7
:10F1200098D5FFCFA895C55CDC4F8881CB53D340E1
:10F1300090E0982F8827092E000CAA0BBB0BC45C0B
:10F14000DC4F2881CC53D340822BC15CDC4F4881FB
:10F15000CF53D34050E0542F4427052E000C660BAC
:10F16000770BC05CDC4F2881C054D340422B480F42
:10F17000591F6A1F7B1F452F562F672F7727CD59A1
:10F18000DC4F59834883C356D3404115584740F05C
:10F190004FEF57E7CD59DC4F59834883C356D340CF
:10F1A000A895892F9A2FAB2FBB275C01092E000C45
:10F1B000AA0BBB0B2227382F492F5A2FCB59DC4FD4
:10F1C000288339834A835B83C556D340212C312C55
:10F1D00021016E0131E0C30ED31E3E014FEF641AD0
:10F1E0004DEF740ACD59DC4F88819981C356D340C5
:10F1F0008A159B0508F482C0CB59DC4F48815981A0
:10F200006A817B81C556D340420D531D641D751D17
:10F21000D6016BBFFA0187918D934F5F5F4F6F4FA0
:10F220007F4FA615B705A9F7A895CE010196CF592E
:10F23000DC4F99838883C156D3404C01E12CF12CDB
:10F24000A114B10479F4E114F104B9F48E010F5F53
:10F250001F4F93014CE151E0B6018CE391E00E9415
:10F26000EBF017C0E114F10441F49E012F5F3F4F12
:10F27000AE014F5B5C4FB60107C09401A401405141
:10F280005109B6016E0D7F1DCE018F5F9D4F0E940B
:10F2900027F1F0E1EF0EF11C20E1820E911CE11448
:10F2A00031E0F30669F6FE01EF50FE4FDE01AF5B81
:10F2B000BC4FE615F70519F081918D93FACFCF5920
:10F2C000DC4FE881F981C156D3408191CF59DC4FA1
:10F2D000F983E883C156D34090D4CF59DC4F2881BD
:10F2E0003981C156D3402C153D0549F73FEFA31A8C
:10F2F000B30A4FEF341A440A540A74CFA895FFCFCB
:10F300008F929F92AF92BF92CF92DF92FF92FFB601
:10F31000F89407B600FCFDCFF999FECF23E0FB017E
:10F3200080935B0020935700E8954B015C0120E03F
:10F3300030E0B1E0FA01E20FF31FA081E181F0E0DB
:10F34000FE2FEE276F01CA0ED11C07B600FCFDCFC1
:10F35000F999FECF0601F401A0925B00B09357002B
:10F36000E89511242E5F3F4FE2E08E0E911CA11C08
:10F37000B11C2115E1E03E07E9F607B600FCFDCF20
:10F38000F999FECF25E0FB0180935B0020935700A5
:10F39000E89507B600FCFDCFF999FECF81E1809397
:10F3A0005700E895FFBEFF90DF90CF90BF90AF90E1
:10F3B0009F908F900895CF93DF93CDB7DEB7C05164
:10F3C000D3400FB6F894DEBF0FBECDBF5E018FE015
:10F3D000A81A8DEFB80A80E1F50111928A95E9F734
:10F3E00080E090E0CED44C0198E288E10FB6F8942A
:10F3F000A895809360000FBE90936000412C6EE74B
:10F40000562E612C712CC12CD12C7E01FFEFEF1AEE
:10F41000FDEFFF0AF9D3811101C0FCCFA895CE0101
:10F420008F5F9E4F1C01F6D3F10181931F01EE15F2
:10F43000FF05C9F7AE014F5F5E4FC301B20160DF48
:10F44000FDE7CF16D10451F020E031E0A501BE0167
:10F450006F5F7E4F8CE991E00E94B3F186E0CDD3DF
:10F46000A8958FEFC81AD80A9FEF591A690A790A26
:10F47000EEE7CE16D10471F6F501CE018F5F9E4FF7
:10F480006C019501205F3F4FDC0180E0E217F3073C
:10F4900031F041919D914917C9F381E0F7CF88235D
:10F4A00021F185E1AAD381ED91E0D3D38FEFF6016D
:10F4B00081936F01EE15FF05D1F7A895C12C5EE78A
:10F4C000D52EE12CF12CAE014F5F5E4FC701B60186
:10F4D00017DFA895FFEFDF1AEF0AFF0AC1148CEFC0
:10F4E000D806E104F10479F7FFCFA89586E085D32B
:10F4F0008AED91E0AED3212C4CEF342E412C512CCF
:10F50000C12CD12CB201A1015E5761097109DE0144
:10F51000AF5FBE4F6BBFFA0187918D934F5F5F4F17
:10F520006F4F7F4FAE15BF05A9F7A895FE01EF5F9E
:10F53000FE4F3F01A12CB12CC114D10489F4A114B8
:10F54000B104D9F48E010F5F1F4F97014CE251E0D7
:10F55000BE016F5F7E4F8CE591E00E944FF11AC0B3
:10F56000A114B10451F49E012F5F3F4FAE014F5FD4
:10F570005C4FBE016F5F7E4F0AC021E030E02C0F70
:10F580003D1F2A0D3B1DA30140515109B301C70185
:10F590000E948BF1F0E1AF0EB11C80E1680E711C8E
:10F5A000A11491E0B90641F6A895FE01EF50FE4F77
:10F5B000DE01AF5FBC4FEE15FF0519F081918D9311
:10F5C000FACFAE014F5F5F4FC201B10199DEA8953E
:10F5D000EFEFCE1ADE0AFFEF3F1A4F0A5F0A8EE7FF
:10F5E000C816D10409F08ECFA89586E006D382EE26
:10F5F00091E02FD380E09CEFA0E0B0E0ABBFFC0136
:10F60000679176916115710509F444C06815790513
:10F6100008F03DC085E1F1D28DEE91E01AD3812C46
:10F620003EE7932EA12CB12C1FEFFE01EF5FFE4FA2
:10F630001193EE15FF05E1F7AE014F5F5E4FC50177
:10F64000B4015EDE9FEF991AA90AB90A8114ECEFA2
:10F650009E06A104B10449F7A8951FEFFE01EF5FD4
:10F66000FE4F1193EE15FF05E1F7AE014F5F5E4FC0
:10F67000C501B40145DEFFEF9F1AAF0ABF0A81142E
:10F680008AE7980681E0A806B10441F7FFCF80E041
:10F6900090E07CD3A89585EF91E0DBD286E0ADD2F7
:10F6A000812C28E7922EA12CB12CB501A4015B5727
:10F6B0006F4F7F4FDE01AF5FBE4F6BBFFA01879187
:10F6C0008D934F5F5F4F6F4F7F4FAE15BF05A9F70B
:10F6D000AE014F5F5E4FC501B40112DE9FEF991A74
:10F6E000A90AB90A8114ECE79E06A104B104E9F65F
:10F6F000A895812C99249394A92CB12C9E012F5F5D
:10F700003E4FD501C401ABBFFC014791F9014193C4
:10F710009F010196A11DB11DEE15FF05A1F7A8954A
:10F72000C501B401715081409109AE014F5F5E4F38
:10F73000E7DDFFEF9F1AAF0ABF0A811489E7980639
:10F7400081E0A806B104D1F6A895812C8EE7982E09
:10F75000A12CB12C1FEFFE01EF5FFE4F1193EE15B0
:10F76000FF05E1F7AE014F5F5E4FC501B401C8DD93
:10F770009FEF991AA90AB90A8114EAE79E06E1E007
:10F78000AE06B10441F7A8958EEF91E062D286E013
:10F7900034D2FFCF2F923F924F925F926F927F921F
:10F7A0008F929F92AF92BF92CF92DF92EF92FF9291
:10F7B0000F931F93CF93DF93CDB7DEB7C151D140E5
:10F7C0000FB6F894DEBF0FBECDBFCB5FDE4F99837F
:10F7D0008883C550D140C95FDE4F59834883C750E5
:10F7E000D140C75FDE4F39832883C950D1406B01B8
:10F7F000CB01770FAA0BBB0B2227382F492F5A2F8B
:10F80000CF5FDE4F288339834A835B83C150D14069
:10F81000AE014F5F5F4F4A01A12CB12CB62EA41A46
:10F82000B50A212C312C21013E0151E0650E751ED7
:10F83000C55FDE4F8882CB50D140192DC95FDE4FA6
:10F8400048815981C750D140C416D50608F085C0FB
:10F85000CF5FDE4F488159816A817B81C150D140A1
:10F86000420D531D641D751D9501220D331D74013C
:10F87000002309F443C0C701820F931FC05FDE4F0E
:10F880002883C051D140CF5EDE4F3883C151D14073
:10F89000C45FDE4F4883CC50D140C35FDE4F5883F6
:10F8A000CD50D140C25FDE4F6883CE50D140C15FA2
:10F8B000DE4F7883CF50D1405CD2F7018083C05FA8
:10F8C000DE4F2881C051D140CF5EDE4F3881C1511B
:10F8D000D140C45FDE4F4881CC50D140C35FDE4F82
:10F8E0005881CD50D140C25FDE4F6881CE50D140AB
:10F8F000C15FDE4F7881CF50D14005C06BBFFA01A8
:10F900008791F7018083FFEFEF1AFF0A4F5F5F4F88
:10F910006F4F7F4FE614F70409F0AACFA89520E0B7
:10F9200031E0C75FDE4F48815981C950D140C55F82
:10F93000DE4F6881CB50D140712FCB5FDE4F888185
:10F940009981C550D1400E94B3F12FEFC21AD20A5B
:10F950003FEF331A430A530A71CFCF5EDE4F0FB623
:10F96000F894DEBF0FBECDBFDF91CF911F910F91F5
:10F97000FF90EF90DF90CF90BF90AF909F908F90CF
:10F980007F906F905F904F903F902F900895EF92EF
:10F99000FF920F931F93CF93DF93CDB7DEB760979E
:10F9A0000FB6F894DEBF0FBECDBFCE0101967C012D
:10F9B00080E1F70111928A95E9F798E288E10FB6A4
:10F9C000F894A895809360000FBE909360001CD1BE
:10F9D000811101C0FCCF1ED1863001F5A89586E0CB
:10F9E00092E037D100E0970140E052E060EE71E034
:10F9F0008CE991E0CFDEA8958E010F5E1F4FE016D7
:10FA0000F10629F0F70181917F01F7D0F8CFA89591
:10FA1000FBD0811101C0FCCFA895FFCF60960FB637
:10FA2000F894DEBF0FBECDBFDF91CF911F910F9134
:10FA3000FF90EF900895CF92DF92EF92FF920F9395
:10FA40001F93CF93DF93CDB7DEB7A0970FB6F8948F
:10FA5000DEBF0FBECDBF7E0121E1E20EF11C80E1D1
:10FA6000F70111928A95E9F798E288E10FB6F894C8
:10FA7000A895809360000FBE9093600000E097010E
:10FA80004FED51E060E070E08CE991E083DEDE0153
:10FA90001196CD0140E05FED61E070E06BBFFA01CF
:10FAA0002791FC012193CF014F5F5F4F6F4F7F4F35
:10FAB0004031FFED5F07F1E06F07710579F7F7015E
:10FAC00080E0AE15BF0531F02D9191912917C9F352
:10FAD00081E0F7CF882321F087E192E0BAD0FFCF11
:10FAE00080E098E7A0E0B0E0ABBFFC0117911F3FBA
:10FAF000A1F0C12C88E7D82EE12CF12C112359F06C
:10FB0000EBBEF6011791812F9DD02FEFC21AD20ABA
:10FB1000E20AF20AF3CF8AE095D0A8950FB6F894DE
:10FB2000A8958091600088618093600010926000C9
:10FB30000FBE0C940000A0960FB6F894DEBF0FBE67
:10FB4000CDBFDF91CF911F910F91FF90EF90DF908C
:10FB5000CF90089582E084BD80936E00F3D06AE078
:10FB600070E096D087BD0895809166009BEA899FDA
:10FB7000812D11248695885D809366002DD051D00B
:10FB8000E9DFA89584B7877F84BF0FB6F894A8955E
:10FB900080916000886180936000109260000FBEC9
:10FBA00084B1837E84B985B18C6185B91A9903C00B
:10FBB00085E523D000DC1B9903C082E51ED02DDA39
:10FBC0001C9904C083E419D0E2DE03C082E415D09E
:10FBD00032DF80E090E008951092CD0087E08093BE
:10FBE000CC00E8ECF0E080818260808388E1809343
:10FBF000C90086E08093CA0008959091C80095FFDF
:10FC0000FCCF8093CE0008958091C800881F88277C
:10FC1000881F08958091C80087FFFCCF8091CE0097
:10FC200008951092C50087E08093C400E0ECF0E0F6
:10FC300080818260808388E18093C10086E0809328
:10FC4000C20008959091C00095FFFCCF8093C6003C
:10FC50000895CF93DF93EC018991882311F0F2DFAF
:10FC6000FBCFDF91CF910895AA1BBB1B51E107C0C9
:10FC7000AA1FBB1FA617B70710F0A61BB70B881F3C
:10FC8000991F5A95A9F780959095BC01CD010895CB
:10FC900097FB072E16F4009406D077FD08D0E4DF1A
:10FCA00007FC05D03EF4909581959F4F089570957F
:10FCB00061957F4F08958F929F92AF92BF92CF929E
:10FCC000DF92EF92FF92CF93DF93EC01688179810D
:10FCD0008A819B81611571058105910521F464E29A
:10FCE00079ED8BE597E02DE133EF41E050E074D002
:10FCF00049015A019B01AC01A7EAB1E489D06B012B
:10FD00007C01ACEEB4EFA50194018ED0DC01CB01F7
:10FD10008C0D9D1DAE1DBF1DB7FF03C00197A1092E
:10FD2000B04888839983AA83BB839F77DF91CF9163
:10FD3000FF90EF90DF90CF90BF90AF909F908F900B
:10FD40000895B9CF80E091E0B6CFA0E0B0E0809315
:10FD5000000190930101A0930201B0930301089563
:10FD6000FB01DC0102C001900D9241505040D8F7D8
:10FD70000895F999FECF92BD81BDF89A992780B573
:10FD80000895A8E1B0E042E050E006C00196272FB8
:10FD900012D010C0DC01CB01FC01F999FECF06C0E6
:10FDA000F2BDE1BDF89A319600B40D924150504039
:10FDB000B8F70895262FF999FECF92BD81BDF89A24
:10FDC000019700B4021639F01FBA20BD0FB6F8949F
:10FDD000FA9AF99A0FBE0895052E97FB16F400942F
:10FDE0000FD057FD05D024D007FC02D046F408C040
:10FDF00050954095309521953F4F4F4F5F4F089557
:10FE000090958095709561957F4F8F4F9F4F089586
:10FE100031D0A59F900DB49F900DA49F800D911D92
:10FE200011240895B7FFF4CFF3DF821B930B0895DD
:10FE3000A1E21A2EAA1BBB1BFD010DC0AA1FBB1FEE
:10FE4000EE1FFF1FA217B307E407F50720F0A21B60
:10FE5000B30BE40BF50B661F771F881F991F1A94CD
:10FE600069F760957095809590959B01AC01BD01F7
:10FE7000CF010895A29FB001B39FC001A39F700D51
:10FE8000811D1124911DB29F700D811D1124911DA2
:06FE90000895F894FFCF75
:10FE960001000000D00E6338D59B6C600747DCE696
:10FEA60055B8E7FFD7DDBD954586C19EA1F762C669
:10FEB6003A0EB00132CED27448D707EF091BA4C15F
:10FEC60089F8907E857979CACA971E4BAE1C31DCBB
:10FED600F530D4145CE3CEF76DE2DB81AC28D0219B
:10FEE600CAC3DBE642C9B0B9C0BA5B323AF2A2BEB7
:10FEF60087F2B3C2B5C2A0D37BAF05F369B46E6710
:10FF0600CD9BA32E6B631E281152C2B48F08AE344C
:10FF160039C0993D34A2A9D8CE8D390662B442C8FB
:10FF2600ABA0C65DE97B505DFB871EDFB9017BFD9B
:10FF3600F58AD4E7DD2D5A398021B4006DA30D175B
:10FF4600008894AFF17CCE4B3DF0EC4357726F6E58
:10FF560067205242480057726F6E672052425057D0
:10FF66000057726F6E6720480A00476F6F6420481B
:10FF76000A00476F6F6420444350540A0046616983
:10FF86006C65640A00537563636573730A004C6F8E
:10FF9600616465640A0043616C63756C6174696EC3
:10FFA60067204861736800465720436F7272757008
:04FFB600746564000A
:040000031000E00009
:00000001FF
