:020000021000EC
:10F0000021E0A0E0B1E001C01D92A235B207E1F716
:10F0100081E88093C40088E18093C1000895CF9374
:10F02000873061F0C82F8A3019F48DE00E940FF804
:10F030008091C00085FFFCCFC093C60080E090E0C7
:10F04000CF9108950F931F93CF93DF938091500139
:10F0500090915101892B09F091C0C0E0D1E08091DD
:10F06000C00087FFFCCF8091C00084FD9AC08091D2
:10F07000C00083FD99C08091C6008D3059F48AE0AC
:10F0800088830E940FF880E091E090935101809373
:10F09000500174C08A3099F3893009F480E290EE0F
:10F0A000980F9F3510F0803A80F091E0CF34D90767
:10F0B00021F487E00E940FF8D2CF8E010F5F1F4F1F
:10F0C00088830E940FF8E801CACF823109F130F439
:10F0D000833009F469C0883051F0C1CF873129F0FD
:10F0E0008F3729F0853119F1BACF8E0140C0E1E0A8
:10F0F000C030DE0709F008F4B2CF88E00E940FF8B4
:10F1000080E20E940FF888E00E940FF82197A7CFB5
:10F110008DE00E940FF800E011E00C171D0708F0C9
:10F120009ECFF80181918F010E940FF8F6CFF1E098
:10F13000C030DF0709F008F492CF88E00E940FF892
:10F1400080E20E940FF888E00E940FF82197EFCF2D
:10F15000F80182918F01803209F481CF88E00E940A
:10F160000FF880E20E940FF888E00E940FF8E80193
:10F1700081E00030180709F058F771CFE091500195
:10F18000F0915101CF01019690935101809350016C
:10F1900080818A3021F4109251011092500190E048
:10F1A00005C08EEF9FEF02C08FEF9FEFDF91CF91F1
:10F1B0001F910F910895A89584B7877F84BFE0E6DB
:10F1C000F0E080818861808310820895F8940E9425
:10F1D000DBF8209A91E085B1892785B92FE734E8DB
:10F1E0008EE1215030408040E1F700C00000F3CFB5
:040000031000F000F9
:00000001FF
