:020000021000EC
:10E00000CAC00000E7C00000E5C00000E3C0000097
:10E01000E1C00000DFC00000DDC00000DBC0000088
:10E02000D9C00000D7C00000D5C00000D3C0000098
:10E03000D1C00000CFC00000CDC00000CBC00000A8
:10E04000C9C00000C7C00000C5C00000C3C00000B8
:10E05000C1C00000BFC00000BDC00000BBC00000C8
:10E06000B9C00000B7C00000B5C00000B3C00000D8
:10E07000B1C00000AFC00000ADC00000ABC00000E8
:10E08000A9C00000A7C00000A5C00000010204084C
:10E09000102040801B36637C777BF26B6FC53001AC
:10E0A000672BFED7AB76CA82C97DFA5947F0ADD44B
:10E0B000A2AF9CA472C0B7FD9326363FF7CC34A51F
:10E0C000E5F171D8311504C723C31896059A0712D4
:10E0D00080E2EB27B27509832C1A1B6E5AA0523BC3
:10E0E000D6B329E32F8453D100ED20FCB15B6ACB7A
:10E0F000BE394A4C58CFD0EFAAFB434D338545F982
:10E10000027F503C9FA851A3408F929D38F5BCB62A
:10E11000DA2110FFF3D2CD0C13EC5F974417C4A79C
:10E120007E3D645D197360814FDC222A908846EE43
:10E13000B814DE5E0BDBE0323A0A4906245CC2D337
:10E14000AC629195E479E7C8376D8DD54EA96C56D0
:10E15000F4EA657AAE08BA78252E1CA6B4C6E8DDC6
:10E16000741F4BBD8B8A703EB5664803F60E613551
:10E1700057B986C11D9EE1F8981169D98E949B1EEE
:10E1800087E9CE5528DF8CA1890DBFE64268419909
:10E190002D0FB054BB1611241FBECFEFD0E4DEBF4D
:10E1A000CDBF12E0A0E0B1E0EAE8FBEF01E00BBF79
:10E1B00002C007900D92A834B107D9F722E0A8E475
:10E1C000B2E001C01D92A834B207E1F70E9437FC0B
:10E1D0000C94C3FD15CFAF92BF92CF92DF92EF9216
:10E1E000FF920F931F93CF93DF9300D0CDB7DEB78D
:10E1F0006B017901B90149835A83B7D64981E42F6C
:10E200005A81F52F5801CF014096D80121912D93C5
:10E21000E817F907D9F7B701C801F1D0F601005F97
:10E220001F4F8191D5019C9189278D935D01A01786
:10E23000B107B9F70F900F90DF91CF911F910F9118
:10E24000FF90EF90DF90CF90BF90AF900895EF9246
:10E25000FF920F931F93CF93DF937B01E901FA01A4
:10E2600089019A01205F3F4FDE0141914D93E217F2
:10E27000F307D9F7BC01CE01C2D0F70160968191B6
:10E28000D8019C9189278D938D01AC17BD07B9F7F3
:10E29000DF91CF911F910F91FF90EF900895AF9272
:10E2A000BF92CF92DF92EF92FF920F931F93CF9383
:10E2B000DF9300D0CDB7DEB76B017901B901498397
:10E2C0005A8353D64981E42F5A81F52F5801CF0143
:10E2D0004096D80121912D93E817F907D9F7B70196
:10E2E000C8018DD0F601005F1F4F8191D5019C912F
:10E2F00089278D935D01A017B107B9F70F900F9093
:10E30000DF91CF911F910F91FF90EF90DF90CF9011
:10E31000BF90AF900895EF92FF920F931F93CF930A
:10E32000DF937B01E901FA0189019A01205F3F4FE8
:10E33000DE0141914D93E217F307D9F7BC01CE01FD
:10E340005ED0F70160968191D8019C9189278D93C9
:10E350008D01AC17BD07B9F7DF91CF911F910F91D8
:10E36000FF90EF9008958F929F92AF92BF92CF92BD
:10E37000DF92EF92FF920F931F93CF93DF93CDB76E
:10E38000DEB7C05FD1090FB6F894DEBF0FBECDBFB8
:10E390006B017A015901BE016F5F7F4FE6D500E046
:10E3A00010E0470180E1880E911C0A151B0598F4C6
:10E3B000D601A00FB11FF7018D919081892781931C
:10E3C000E815F905C9F7BE016F5F7F4FC70117D088
:10E3D000005F1F4FEACFC051DF4F0FB6F894DEBF8A
:10E3E0000FBECDBFDF91CF911F910F91FF90EF90A6
:10E3F000DF90CF90BF90AF909F908F9008954EE0A8
:10E400005BC0CF93DF9300D000D0CDB7DEB7DC0187
:10E410008C91898314968C9114978A8318968C9189
:10E4200018978B831C968C911C978C83862F8370F6
:10E43000E1E0F0E0EC0FFD1FE80FF11D80818C930F
:10E4400070E0FB013196E370FF2781E090E08C0FD4
:10E450009D1FE80FF91F808114968C931497FB0180
:10E460003296E370FF2781E090E08C0F9D1FE80F4C
:10E47000F91F808118968C931897FB013396E370EF
:10E48000FF2781E090E08C0F9D1FE80FF91F80812E
:10E490001C968C930F900F900F900F90DF91CF915F
:10E4A0000895982F991F9927991F2BE1929F902DDE
:10E4B0001124880F892708952F923F924F925F92DF
:10E4C0006F927F928F929F92AF92BF92CF92DF9284
:10E4D000EF92FF920F931F93CF93DF93CDB7DEB7E9
:10E4E000E2970FB6F894DEBF0FBECDBF8C015B0183
:10E4F000E42E0E9424FD6E0121E2C20ED11C3601E1
:10E50000E0E19E2E9C0C0E9424FDF30181933F01CB
:10E510009E12F9CF75E0F72E0E9424FD0E9424FD83
:10E52000FA94F110F9CF0E9424FD65E070E00E949A
:10E53000CAFC882E0E9424FD60E170E00E94CAFCA3
:10E5400090E0981520F48F5F8F709F5FFACF8F5FF8
:10E550008F70282F30E0F60141916F01F801E20F32
:10E56000F31F908194279083D501A20FB31F2C91A4
:10E570002427922790839C10EACFCC24C394D12CDB
:10E5800055E0652E712C60E1862E912C4C2C8E2D41
:10E590008F19823008F4CDC20E9424FD582E0E94AB
:10E5A00024FDB3010E94CAFC482E0E9424FDB40140
:10E5B0000E94CAFC282F19AA89A9803180F439A8A1
:10E5C0002AAB0E9424FDE1E1F0E0EC0FFD1FE30D1A
:10E5D000F11D808389A98F5F89AB2AA9EDCFF1E076
:10E5E000FF1520F43DE0C316D10491F430E034155A
:10E5F00078F42F5F2F70852D90E08A569F41092E69
:10E60000000CAA0BBB0BABBFFC0157903F5FEFCFD9
:10E6100019AA89A98031E8F42F5F2F70822F90E02A
:10E62000F801E80FF91F408150E04A565F41052E7E
:10E63000000C660B770B6BBFFA014791E1E1F0E04C
:10E64000EC0FFD1FE80FF91F408389A98F5F89AB8D
:10E65000E0CF41E04F1520F45DE0C516D10481F410
:10E6600084E0841568F0852D90E08A569F41092E3C
:10E67000000CAA0BBB0BABBFFC0157904394F0CF2F
:10E6800019AA89A9803158F559A80E9424FDE1E012
:10E69000F0E0EC0FFD1FE50DF11DB4010E94CAFC76
:10E6A000808399A929A989A961E170E06C0F7D1F78
:10E6B000690F711DE1E0F0E0EC0FFD1FE80FF11DA7
:10E6C000A1E1B0E0AC0FBD1FA20FB11D90818C91F4
:10E6D0008927FB01808389A98F5F89ABD2CF61E055
:10E6E000CE0142968EDE61E0CE0102968ADE62E0C5
:10E6F000CE01439686DE62E0CE01039682DE63E0C1
:10E70000CE0144967EDE63E0CE0104967ADE19AA3D
:10E7100089A9843008F0E7C099A939A989A929A94C
:10E72000A2E1B0E0AC0FBD1FF4E03F9FA00DB11D12
:10E730001124E3E1F0E0EC0FFD1F34E0839FE00DD6
:10E74000F11D11245C9080815826E1E1F0E0EC0F8E
:10E75000FD1F44E0949FE00DF11D11249081592686
:10E76000E4E1F0E0EC0FFD1F54E0259FE00DF11D0A
:10E7700011248081582689A999A9A2E1B0E0AC0FA3
:10E78000BD1FE4E09E9FA00DB11D1124E1E1F0E06A
:10E79000EC0FFD1F24E0829FE00DF11D11249C91E0
:10E7A000808189277EDE99A929A9F80134E0239F79
:10E7B000E00DF11D1124A1E1B0E0AC0FBD1F44E05C
:10E7C000949FA00DB11D11249C91952589278083CC
:10E7D00089A999A9A3E1B0E0AC0FBD1F54E0959FB2
:10E7E000A00DB11D1124E2E1F0E0EC0FFD1F94E05B
:10E7F000899FE00DF11D11249C918081892751DEB4
:10E8000099A929A9F80134E0239FE00DF11D1124F5
:10E81000A2E1B0E0AC0FBD1F44E0949FA00DB11D7C
:10E8200011249C9195258927818389A999A9A4E11F
:10E83000B0E0AC0FBD1F54E0959FA00DB11D112499
:10E84000E3E1F0E0EC0FFD1F94E0899FE00DF11D86
:10E8500011249C918081892724DE99A929A9F80196
:10E8600034E0239FE00DF11D1124A3E1B0E0AC0FD3
:10E87000BD1F44E0949FA00DB11D11249C919525CE
:10E880008927828399A989A9A4E1B0E0AC0FBD1FB3
:10E8900054E0959FA00DB11D1124E1E1F0E0EC0FD3
:10E8A000FD1F94E0899FE00DF11D11249C91808152
:10E8B0008927F7DD99A929A9F80134E0239FE00D04
:10E8C000F11D1124A4E1B0E0AC0FBD1F44E0949F02
:10E8D000A00DB11D11249C9159268525838389A9FA
:10E8E0008F5F89AB15CF19AA89A9843008F0F3C0CE
:10E8F00099A939A989A929A9A2E0B0E0AC0FBD1F47
:10E9000054E0359FA00DB11D1124E3E0F0E0EC0FC1
:10E91000FD1F34E0839FE00DF11D11245C90808188
:10E920005826E1E0F0E0EC0FFD1F44E0949FE00D7D
:10E93000F11D112490815926E4E0F0E0EC0FFD1F59
:10E9400054E0259FE00DF11D11248081582689A9EE
:10E9500099A9A2E0B0E0AC0FBD1FE4E09E9FA00D1E
:10E96000B11D1124E1E0F0E0EC0FFD1F24E0829FD7
:10E97000E00DF11D11249C918081892792DD99A9D8
:10E9800029A9E1E1F0E0EC0FFD1F34E0239FE00D49
:10E99000F11D1124A1E0B0E0AC0FBD1F44E0949F35
:10E9A000A00DB11D11249C9195258927808389A9EB
:10E9B00099A9A3E0B0E0AC0FBD1F54E0959FA00D56
:10E9C000B11D1124E2E0F0E0EC0FFD1F94E0899FFF
:10E9D000E00DF11D11249C918081892762DD99A9A8
:10E9E00029A9E2E1F0E0EC0FFD1F34E0239FE00DE8
:10E9F000F11D1124A2E0B0E0AC0FBD1F44E0949FD4
:10EA0000A00DB11D11249C9195258927808389A98A
:10EA100099A9A4E0B0E0AC0FBD1F54E0959FA00DF4
:10EA2000B11D1124E3E0F0E0EC0FFD1F94E0899F9D
:10EA3000E00DF11D11249C918081892732DD99A977
:10EA400029A9E3E1F0E0EC0FFD1F34E0239FE00D86
:10EA5000F11D1124A3E0B0E0AC0FBD1F44E0949F72
:10EA6000A00DB11D11249C9195258927808399A91A
:10EA700089A9A4E0B0E0AC0FBD1F54E0959FA00DA4
:10EA8000B11D1124E1E0F0E0EC0FFD1F94E0899F3F
:10EA9000E00DF11D11249C918081892702DD99A947
:10EAA00029A9E4E1F0E0EC0FFD1F34E0239FE00D25
:10EAB000F11D1124A4E0B0E0AC0FBD1F44E0949F11
:10EAC000A00DB11D11249C9159268525808389A90B
:10EAD0008F5F89AB09CFB8D7B4015CD719AAA6015B
:10EAE00034E0440F551F3A95E1F799A99031E0F4CD
:10EAF0008F5F8F70282F30E0D801A20FB31FFA016B
:10EB0000E20FF31FEA0DFB1D60819C919627E1E166
:10EB1000F0E0EC0FFD1FE20FF31F208192279C9382
:10EB200099A99F5F99ABE1CFF3945FEFC51AD50A1E
:10EB30002DCD512C89D7D82E87D765E070E02AD704
:10EB4000C82E82D760E170E025D790E09C1578F45C
:10EB50008F5F8F704D2D50E04A565F41052E000C9F
:10EB6000660B770B6BBFFA01D7909F5FEFCF90E1F9
:10EB70007E01E1E1EE0EF11C8F5F8F70282F30E0F7
:10EB8000F801E20FF31F408150E04A565F41052E25
:10EB9000000C660B770B6BBFFA014791F701E20F90
:10EBA000F31F4083915041F7F4E0FC1568F08D2D80
:10EBB00090E08A569F41092E000CAA0BBB0BABBFFD
:10EBC000FC01D790C394F0CF9E012F5F3F4F4901C6
:10EBD0006701190120E1622E712C20E12E0D2AAB74
:10EBE00033D7B301D7D6F40181934F01F601908159
:10EBF000892781936F012AA92E13F1CF61E0CE01FD
:10EC00004296FFDB61E0CE010296FBDB62E0CE01C3
:10EC10004396F7DB62E0CE010396F3DB63E0CE01BF
:10EC20004496EFDB63E0CE010496EBDB0DD760E1A9
:10EC300070E0B0D6D82E08D765E070E0ABD6C82E0D
:10EC400090E1992E01D79A949110FCCF90E09C15F9
:10EC500030F481E08D0D8F70D82E9F5FF8CF20E1CA
:10EC600084E0440C551C8A95E1F781E08D0D8F708E
:10EC7000D82E90E0F701E80FF91F4081F801E80F66
:10EC8000F91F4083D201A80FB91FAA0DBB1D3C91EB
:10EC90003427D101A80FB91F9C91832F8927808326
:10ECA000215019F7E2960FB6F894DEBF0FBECDBF24
:10ECB000DF91CF911F910F91FF90EF90DF90CF9058
:10ECC000BF90AF909F908F907F906F905F904F908C
:10ECD0003F902F9008952F923F924F925F926F92A4
:10ECE0007F928F929F92AF92BF92CF92DF92EF92DC
:10ECF000FF920F931F93CF93DF93CDB7DEB7299782
:10ED00000FB6F894DEBF0FBECDBF8C015A017B0158
:10ED100045E0F694E7944A95E1F72E2C47019924B3
:10ED2000240127E0420E511C342D330F330F398755
:10ED30006B0153E0D694C7945A95E1F7512C652C9A
:10ED4000712C6C147D0438F47FD6F501E60DF71DA7
:10ED5000808B5394F4CFA601B801C50183D674D635
:10ED600065E070E017D6082F6FD6182F6DD6837028
:10ED70003E2C5E2C412C35E0632E712C29855216D9
:10ED800008F0DAC0252D30E03E832D83690131E0A3
:10ED9000C31A30ECD30ACC0CDD1CCC0CDD1C950165
:10EDA0002C0D3D1D38872F83F901408151816281EF
:10EDB000738149835A836B837C83531409F447C05E
:10EDC000F8E02F129BC0952D9770943009F096C0F3
:10EDD00090E0901769F0412F50E04A565F41052EB0
:10EDE000000C660B770B6BBFFA0117919F5FF1CF99
:10EDF00044E050E08F5F8370A1E0B0E0AC0FBD1F36
:10EE0000A80FB11D6C9170E06A567F416B01770FBE
:10EE1000EE08FF08EBBEF60197919C934150510913
:10EE200049F7053068F4812F90E08A569F41092EFA
:10EE3000000CAA0BBB0BABBFFC0117910F5FF1CF0E
:10EE400003D6B301A7D5082FFFD5837057C0352C43
:10EE5000320C99813A8139833B813A833C813B83EF
:10EE60009C8390E0901769F0412F50E04A565F4133
:10EE7000052E000C660B770B6BBFFA0117919F5F95
:10EE8000F1CF44E050E08F5F8370A1E0B0E0AC0FC1
:10EE9000BD1FA80FB11D6C9170E06A567F416B01D8
:10EEA000770FEE08FF08EBBEF60197919C93415057
:10EEB000510949F7053068F4812F90E08A569F4147
:10EEC000092E000CAA0BBB0BABBFFC0117910F5F07
:10EED000F1CFBAD5B3015ED5082FB6D58370442DD6
:10EEE00050E044575F41052E000C660B770B6BBF5B
:10EEF000FA0147919981492749834394ED81FE8125
:10EF0000E819F909EE0FFF1FEE0FFF1FEA0DFB1DB9
:10EF1000C080D180E280F38049815A816B817C81FD
:10EF20004C255D256E257F25EF81F885448355832B
:10EF300066837783539422CF29960FB6F894DEBF69
:10EF40000FBECDBFDF91CF911F910F91FF90EF903A
:10EF5000DF90CF90BF90AF909F908F907F906F90F9
:10EF60005F904F903F902F900895AB0160E071E06B
:10EF7000B2CEAF92BF92CF92DF92EF92FF920F93F9
:10EF80001F93CF93DF93CDB7DEB7C051D1400FB6FB
:10EF9000F894DEBF0FBECDBF5E0181E0A80EB81EA3
:10EFA00080E1F50111928A95E9F79FE088E10FB6BB
:10EFB000F894A895809360000FBE90936000ACD445
:10EFC0008630E9F7A895C12C80EED82EEE24E39484
:10EFD000F12C8E010F5F1F4FD701C601ABBFFC01A3
:10EFE0002791F80121938F010196A11DB11DEA150A
:10EFF000FB05A1F720E031E0AF01BE016F5F7F4F5D
:10F000008CE791E0B0D9FFEFEF1AFF0AC11480EE50
:10F01000D80681E2E806F104E1F6A8957801E0E17E
:10F02000EE0EF11C0E151F0529F0F80181918F01DC
:10F0300066D4F8CFA8956AD4811101C0FCCFA895F9
:10F040006BD4863009F4FFCFC05FDE4F0FB6F89463
:10F05000DEBF0FBECDBFDF91CF911F910F91FF900B
:10F06000EF90DF90CF90BF90AF900895CF93DF9354
:10F07000CDB7DEB7C856D3400FB6F894DEBF0FBE8B
:10F08000CDBF7E012FEAE21A2CEFF20A80E1D70110
:10F090001D928A95E9F79FE088E10FB6F894A8954C
:10F0A000809360000FBE9093600030D4811101C046
:10F0B000FCCF5E01BFE0AB1ABDEFBB0A4501E0E348
:10F0C0008E0E911C6501A814B90429F025D4D50130
:10F0D0008D935D01F8CFA89520E230E0A701B6013D
:10F0E0008CE791E040D9A895F701D6019096C70129
:10F0F0004096F12CE817F90739F031912D9132172C
:10F10000C9F3FF24F394F6CFFF2031F085E1F7D364
:10F110008CE991E020D4FFCFA8958E010F5D1C4FA4
:10F120009E012F5F3D4F4CE151E0B6018CE391E031
:10F13000B6D89801205F3F4FB601605F7F4FA601B0
:10F14000CE018F5F9D4FE7D8A895E4E0F1E0D801AC
:10F1500021E0EC31F20739F091918D919817C1F3CC
:10F16000FF24F394F5CFFF2031F085E1C8D386EB7F
:10F1700091E0F1D3FFCFA895C55CDC4F4881CB531C
:10F18000D34050E0542F4427052E000C660B770B1C
:10F19000C45CDC4F8881CC53D340482BA895C52E46
:10F1A000D62EE72EFF24C15CDC4F8881CF53D3409D
:10F1B00090E0982F8827092E000CAA0BBB0BC05C8F
:10F1C000DC4F2881C054D340822B840F951FA61F8B
:10F1D000B71F892F9A2FAB2FBB27CF59DC4F9983AD
:10F1E0008883C156D3408C159D0549F49C012F5F3F
:10F1F0003F4FCF59DC4F39832883C156D340560146
:10F200000D2C000CEE08FF08BE2DAD2D9C2D88277F
:10F21000CB59DC4F88839983AA83BB83C556D340DF
:10F22000212C312C21016E0191E0C90ED91E3E0125
:10F23000AFEF6A1AADEF7A0ACF59DC4F8881998116
:10F24000C156D340A816B90608F082C0CB59DC4F8E
:10F25000488159816A817B81C556D340420D531D37
:10F26000641D751DD6016BBFFA0187918D934F5FA9
:10F270005F4F6F4F7F4FA615B705A9F7A895FE0101
:10F280003196CD59DC4FF983E883C356D3404F0103
:10F29000E12CF12CA114B10479F4E114F104B9F4D6
:10F2A0008E010F5F1F4F93014CE151E0B6018CE3DB
:10F2B00091E00E94EBF017C0E114F10441F49E01CB
:10F2C0002F5F3F4FAE014F5B5C4FB60107C094010B
:10F2D000A40140515109B6016E0D7F1DCE018F5F13
:10F2E0009D4F0E9427F130E1E30EF11C80E1880E72
:10F2F000911CE11491E0F90669F6FE01EF50FE4F12
:10F30000DE01AF5BBC4FE615F70519F081918D93D7
:10F31000FACFCD59DC4FA881B981C356D3408D9126
:10F32000CD59DC4FB983A883C356D340E8D2CD5919
:10F33000DC4FE881F981C356D340EC15FD0549F750
:10F34000FFEFAF1ABF0A2FEF321A420A520A74CFE8
:10F35000A895FFCFCF92DF92EF92FF92CF939FE0DD
:10F3600088E10FB6F894A895809360000FBE909343
:10F37000600080E098E7A0E0B0E0ABBFFC01C7917F
:10F38000CF3FB9F081ED91E0E6D2C12C88E7D82ECD
:10F39000E12CF12CCC2359F0EBBEF601C7918C2F58
:10F3A000D3D28FEFC81AD80AE80AF80AF3CF8AE056
:10F3B000CBD2A8950FB6F894A8958091600088618B
:10F3C00080936000109260000FBE0C940000CF91FB
:10F3D000FF90EF90DF90CF9008958F929F92AF9221
:10F3E000BF92CF92DF92FF92FFB6F89407B600FC6F
:10F3F000FDCFF999FECF23E0FB0180935B002093C2
:10F400005700E8954B015C0120E030E0B1E0FA01E3
:10F41000E20FF31FA081E181F0E0FE2FEE276F01E4
:10F42000CA0ED11C07B600FCFDCFF999FECF06012C
:10F43000F401A0925B00B0935700E89511242E5F71
:10F440003F4FE2E08E0E911CA11CB11C2115E1E0A2
:10F450003E07E9F607B600FCFDCFF999FECF25E09F
:10F46000FB0180935B0020935700E89507B600FCF2
:10F47000FDCFF999FECF81E180935700E895FFBE5B
:10F48000FF90DF90CF90BF90AF909F908F900895A6
:10F49000CF93DF93CDB7DEB7C051D3400FB6F8940A
:10F4A000DEBF0FBECDBF5E018FE0A81A8DEFB80A98
:10F4B00080E1F50111928A95E9F780E090E0DBD2D6
:10F4C0004C019FE088E10FB6F894A8958093600006
:10F4D0000FBE90936000412C6EE7562E612C712C6C
:10F4E000C12CD12C7E01FFEFEF1AFDEFFF0A0ED2E7
:10F4F000811101C0FCCFA895CE018F5F9E4F1C01EA
:10F500000BD2F10181931F01EE15FF05C9F7AE0182
:10F510004F5F5E4FC301B20160DFFDE7CF16D1043C
:10F5200051F020E031E0A501BE016F5F7E4F8CE716
:10F5300091E00E94B3F186E0E2D1A8958FEFC81A5E
:10F54000D80A9FEF591A690A790AEEE7CE16D10454
:10F5500071F6F501CE018F5F9E4F6C019501205F22
:10F560003F4FDC0180E0E217F30731F041919D91BC
:10F570004917C9F381E0F7CF882321F185E1BFD195
:10F5800083EE91E0E8D18FEFF60181936F01EE15E4
:10F59000FF05D1F7A895C12C5EE7D52EE12CF12C03
:10F5A000AE014F5F5E4FC701B60117DFA895FFEFB1
:10F5B000DF1AEF0AFF0AC1148CEFD806E104F10448
:10F5C00079F7FFCFA89586E09AD180EF91E0C3D17B
:10F5D000212C4CEF342E412C512CC12CD12CB201BA
:10F5E000A1015E5761097109DE01AF5FBE4F6BBFBC
:10F5F000FA0187918D934F5F5F4F6F4F7F4FAE152D
:10F60000BF05A9F7A895FE01EF5FFE4F3F01A12CB2
:10F61000B12CC114D10489F4A114B104D9F48E0120
:10F620000F5F1F4F97014CE251E0BE016F5F7E4FAD
:10F630008CE591E00E944FF11AC0A114B10451F47D
:10F640009E012F5F3F4FAE014F5F5C4FBE016F5F6A
:10F650007E4F0AC021E030E02C0F3D1F2A0D3B1DDC
:10F66000A30140515109B301C7010E948BF1F0E1A0
:10F67000AF0EB11C80E1680E711CA11491E0B906B7
:10F6800041F6A895FE01EF50FE4FDE01AF5FBC4F83
:10F69000EE15FF0519F081918D93FACFAE014F5F02
:10F6A0005F4FC201B10199DEA895EFEFCE1ADE0AD5
:10F6B000FFEF3F1A4F0A5F0A8EE7C816D10409F020
:10F6C0008ECFA89586E01BD180E092E044D180E007
:10F6D0009CEFA0E0B0E0ABBFFC01679176916115B3
:10F6E000710509F444C08616970608F43DC085E10B
:10F6F00006D183E192E02FD1812C3EE7932EA12CFD
:10F70000B12C1FEFFE01EF5FFE4F1193EE15FF05C9
:10F71000E1F7AE014F5F5E4FC501B4015EDE9FEFC2
:10F72000991AA90AB90A8114ECEF9E06A104B10442
:10F7300049F7A8951FEFFE01EF5FFE4F1193EE15FD
:10F74000FF05E1F7AE014F5F5E4FC501B40145DE35
:10F75000FFEF9F1AAF0ABF0A81148AE7980681E07B
:10F76000A806B10441F7FFCF80E090E089D1A895C9
:10F7700083E292E0F0D086E0C2D0812C28E7922E7E
:10F78000A12CB12CB501A4015B576F4F7F4FDE0157
:10F79000AF5FBE4F6BBFFA0187918D934F5F5F4F95
:10F7A0006F4F7F4FAE15BF05A9F7AE014F5F5E4F9C
:10F7B000C501B40112DE9FEF991AA90AB90A811492
:10F7C000ECE79E06A104B104E9F6A895812C9924E2
:10F7D0009394A92CB12C9E012F5F3E4FD501C401FB
:10F7E000ABBFFC014791F90141939F010196A11D17
:10F7F000B11DEE15FF05A1F7A895C501B401715023
:10F8000081409109AE014F5F5E4FE7DDFFEF9F1A28
:10F81000AF0ABF0A811489E7980681E0A806B104FF
:10F82000D1F6A895812C8EE7982EA12CB12C1FEF34
:10F83000FE01EF5FFE4F1193EE15FF05E1F7AE01FC
:10F840004F5F5E4FC501B401C8DD9FEF991AA90A49
:10F85000B90A8114EAE79E06E1E0AE06B10441F779
:10F86000A89586E392E077D086E049D0FFCF8091DB
:10F8700066009BEA899F812D11248695885D80937F
:10F8800066002CD050D0A89584B7877F84BF0FB670
:10F89000F894A89580916000886180936000109230
:10F8A00060000FBE84B1837E84B985B18C6185B957
:10F8B0001A9903C085E523D0EBDD1B9903C082E5CF
:10F8C0001ED0D4DB1C9904C083E419D052DB03C0E2
:10F8D00082E415D03FDD80E090E008951092CD00E5
:10F8E00087E08093CC00E8ECF0E080818260808348
:10F8F00088E18093C90086E08093CA0008959091C2
:10F90000C80095FFFCCF8093CE0008958091C80079
:10F91000881F8827881F08958091C80087FFFCCF23
:10F920008091CE0008951092C50087E08093C400B6
:10F93000E0ECF0E080818260808388E18093C10008
:10F9400086E08093C20008959091C00095FFFCCF9F
:10F950008093C6000895CF93DF93EC0189918823AB
:10F9600011F0F2DFFBCFDF91CF910895AA1BBB1BF3
:10F9700051E107C0AA1FBB1FA617B70710F0A61BAF
:10F98000B70B881F991F5A95A9F780959095BC01D0
:10F99000CD01089597FB072E16F4009406D077FD4D
:10F9A00008D0E4DF07FC05D03EF4909581959F4F89
:10F9B0000895709561957F4F08958F929F92AF92B1
:10F9C000BF92CF92DF92EF92FF92CF93DF93EC0141
:10F9D000688179818A819B81611571058105910515
:10F9E00021F464E279ED8BE597E02DE133EF41E01E
:10F9F00050E06CD049015A019B01AC01A7EAB1E487
:10FA000081D06B017C01ACEEB4EFA501940186D0EE
:10FA1000DC01CB018C0D9D1DAE1DBF1DB7FF03C0CA
:10FA20000197A109B04888839983AA83BB839F77F4
:10FA3000DF91CF91FF90EF90DF90CF90BF90AF908C
:10FA40009F908F900895B9CF80E091E0B6CFA0E06D
:10FA5000B0E08093000190930101A0930201B09364
:10FA600003010895FB01DC0102C001900D92415099
:10FA70005040D8F70895A8E1B0E042E050E006C059
:10FA80000196272F12D010C0DC01CB01FC01F9999F
:10FA9000FECF06C0F2BDE1BDF89A319600B40D92DA
:10FAA00041505040B8F70895262FF999FECF92BDE6
:10FAB00081BDF89A019700B4021639F01FBA20BD33
:10FAC0000FB6F894FA9AF99A0FBE0895052E97FB8F
:10FAD00016F400940FD057FD05D024D007FC02D0B7
:10FAE00046F408C050954095309521953F4F4F4FB3
:10FAF0005F4F089590958095709561957F4F8F4FDA
:10FB00009F4F089531D0A59F900DB49F900DA49F55
:10FB1000800D911D11240895B7FFF4CFF3DF821BF0
:10FB2000930B0895A1E21A2EAA1BBB1BFD010DC069
:10FB3000AA1FBB1FEE1FFF1FA217B307E407F5079D
:10FB400020F0A21BB30BE40BF50B661F771F881F79
:10FB5000991F1A9469F760957095809590959B010F
:10FB6000AC01BD01CF010895A29FB001B39FC001B8
:10FB7000A39F700D811D1124911DB29F700D811DD9
:0AFB80001124911D0895F894FFCFA1
:10FB8A0001000000D00E6338D59B6C600747DCE6A5
:10FB9A0055B8E7FFD7DDBD954586C19EA1F762C678
:10FBAA003A0EB00132CED27448D707EF091BA4C16E
:10FBBA0089F8907E857979CACA971E4BAE1C31DCCA
:10FBCA00F530D4145CE3CEF76DE2DB81AC28D021AA
:10FBDA00CAC3DBE642C9B0B9C0BA5B323AF2A2BEC6
:10FBEA0087F2B3C2B5C2A0D37BAF05F369B46E671F
:10FBFA00CD9BA32E6B631E281152C2B4B9017BFDA3
:10FC0A00F58AD4E7DD2D5A398021B4006DA30D178A
:10FC1A00008894AFF17CCE4B3DF0EC43496D707295
:10FC2A006F70657220726561646261636B207265D0
:10FC3A00717565737400496D70726F7065722072A8
:10FC4A006561646261636B2070617373776F72645C
:10FC5A000052656C65617365204D657373616765F4
:10FC6A003A0A0048617368206661696C65640A0033
:10FC7A0048617368207375636365656465640A0027
:10FC8A00446563727970742073756363656564652E
:10FC9A00640A0056657273696F6E206661696C65E5
:10FCAA00640A0056657273696F6E207375636365C3
:10FCBA00656465640A004669726D77617265206CD5
:08FCCA006F616465640A00002B
:040000031000E00009
:00000001FF
