S01D000041544D65676131323834505F456E635F6E6F5343502E7372656342
S113000045C0000061C000005FC000005DC000008A
S11300105BC0000059C0000057C0000055C000007C
S113002053C0000051C000004FC000004DC000008C
S11300304BC0000049C0000047C0000045C000009C
S113004043C0000041C000003FC000003DC00000AC
S11300503BC0000039C0000037C0000035C00000BC
S113006033C0000031C000002FC000002DC00000CC
S11300702BC0000029C0000027C0000025C00000DC
S113008023C0000021C000001FC0000011241FBEB7
S1130090CFEFD0E4DEBFCDBF11E0A0E0B1E0E4E6F5
S11300A0F3E100E00BBF02C007900D92A63FB10739
S11300B0D9F722E0A6EFB1E001C01D92AE34B20739
S11300C0E1F741D30C94B0099BCF4EE003C04CE060
S11300D001C04AE02F923F924F925F926F927F92BB
S11300E08F929F92AF92BF92CF92DF92EF92FF9244
S11300F00F931F93CF93DF938F939F93DB01FC01A7
S1130100842FE89481909190A190B190C190D19066
S1130110E190F1900191119121913191419151918D
S1130120619171919BE1F4E00D9080240D909024F5
S11301300D90A0240D90B0240D90C0240D90D024D7
S11301400D90E0240D90F0240D9000250D901025C5
S11301500D9020250D9030250D9040250D905025B3
S11301600D9060250D9070252EF5FF91EF918192F1
S11301709192A192B192C192D192E192F1920193A2
S11301801193219331934193519361937193DF912F
S1130190CF911F910F91FF90EF90DF90CF90BF9080
S11301A0AF909F908F907F906F905F904F903F9013
S11301B02F9008958A9509F46894E82D8490EC2D85
S11301C0C490E02F0491E42F4491E92D2490ED2D67
S11301D09490E12FD490E52F1491522DEA2D249080
S11301E0EE2D3490E22FA490E62FE490222D632D7F
S11301F0EB2D2490E72FB490E32F7491EF2D3491DD
S1130200F22C0EF491CF0A2C0B24402C282C892498
S11302100824880C08F4892680248224392C3A2462
S1130220330C08F4392630249324440C08F449266A
S11302304024A4242B24220C08F429262024B224AC
S11302400E2C0F24402C2C2CCD240C24CC0C08F484
S1130250C926C024C2243D2C3E24330C08F439267C
S11302603024D324440C08F449264024E4242F24C5
S1130270220C08F429262024F224022E0326402CE2
S1130280202E01270026000F08F409270025022547
S1130290312E3226330C08F4392630241325440C2D
S11302A008F44926402424252326220C08F4292670
S11302B020243225062E0726402C242E45270426EA
S11302C0440F08F4492740254225352E3626330CA1
S11302D008F4392630245325440C08F449264024D4
S11302E064252726220C08F42926202472251CCFF5
S11302F0AB0171E060E000C0EF92FF920F931F9397
S1130300CF93DF93FA01EA01DC0176956795669550
S11303106695262F0D9001922A95E1F766956695CC
S113032063FB362F762F795F770F770FDF011497F2
S1130330262FE0E0F4E07F0111E04D915D918D9175
S11303409D913217B1F05EF5022F0770043039F534
S1130350F701E40FF11D4491F701E50FF11D5491EC
S1130360F701E80FF11D8491F701E90FF11D949154
S113037016C0360FF701E40FF11D0491F701E50FE4
S1130380F11D4491F701E80FF11D5491F701E90FB4
S1130390F11D8491902F4127110F08F41BE1FD01F9
S11303A009900426019209900526019209900826D5
S11303B001920990092601922395271709F0BDCFD0
S11303C0E894DF91CF911F910F91FF90EF900895E2
S11303D00000000000000000000000000000000019
S11303E00000000000000000000000000000000009
S11303F000000000000000000000000000000000F9
S1130400637C777BF26B6FC53001672BFED7AB76CD
S1130410CA82C97DFA5947F0ADD4A2AF9CA472C078
S1130420B7FD9326363FF7CC34A5E5F171D83115E5
S113043004C723C31896059A071280E2EB27B27506
S113044009832C1A1B6E5AA0523BD6B329E32F847E
S113045053D100ED20FCB15B6ACBBE394A4C58CF76
S1130460D0EFAAFB434D338545F9027F503C9FA84A
S113047051A3408F929D38F5BCB6DA2110FFF3D218
S1130480CD0C13EC5F974417C4A77E3D645D1973CC
S113049060814FDC222A908846EEB814DE5E0BDBC6
S11304A0E0323A0A4906245CC2D3AC629195E479FD
S11304B0E7C8376D8DD54EA96C56F4EA657AAE0857
S11304C0BA78252E1CA6B4C6E8DD741F4BBD8B8AF2
S11304D0703EB5664803F60E613557B986C11D9E58
S11304E0E1F8981169D98E949B1E87E9CE5528DFCF
S11304F08CA1890DBFE6426841992D0FB054BB16FB
S1130500AF92BF92CF92DF92EF92FF920F931F931D
S1130510CF93DF93A62EB72E6A017901B901E8DEE5
S1130520F601E80180E1C80ED11CD80181918D93B8
S1130530EC15FD05D9F7B701C801C7DDEA2DFB2D80
S1130540005F1F4F9191288192279993C017D1077B
S1130550C9F7DF91CF911F910F91FF90EF90DF903A
S1130560CF90BF90AF900895CF92DF92EF92FF9219
S11305700F931F93CF93DF936C01E62EF72E89011F
S1130580FA01E901405F5F4FD90191919D93E4170E
S1130590F507D9F7B601C80198DDEE2DFF2DA801A6
S11305A0405F5F4F9191388193279993C417D50782
S11305B0C9F7DF91CF911F910F91FF90EF90DF90DA
S11305C0CF900895AF92BF92CF92DF92EF92FF92B5
S11305D00F931F93CF93DF93A62EB72E6A01790151
S11305E0B90186DEF601E80180E1C80ED11CD8010C
S11305F081918D93EC15FD05D9F7B701C80165DD2F
S1130600EA2DFB2D005F1F4F91912881922799932A
S1130610C017D107C9F7DF91CF911F910F91FF90B8
S1130620EF90DF90CF90BF90AF900895CF92DF927C
S1130630EF92FF920F931F93CF93DF936C01E62EFB
S1130640F72E8901FA01E901405F5F4FD9019191C9
S11306509D93E417F507D9F7B601C80136DDEE2DF1
S1130660FF2DA801405F5F4F9191388193279993A3
S1130670C417D507C9F7DF91CF911F910F91FF9050
S1130680EF90DF90CF9008958F929F92AF92BF9298
S1130690CF92DF92EF92FF920F931F93CF93DF934A
S11306A0CDB7DEB7C05FD1090FB6F894DEBF0FBE79
S11306B0CDBF862E972E8A016901BE016F5F7F4FE1
S11306C017DEC114D104A9F41FC03D9180813827DD
S11306D03193E017F107C9F7BE016F5F7F4F8A2D91
S11306E09B2DF3DC80E1E80EF11CEC14FD0438F0E2
S11306F00BC0E12CF12CA02EB12E005F1F4FA82DB2
S1130700B92DEA2DFB2DE1CFC051DF4F0FB6F89480
S1130710DEBF0FBECDBFDF91CF911F910F91FF9030
S1130720EF90DF90CF90BF90AF909F908F900895FF
S1130730A89584B7877F84BFE0E6F0E08081886174
S1130740808310820895CF93DF93CDB7DEB7C05F67
S1130750D1400FB6F894DEBF0FBECDBFFE01319677
S113076080E1DF011D928A95E9F780E4EEE0F1E093
S1130770DE01519601900D928A95E1F7FE01EF5A40
S1130780FF4F80E2DF011D928A95E9F780E1EEE4F4
S1130790F1E0DE01AF58BF4F01900D928A95E1F769
S11307A0F894C6DFC6D108E412E080E091E0F801D5
S11307B09583848393838283918380839C0145E31F
S11307C050E061E070E08EE591E0EED2D80112963F
S11307D02D913C9113974CE050E061E070E084E986
S11307E091E0E2D28E010F5E1F4F5E01B1E5AB0EC8
S11307F0B11C0F2EF1EACF2EF1E0DF2EF02D0F2EDB
S1130800F8E4EF2EF2E0FF2EF02DF80181918F0134
S11308101F928F93DF92CF92D70113968C911397E7
S11308208F9312968C918F93B0D20F900F900F905C
S11308300F900F900F900A151B0539F78E010F5A70
S11308401F4F1F930F9385EA91E09F938F93E8E4E2
S1130850F2E083818F9382818F9397D25801B0E223
S1130860AB0EB11C0F900F900F900F900F900F9044
S11308700F2EF1EACF2EF1E0DF2EF02D0F2EF8E44B
S1130880EF2EF2E0FF2EF02DF80181918F011F92DF
S11308908F93DF92CF92D70113968C9113978F93F6
S11308A012968C918F9371D20F900F900F900F909E
S11308B00F900F900A151B0539F720914A023091C9
S11308C04B0247E050E061E070E080EB91E06CD2D5
S11308D08E010F581F4F5801B0E1AB0EB11C0F2E03
S11308E0F1EACF2EF1E0DF2EF02D0F2EF8E4EF2EFB
S11308F0F2E0FF2EF02DF80181918F011F928F936A
S1130900DF92CF92D70113968C9113978F931296FF
S11309108C918F933AD20F900F900F900F900F906D
S11309200F900A151B0539F78E010F571F4F9E01B3
S11309302F5F3E4FAE014F585F4FBE016F5E7F4F3A
S1130940CE018F5A9F4FDCDD00E110E021E830E05A
S11309502C0F3D1F200F311F61E170E06C0F7D1FD4
S1130960600F711FAE014F575F4FCE018F5F9E4FD7
S1130970FBDD005F1F4F0034110541F720914A024F
S113098030914B024EE050E061E070E088EB91E082
S11309900BD28E010F571F4F5E01B1ECAB0EB11C91
S11309A00F2EF7ECCF2EF1E0DF2EF02D0F2EF8E412
S11309B0EF2EF2E0FF2EF02DF80181918F011F92AE
S11309C08F93DF92CF92D70113968C9113978F93C5
S11309D012968C918F93D9D10F900F900F900F9006
S11309E00F900F900A151B0539F78E010F531F4FF7
S11309F09E012F5F3E4FAE014F585F4FBE016F57B0
S1130A007F4FCE018F5A9F4FDDDD00E110E021ECD6
S1130A1030E02C0F3D1F200F311F61E870E06C0F98
S1130A207D1F600F711FAE014F575F4FCE018F5F67
S1130A309E4FFCDD005F1F4F0034110541F72091EC
S1130A404A0230914B0247E150E061E070E08BECE8
S1130A5091E0AAD18E010F531F4F5E01B1E0AB0E9E
S1130A60BB1E0F2EF1EACF2EF1E0DF2EF02D0F2E5C
S1130A70F8E4EF2EF2E0FF2EF02DF80181918F01C2
S1130A801F928F93DF92CF92D70113968C91139775
S1130A908F9312968C918F9378D10F900F900F9023
S1130AA00F900F900F900A151B0539F77E01B1E1E5
S1130AB0EB0EF11C20E430E0AE014F5F5F4FB70155
S1130AC0CE018F5A9F4FE0DD20914A0230914B02B4
S1130AD049E050E061E070E083EE91E065D18E0181
S1130AE00F5F1F4F57010F2EF7ECCF2EF1E0DF2ED3
S1130AF0F02D0F2EF8E4EF2EF2E0FF2EF02DF8018A
S1130B0081918F011F928F93DF92CF92D701139619
S1130B108C9113978F9312968C918F9336D10F905B
S1130B200F900F900F900F900F900A151B0539F737
S1130B30FFCF8AE08093C40088E18093C1000895C8
S1130B40CF93C82F873061F420914C0230914D022D
S1130B5047E050E061E070E08DEE91E025D10BC0FC
S1130B608A3011F48DE0ECDFE0ECF0E0908195FF49
S1130B70FDCFC093C60080E090E0CF9108956F92BE
S1130B807F928F929F92AF92BF92CF92DF92EF9219
S1130B90FF920F931F93CF93DF93209146023091DE
S1130BA04702232B09F0C7C08C010F2EF6EF8F2EBE
S1130BB0F1E09F2EF02DC0ECD0E00F2EF6ECCF2EFE
S1130BC0D12CF02D54010F2EF5EF6F2EF1E07F2E76
S1130BD0F02D88818823ECF7888184FDBFC088814B
S1130BE083FDBFC0F60180818D3011F08A3061F43D
S1130BF08AE0F4018083B801A3DF86EF91E090934B
S1130C0047028093460297C0893039F090EE980FDE
S1130C109F3520F0803AA8F001C080E2F5E48F16F9
S1130C20F2E09F0621F4B80187E08ADFD2CF740195
S1130C309FEFE91AF90AF4018083B80181DF4701C3
S1130C40C8CF8231B9F130F4833009F48DC08830D3
S1130C50E9F0BFCF873129F08F37C1F0853179F0C2
S1130C60B8CFF6EF8F16F1E09F0609F008F4B1CF84
S1130C70F40131978081803209F045C0AACF86EF14
S1130C80881681E0980609F048F5A3CF96EF8916F7
S1130C9091E0990609F008F49CCFB80188E050DF90
S1130CA0B80180E24DDFB80188E04ADFE1E08E1A46
S1130CB091088FCFB8018DE043DFF6EF8F16F1E096
S1130CC09F0609F008F485CF7501B801F7018191F9
S1130CD07F0136DFE814F904C1F77BCFB80188E05F
S1130CE02FDFB80180E22CDFB80188E029DFF1E0D2
S1130CF08F1A910886EF881681E0980679F7F30138
S1130D0031964F0166CF7401F1E0EF1AF108B80192
S1130D1088E016DFB80180E213DFB80188E010DF55
S1130D204701EA14FB0409F454CFF70182917F01CF
S1130D30803269F74ECFE0914602F0914702CF012D
S1130D400196909347028093460280818A3021F471
S1130D50109247021092460290E008C08EEF9FEF77
S1130D6005C08FEF9FEF02C08FEF9FEFDF91CF9110
S1130D701F910F91FF90EF90DF90CF90BF90AF90B5
S1130D809F908F907F906F900895CF93DF93CDB70E
S1130D90DEB7AE01475F5F4F6F8178858D819E819D
S1130DA045D0DF91CF9108958F929F92AF92BF92D9
S1130DB0CF92DF92EF92FF920F931F93CF93DF9323
S1130DC05B014A017901D90113962C9121FF1DC0C1
S1130DD0C0E0D0E0C815D905D9F08C016C01CA0C6B
S1130DE0DB1CC8010C151D0571F00F5F1F4FD701E7
S1130DF01896ED91FC911997B701DC018C91099536
S1130E00892B79F305C02196E5CF80E090E001C0FD
S1130E10CE01DF91CF911F910F91FF90EF90DF9062
S1130E20CF90BF90AF909F908F9008952F923F9254
S1130E304F925F926F927F928F929F92AF92BF92E6
S1130E40CF92DF92EF92FF920F931F93CF93DF9392
S1130E50CDB7DEB72C970FB6F894DEBF0FBECDBF6B
S1130E607C016B018A01FC0117821682838181FF58
S1130E70B0C1CE0101964C01F7019381F60193FDB7
S1130E80859193FF81916F01882309F49EC1853276
S1130E9039F493FD859193FF81916F01853221F49B
S1130EA0B70190E0C7D1E8CF512C312C20E020329B
S1130EB0A0F48B3269F030F4803259F0833269F453
S1130EC020612CC08D3239F0803339F4216026C082
S1130ED02260246023C0286021C027FD27C030ED94
S1130EE0380F3A3078F426FF06C0FAE05F9E300DE2
S1130EF01124532E13C08AE0389E300D1124332E52
S1130F0020620CC08E3221F426FD5FC1206406C02D
S1130F108C3611F4206802C0883641F4F60193FD42
S1130F20859193FF81916F018111C1CF982F9F7D8E
S1130F309554933028F40C5F1F4FFFE3F9830DC0E1
S1130F40833631F0833771F0833509F057C021C0FF
S1130F50F801808189830E5F1F4F44244394512CF0
S1130F60540114C03801F2E06F0E711CF801A08026
S1130F70B18026FF03C0652D70E002C06FEF7FEFE4
S1130F80C5012C874CD12C0183012C852F77222E6F
S1130F9016C03801F2E06F0E711CF801A080B18018
S1130FA026FF03C0652D70E002C06FEF7FEFC5011F
S1130FB02C872AD12C012C852068222E830123FC26
S1130FC019C0832D90E048165906A0F4B70180E2B9
S1130FD090E030D13A94F5CFF50127FC859127FEB6
S1130FE081915F01B70190E025D131103A94F1E08D
S1130FF04F1A51084114510479F7DEC0843611F0B8
S1131000893631F5F80127FF07C06081718182813B
S113101093810C5F1F4F08C060817181072E000C03
S1131020880B990B0E5F1F4F2F76722E97FF09C006
S113103090958095709561957F4F8F4F9F4F206855
S1131040722E2AE030E0A4012DD1A82EA81843C0A6
S1131050853729F42F7EB22E2AE030E025C0F22F06
S1131060F97FBF2E8F36C1F018F4883579F0ADC002
S1131070803719F0883721F0A8C02F2F2061B22EB5
S1131080B4FE0DC08B2D8460B82E09C024FF0AC0A5
S11310909F2F9660B92E06C028E030E005C020E1FD
S11310A030E002C020E132E0F801B7FE07C0608101
S11310B07181828193810C5F1F4F06C060817181B1
S11310C080E090E00E5F1F4FA401ECD0A82EA8187A
S11310D0FB2DFF777F2E76FE0BC0372D3E7FA514A8
S11310E050F474FE0AC072FC08C0372D3E7E05C061
S11310F0BA2C372D03C0BA2C01C0B52C34FF0DC057
S1131100FE01EA0DF11D8081803311F4397E09C09E
S113111032FF06C0B394B39404C0832F867809F0D9
S1131120B39433FD12C030FF06C05A2CB31418F424
S1131130530C5B18B32CB31460F4B70180E290E055
S11311403C8778D0B3943C85F6CFB31410F43B18A5
S113115001C0312C34FF11C0B70180E390E03C871B
S113116069D03C8532FF16C031FD03C088E790E0AA
S113117002C088E590E0B7010CC0832F867851F057
S113118031FF02C08BE201C080E237FD8DE2B7017E
S113119090E050D0A51430F4B70180E390E04AD039
S11311A05A94F8CFAA94F401EA0DF11D8081B70195
S11311B090E040D0A110F6CF332009F45DCEB70102
S11311C080E290E037D03A94F7CFF7018681978197
S11311D002C08FEF9FEF2C960FB6F894DEBF0FBEC0
S11311E0CDBFDF91CF911F910F91FF90EF90DF90D2
S11311F0CF90BF90AF909F908F907F906F905F90B3
S11312004F903F902F900895FC01059061507040DD
S11312100110D8F7809590958E0F9F1F0895FC01BB
S11312206150704001900110D8F7809590958E0F11
S11312309F1F08950F931F93CF93DF93FB01238187
S113124021FD03C08FEF9FEF28C022FF16C0468107
S11312505781248135814217530744F4A081B18119
S11312609D012F5F3F4F318320838C9326813781EB
S11312702F5F3F4F3783268310C0EB01092F182FB0
S11312800084F185E02D0995892BE1F68E819F81FB
S113129001969F838E83812F902FDF91CF911F9191
S11312A00F910895FA01AA27283051F1203181F1D4
S11312B0E8946F936E7F6E5F7F4F8F4F9F4FAF4F5A
S11312C0B1E03ED0B4E03CD0670F781F891F9A1F6D
S11312D0A11D680F791F8A1F911DA11D6A0F711D21
S11312E0811D911DA11D20D009F468943F912AE02D
S11312F0269F11243019305D3193DEF6CF01089515
S1131300462F4770405D4193B3E00FD0C9F7F6CF45
S1131310462F4F70405D4A3318F0495D31FD40520D
S1131320419302D0A9F7EACFB4E0A69597958795A3
S113133077956795BA95C9F7009761057105089582
S11313409B01AC010A2E069457954795379527952E
S1131350BA95C9F7620F731F841F951FA01D0895C6
S1071360F894FFCF2B
S11313640000000300000000A005BF050000000108
S113137402030405060708090A0B0C0D0E0F0001ED
S113138402030405060708090A0B0C0D0E0F0001DD
S113139402030405060708090A0B0C0D0E0F0001CD
S11313A402030405060708090A0B0C0D0E0F0001BD
S11313B402030001020300010203000102030A0AFA
S11313C448656C6C6F2C20776F726C642120596FA4
S11313D47520726561647920666F7220736F6D6520
S11313E42041455320456E6372797074696F6E3F72
S11313F4200A0A00506C61696E746578743A0909AC
S113140400256420000A4B65794025783A090900CF
S11314140A49563A090909000A43697068657274ED
S11314246578743A090900255820000A44656372F2
S1131434797074656420436970686572746578743E
S11314443A09000A486173683A090909002A726969
S10914546E672A0A000085
S9030000FC
