S01D000041544D65676131323834505F456E635F6E6F5343502E7372656342
S1130000CAC00000E6C00000E4C00000E2C0000076
S1130010E0C00000DEC00000DCC00000DAC0000068
S1130020D8C00000D6C00000D4C00000D2C0000078
S1130030D0C00000CEC00000CCC00000CAC0000088
S1130040C8C00000C6C00000C4C00000C2C0000098
S1130050C0C00000BEC00000BCC00000BAC00000A8
S1130060B8C00000B6C00000B4C00000B2C00000B8
S1130070B0C00000AEC00000ACC00000AAC00000C8
S1130080A8C00000A6C00000A4C00000010204082B
S1130090102040801B36637C777BF26B6FC5300188
S11300A0672BFED7AB76CA82C97DFA5947F0ADD427
S11300B0A2AF9CA472C0B7FD9326363FF7CC34A5FB
S11300C0E5F171D8311504C723C31896059A0712B0
S11300D080E2EB27B27509832C1A1B6E5AA0523B9F
S11300E0D6B329E32F8453D100ED20FCB15B6ACB56
S11300F0BE394A4C58CFD0EFAAFB434D338545F95E
S1130100027F503C9FA851A3408F929D38F5BCB606
S1130110DA2110FFF3D2CD0C13EC5F974417C4A778
S11301207E3D645D197360814FDC222A908846EE1F
S1130130B814DE5E0BDBE0323A0A4906245CC2D313
S1130140AC629195E479E7C8376D8DD54EA96C56AC
S1130150F4EA657AAE08BA78252E1CA6B4C6E8DDA2
S1130160741F4BBD8B8A703EB5664803F60E61352D
S113017057B986C11D9EE1F8981169D98E949B1ECA
S113018087E9CE5528DF8CA1890DBFE642684199E5
S11301902D0FB054BB1611241FBECFEFD0E4DEBF29
S11301A0CDBF11E0A0E0B1E0E8ECF2E100E00BBF6C
S11301B002C007900D92A43FB107D9F723E0A4EF42
S11301C0B1E001C01D92AC3EB207E1F798D30C94A4
S11301D0620916CF782F8827769531F008F48627A0
S11301E0660F08F46427F8CF08F486270895AF92C1
S11301F0BF92CF92DF92EF92FF920F931F93CF9310
S1130200DF9300D0CDB7DEB76B017901B901498323
S11302105A8366D34981E42F5A81F52F5801CF01BF
S11302204096D80121912D93E817F907D9F7B70122
S1130230C801F0D0F601005F1F4F8191D5019C9158
S113024089278D935D01A017B107B9F70F900F901F
S1130250DF91CF911F910F91FF90EF90DF90CF909E
S1130260BF90AF900895EF92FF920F931F93CF9397
S1130270DF937B01E901FA0189019A01205F3F4F75
S1130280DE0141914D93E217F307D9F7BC01CE018A
S1130290C1D0F70160968191D8019C9189278D93F3
S11302A08D01AC17BD07B9F7DF91CF911F910F9165
S11302B0FF90EF900895AF92BF92CF92DF92EF92AA
S11302C0FF920F931F93CF93DF9300D0CDB7DEB788
S11302D06B017901B90149835A8302D34981E42F1F
S11302E05A81F52F5801CF014096D80121912D93C1
S11302F0E817F907D9F7B701C8018CD0F601005FF8
S11303001F4F8191D5019C9189278D935D01A01781
S1130310B107B9F70F900F90DF91CF911F910F9113
S1130320FF90EF90DF90CF90BF90AF900895EF9241
S1130330FF920F931F93CF93DF937B01E901FA019F
S113034089019A01205F3F4FDE0141914D93E217ED
S1130350F307D9F7BC01CE015DD0F7016096819116
S1130360D8019C9189278D938D01AC17BD07B9F7EE
S1130370DF91CF911F910F91FF90EF9008958F928D
S11303809F92AF92BF92CF92DF92EF92FF920F9320
S11303901F93CF93DF93CDB7DEB7C05FD1090FB6FC
S11303A0F894DEBF0FBECDBF4B018A016901BE01C7
S11303B06F5F7F4F95D2E12CF12C580180E1A80E9C
S11303C0B11CEC14FD0490F4D401F8018D919081DA
S11303D089278193EA15FB05C9F7BE016F5F7F4F3B
S11303E0C80118D080E1E80EF11CEBCFC051DF4FFB
S11303F00FB6F894DEBF0FBECDBFDF91CF911F9132
S11304000F91FF90EF90DF90CF90BF90AF909F90AF
S11304108F9008954EE050C0CF93DF9300D000D06A
S1130420CDB7DEB7DC018C91898314968C91149737
S11304308A8318968C9118978B831C968C911C97A1
S11304408C83862F8370E1E0F0E0EC0FFD1FE80F52
S1130450F11D80818C9370E0FB013196E370FF27DE
S113046081E090E08C0F9D1FE80FF91F80811496A6
S11304708C931497FB013296E370FF2781E090E0A0
S11304808C0F9D1FE80FF91F808118968C93189785
S1130490FB013396E370FF2781E090E08C0F9D1FF2
S11304A0E80FF91F80811C968C930F900F900F908A
S11304B00F90DF91CF9108952F923F924F925F92C8
S11304C06F927F928F929F92AF92BF92CF92DF9260
S11304D0EF92FF920F931F93CF93DF93CDB7DEB7C5
S11304E06E970FB6F894DEBF0FBECDBF2C013B0153
S11304F0542FDB019E8B8D8B40969A8F898FF2014E
S11305008D91908189278193898D9A8DE817F907B8
S1130510B9F7D3015096B88FAF8B22242394FE01F0
S11305203196FA8BE98BE05FEB8FC20103969D8FC6
S11305308C8FDE015196BC8BAB8B523008F49EC07D
S11305408E010F5F1F4FD801C201FC01C190CF0182
S11305502C2D30E02A563F4F6901330FEE08FF0877
S1130560EBBEF601C790CD922B8D2A13EECF61E03E
S1130570CE0102965E8F50DF62E0CE0103964CDF1F
S113058063E0CE01049648DFCE0102964C01DE0101
S113059013965D01FE0134966F01EC8CFD8C5E8D2B
S11305A0D4016C91F80180816827D6013C90F50153
S11305B08081382636264BE182E05E8F0BDEF70120
S11305C03397D8019C91892783258083F501608125
S11305D0D4018C9168274BE182E0FCDDF70132976E
S11305E0D4019C91892783258083F6016081D501FC
S11305F08C9168274BE182E0EDDDF7013197D5015D
S11306009C91892783258083F8016081D6018C9190
S113061068274BE182E0DEDDF601908189273826E8
S1130620D7013C920C5F1F4FB4E08B0E911CE4E0A9
S1130630AE0EB11CF4E0CF0ED11C24E0E20EF11C8E
S11306405E8D8B899C890817190709F0A9CFF201DF
S113065080E090E0AF89B88DA80FB91F60814C91FC
S113066046274193019680319105A1F72394515077
S1130670AF89B88D5096B88FAF8B5FCF9201F901D7
S1130680808190E08A569F4F092E000CAA0BBB0B69
S1130690ABBFFC018791D9018D939D01E98DFA8D42
S11306A0AE17BF0761F761E0C2010196B5DE62E0F3
S11306B0C2010296B1DE63E0C2010396ADDEF0E151
S11306C02F9E1001112480E090E0FC01E20DF31D47
S11306D0E60DF71DAD89BE893C91208123272D931A
S11306E0BE8BAD8B01968031910579F76E960FB66E
S11306F0F894DEBF0FBECDBFDF91CF911F910F9154
S1130700FF90EF90DF90CF90BF90AF909F908F902D
S11307107F906F905F904F903F902F9008953F92FD
S11307204F925F926F927F928F929F92AF92BF92FD
S1130730CF92DF92EF92FF920F931F93CF93DF93A9
S1130740EA018B0135E0169507953A95E1F7C02E3D
S11307507801FF249701295F3F4FD22EDD0CDD0C79
S1130760AB0163E0569547956A95E1F7BC01CE016C
S1130770CBD2702F802F60E08D1508F09FC0482FDA
S113078050E0DA01A150B04CAA0FBB1FAA0FBB1F47
S1130790AC0FBD1F0D911D912D913C91139787179F
S11307A009F435C098E0C91270C0982F977094303E
S11307B009F06BC0E02FF0E0EA56FF4F4F01FF0F46
S11307C0AA08BB08ABBEF4010791E12FF0E0EA569A
S11307D0FF4F4F01FF0FAA08BB08ABBEF4011791EE
S11307E0E22FF0E0EA56FF4F4F01FF0FAA08BB08C3
S11307F0ABBEF4012791E32FF0E0EA56FF4F4F011F
S1130800FF0FAA08BB08ABBEF40137913EC0782F96
S11308107C0D302E432EE12FF0E0EA56FF4F4F01BE
S1130820FF0FAA08BB08ABBEF4019791E22FF0E0DA
S1130830EA56FF4F4F01FF0FAA08BB08ABBEF401F5
S11308401791E42DF0E0EA56FF4F2F01FF0F6608E1
S113085077086BBEF2012791E32DF0E0EA56FF4FD3
S11308604F01FF0FAA08BB08ABBEF4013791E62F76
S1130870F0E0E457FF4F4F01FF0FAA08BB08ABBEDF
S1130880F4018790082D09276F5FFA01EE19FF091B
S1130890EE0FFF1FEE0FFF1FEC0FFD1F80809180F6
S11308A0A280B380082519252A253B2514960D938B
S11308B01D932D933C9317978F5F5ECFDF91CF915C
S11308C01F910F91FF90EF90DF90CF90BF90AF906A
S11308D09F908F907F906F905F904F903F9008957E
S11308E0AB0160E071E01BCFA89584B7877F84BF1C
S11308F0E0E6F0E080818861808310820895F894B6
S1130900F3DF1BD180E591E09093EB038093EA033E
S11309109093E9038093E8039093E7038093E603BD
S1130920BC018EE591E008D26091E8037091E9037F
S113093084E991E001D2C0E1D1E001EA11E08991BA
S11309401F928F931F930F938091E9038F9380914C
S1130950E8038F93E2D10F900F900F900F900F90B8
S11309600F9081E0C035D80751F76091E80370918A
S1130970E90385EA91E0E0D1C4EFD1E001EA11E0B6
S113098089911F928F931F930F938091E9038F9303
S11309908091E8038F93C1D10F900F900F900F9027
S11309A00F900F9082E0C431D80751F76091E803AB
S11309B07091E9038EEA91E0BFD1C0E0D1E001EA91
S11309C011E089911F928F931F930F938091E903F4
S11309D08F938091E8038F93A0D10F900F900F9085
S11309E00F900F900F9081E0C031D80751F706EABD
S11309F013E026EB32E040E051E060E171E084EF87
S1130A0091E0F5DBC0E1D0E09E012A553C4FAE01F8
S1130A104A565C4FBE01605F7E4F86EB92E023DC5A
S1130A206096C034D10581F76091E8037091E903C1
S1130A3086EB91E081D1C6EAD3E005EC11E089911F
S1130A401F928F931F930F938091E9038F9380914B
S1130A50E8038F9362D10F900F900F900F900F9037
S1130A600F9083E0C63ED80751F706E712E026EB65
S1130A7032E040E051E066EA73E084EF91E01BDC91
S1130A80C0E1D0E09E012A583D4FBE016A557C4F1B
S1130A9046EA53E086EB92E04ADC6096C034D10526
S1130AA089F76091E8037091E90389EC91E044D1FE
S1130AB0C6E7D2E001EA11E089911F928F931F9358
S1130AC00F938091E9038F938091E8038F9325D14D
S1130AD00F900F900F900F900F900F9082E0C63BF5
S1130AE0D80751F720E430E044E152E060E171E0DE
S1130AF084EF91E044DC6091E8037091E90381EEB6
S1130B0091E01AD1C4E1D2E005EC11E089911F9281
S1130B108F931F930F938091E9038F938091E80340
S1130B208F93FBD00F900F900F900F900F900F901A
S1130B3082E0C432D80751F7FFCF8AE08093C40023
S1130B4088E18093C1000895CF93C82F873041F482
S1130B506091EA037091EB038BEE91E0EDD00AC053
S1130B608A3011F48DE0F0DF8091C00085FFFCCF66
S1130B70C093C60080E090E0CF910895EF92FF9279
S1130B800F931F93CF93DF932091740230917502DA
S1130B90232B09F09AC0EC0104E212E08091C0001A
S1130BA087FFFCCF8091C00084FDA2C08091C0006B
S1130BB083FDA1C08091C6008D3061F48AE0F80104
S1130BC08083BE01C1DF84E292E09093750280933A
S1130BD074027BC08A3091F3893009F480E290EE8C
S1130BE0980F9F3510F0803A90F0F2E003371F071A
S1130BF021F4BE0187E0A8DFD1CF78019FEFE91A85
S1130C00F90AF8018083BE019FDF8701C7CF8231D3
S1130C1011F130F4833009F46EC0883051F0BECF46
S1130C20873129F08F3729F0853131F1B7CF780139
S1130C3044C0F2E004321F0709F008F4AFCFBE014C
S1130C4088E082DFBE0180E27FDFBE0188E07CDFD6
S1130C5001501109A3CFBE018DE076DF84E2E82EB6
S1130C6082E0F82EE016F10608F098CFBE01F701F5
S1130C7081917F0169DFF6CFF2E004321F0709F0AA
S1130C8008F48CCFBE0188E05FDFBE0180E25CDF48
S1130C90BE0188E059DF01501109EECFF7018291BE
S1130CA07F01803209F47ACFBE0188E04DDFBE01B6
S1130CB080E24ADFBE0188E047DF870184E2E8166C
S1130CC082E0F80609F050F769CFE0917402F091E0
S1130CD07502CF010196909375028093740280810E
S1130CE08A3021F4109275021092740290E005C0CB
S1130CF08EEF9FEF02C08FEF9FEFDF91CF911F9197
S1130D000F91FF90EF900895FB01DC0102C0019068
S1130D100D9241505040D8F70895CF93DF93CDB74B
S1130D20DEB7AE01475F5F4F6F8178858D819E810D
S1130D302FD0DF91CF910895EF92FF920F931F93DD
S1130D40CF93DF93DB0113962C9121FF18C08B0105
S1130D507C01D0E0C0E0F70181917F01882361F03C
S1130D60D8011896ED91FC911997B8010995892B32
S1130D7091F3DFEFCFEFEFCF8D2F9C2F02C08FEFDA
S1130D809FEFDF91CF911F910F91FF90EF90089506
S1130D902F923F924F925F926F927F928F929F9287
S1130DA0AF92BF92CF92DF92EF92FF920F931F9375
S1130DB0CF93DF93CDB7DEB72C970FB6F894DEBF91
S1130DC00FBECDBF7C016B018A01FC011782168224
S1130DD0838181FFB0C1CE0101964C01F70193815B
S1130DE0F60193FD859193FF81916F01882309F4A6
S1130DF09EC1853239F493FD859193FF81916F01F2
S1130E00853221F4B70190E0C7D1E8CF512C312CC1
S1130E1020E02032A0F48B3269F030F4803259F0B3
S1130E20833269F420612CC08D3239F0803339F477
S1130E30216026C02260246023C0286021C027FDD1
S1130E4027C030ED380F3A3078F426FF06C0FAE0B8
S1130E505F9E300D1124532E13C08AE0389E300D4E
S1130E601124332E20620CC08E3221F426FD5FC182
S1130E70206406C08C3611F4206802C0883641F420
S1130E80F60193FD859193FF81916F018111C1CF8B
S1130E90982F9F7D9554933028F40C5F1F4FFFE3E8
S1130EA0F9830DC0833631F0833771F0833509F04F
S1130EB057C021C0F801808189830E5F1F4F4424ED
S1130EC04394512C540114C03801F2E06F0E711C8C
S1130ED0F801A080B18026FF03C0652D70E002C038
S1130EE06FEF7FEFC5012C874CD12C0183012C853A
S1130EF02F77222E16C03801F2E06F0E711CF80114
S1130F00A080B18026FF03C0652D70E002C06FEFA2
S1130F107FEFC5012C872AD12C012C852068222E35
S1130F20830123FC19C0832D90E048165906A0F4D0
S1130F30B70180E290E030D13A94F5CFF50127FC77
S1130F40859127FE81915F01B70190E025D1311091
S1130F503A94F1E04F1A51084114510479F7DEC074
S1130F60843611F0893631F5F80127FF07C0608116
S1130F707181828193810C5F1F4F08C060817181F0
S1130F80072E000C880B990B0E5F1F4F2F76722EC5
S1130F9097FF09C090958095709561957F4F8F4F0D
S1130FA09F4F2068722E2AE030E0A4012DD1A82E94
S1130FB0A81843C0853729F42F7EB22E2AE030E0EA
S1130FC025C0F22FF97FBF2E8F36C1F018F4883573
S1130FD079F0ADC0803719F0883721F0A8C02F2FE1
S1130FE02061B22EB4FE0DC08B2D8460B82E09C0D2
S1130FF024FF0AC09F2F9660B92E06C028E030E077
S113100005C020E130E002C020E132E0F801B7FE83
S113101007C060817181828193810C5F1F4F06C07C
S11310206081718180E090E00E5F1F4FA401ECD0DD
S1131030A82EA818FB2DFF777F2E76FE0BC0372D28
S11310403E7FA51450F474FE0AC072FC08C0372D0C
S11310503E7E05C0BA2C372D03C0BA2C01C0B52C76
S113106034FF0DC0FE01EA0DF11D8081803311F4BF
S1131070397E09C032FF06C0B394B39404C0832FF1
S1131080867809F0B39433FD12C030FF06C05A2CA1
S1131090B31418F4530C5B18B32CB31460F4B701F5
S11310A080E290E03C8778D0B3943C85F6CFB314CB
S11310B010F43B1801C0312C34FF11C0B70180E398
S11310C090E03C8769D03C8532FF16C031FD03C0F7
S11310D088E790E002C088E590E0B7010CC0832F58
S11310E0867851F031FF02C08BE201C080E237FD07
S11310F08DE2B70190E050D0A51430F4B70180E33D
S113110090E04AD05A94F8CFAA94F401EA0DF11D64
S11311108081B70190E040D0A110F6CF332009F4CC
S11311205DCEB70180E290E037D03A94F7CFF70173
S11311308681978102C08FEF9FEF2C960FB6F894AB
S1131140DEBF0FBECDBFDF91CF911F910F91FF90F6
S1131150EF90DF90CF90BF90AF909F908F907F9053
S11311606F905F904F903F902F900895FC010590F1
S1131170615070400110D8F7809590958E0F9F1F95
S11311800895FC016150704001900110D8F78095DA
S113119090958E0F9F1F08950F931F93CF93DF9306
S11311A0FB01238121FD03C08FEF9FEF28C022FFA5
S11311B016C046815781248135814217530744F470
S11311C0A081B1819D012F5F3F4F318320838C9398
S11311D0268137812F5F3F4F3783268310C0EB0171
S11311E0092F182F0084F185E02D0995892BE1F64C
S11311F08E819F8101969F838E83812F902FDF9113
S1131200CF911F910F910895FA01AA27283051F127
S1131210203181F1E8946F936E7F6E5F7F4F8F4F23
S11312209F4FAF4FB1E03ED0B4E03CD0670F781F82
S1131230891F9A1FA11D680F791F8A1F911DA11D67
S11312406A0F711D811D911DA11D20D009F46894A0
S11312503F912AE0269F11243019305D3193DEF648
S1131260CF010895462F4770405D4193B3E00FD0FE
S1131270C9F7F6CF462F4F70405D4A3318F0495DE9
S113128031FD4052419302D0A9F7EACFB4E0A695CC
S11312909795879577956795BA95C9F700976105EE
S11312A0710508959B01AC010A2E06945795479544
S11312B037952795BA95C9F7620F731F841F951F39
S10B12C0A01D0895F894FFCF6E
S11312C800010203000102030001020300010203FA
S11312D8000102030405060708090A0B0C0D0E0F8A
S11312E8000102030405060708090A0B0C0D0E0F7A
S11312F8000102030405060708090A0B0C0D0E0F6A
S1131308000102030405060708090A0B0C0D0E0F59
S11313180000000300000000A405BE0500000A0A3E
S113132848656C6C6F2C20776F726C642120596F40
S11313387520726561647920666F7220736F6D65BC
S11313482041455320456E6372797074696F6E3F0E
S1131358200A0A00506C61696E746578743A090948
S113136800256420000A4B65793A090909000A49ED
S1131378563A090909000A43697068657274657800
S1131388743A090900255820000A44656372797083
S113139874656420436970686572746578743A0981
S11313A8000A486173683A090909002A72696E6774
S10713B82A0A0000F9
S9030000FC
