S01D000041544D65676131323834505F456E635F6E6F5343502E7372656342
S1130000CAC00000E6C00000E4C00000E2C0000076
S1130010E0C00000DEC00000DCC00000DAC0000068
S1130020D8C00000D6C00000D4C00000D2C0000078
S1130030D0C00000CEC00000CCC00000CAC0000088
S1130040C8C00000C6C00000C4C00000C2C0000098
S1130050C0C00000BEC00000BCC00000BAC00000A8
S1130060B8C00000B6C00000B4C00000B2C00000B8
S1130070B0C00000AEC00000ACC00000AAC00000C8
S1130080A8C00000A6C00000A4C00000010204082B
S1130090102040801B36637C777BF26B6FC5300188
S11300A0672BFED7AB76CA82C97DFA5947F0ADD427
S11300B0A2AF9CA472C0B7FD9326363FF7CC34A5FB
S11300C0E5F171D8311504C723C31896059A0712B0
S11300D080E2EB27B27509832C1A1B6E5AA0523B9F
S11300E0D6B329E32F8453D100ED20FCB15B6ACB56
S11300F0BE394A4C58CFD0EFAAFB434D338545F95E
S1130100027F503C9FA851A3408F929D38F5BCB606
S1130110DA2110FFF3D2CD0C13EC5F974417C4A778
S11301207E3D645D197360814FDC222A908846EE1F
S1130130B814DE5E0BDBE0323A0A4906245CC2D313
S1130140AC629195E479E7C8376D8DD54EA96C56AC
S1130150F4EA657AAE08BA78252E1CA6B4C6E8DDA2
S1130160741F4BBD8B8A703EB5664803F60E61352D
S113017057B986C11D9EE1F8981169D98E949B1ECA
S113018087E9CE5528DF8CA1890DBFE642684199E5
S11301902D0FB054BB1611241FBECFEFD0E4DEBF29
S11301A0CDBF12E0A0E0B1E0EAECF3E100E00BBF68
S11301B002C007900D92A232B107D9F722E0A2E261
S11301C0B2E001C01D92AA37B207E1F793D30C94B1
S11301D0E30916CF782F8827769531F008F486271F
S11301E0660F08F46427F8CF08F4862708954F9221
S11301F05F926F927F928F929F92AF92BF92CF92B3
S1130200DF92EF92FF920F931F93CF93DF935B01E3
S11302103A017901B9015FD3609176027091770256
S11302208EE591E042D6E701470180EF880E911CEC
S11302308EE6C82E81E0D82E609176027091770206
S113024089E090E0FAD5412C512CFE01E40DF51D16
S113025080811F928F93DF92CF92809177028F9348
S1130260809176028F93DAD58FEF481A580A0F904F
S11302700F900F900F900F900F9080E1481651044B
S113028021F760917602709177028AE090E0D5D5EB
S11302906096C815D90581F6F301E801C3014096BB
S11302A0D80121912D93E817F907D9F7B701C801AF
S11302B0F2D0F501005F1F4F8191988189278993BE
S11302C0C017D107C9F7DF91CF911F910F91FF900C
S11302D0EF90DF90CF90BF90AF909F908F907F90E2
S11302E06F905F904F900895EF92FF920F931F933A
S11302F0CF93DF937B01E901FA0189019A01205F21
S11303003F4FDE0141914D93E217F307D9F7BC014A
S1130310CE01C1D0F70160968191D8019C918927C3
S11303208D938D01AC17BD07B9F7DF91CF911F9164
S11303300F91FF90EF900895AF92BF92CF92DF920A
S1130340EF92FF920F931F93CF93DF9300D0CDB71B
S1130350DEB76B017901B90149835A83BCD2498163
S1130360E42F5A81F52F5801CF014096D8012191ED
S11303702D93E817F907D9F7B701C8018CD0F60116
S1130380005F1F4F8191D5019C9189278D935D0159
S1130390A017B107B9F70F900F90DF91CF911F917C
S11303A00F91FF90EF90DF90CF90BF90AF900895A2
S11303B0EF92FF920F931F93CF93DF937B01E90199
S11303C0FA0189019A01205F3F4FDE0141914D936B
S11303D0E217F307D9F7BC01CE015DD0F7016096AF
S11303E08191D8019C9189278D938D01AC17BD070C
S11303F0B9F7DF91CF911F910F91FF90EF9008957E
S11304008F929F92AF92BF92CF92DF92EF92FF9220
S11304100F931F93CF93DF93CDB7DEB7C05FD1099E
S11304200FB6F894DEBF0FBECDBF4B018A01690140
S1130430BE016F5F7F4F4FD2E12CF12C580180E158
S1130440A80EB11CEC14FD0490F4D401F8018D91B4
S1130450908189278193EA15FB05C9F7BE016F5F77
S11304607F4FC80118D080E1E80EF11CEBCFC051DA
S1130470DF4F0FB6F894DEBF0FBECDBFDF91CF9133
S11304801F910F91FF90EF90DF90CF90BF90AF90AE
S11304909F908F9008954EE050C0CF93DF9300D08B
S11304A000D0CDB7DEB7DC018C91898314968C9192
S11304B014978A8318968C9118978B831C968C9129
S11304C01C978C83862F8370E1E0F0E0EC0FFD1F16
S11304D0E80FF11D80818C9370E0FB013196E3708D
S11304E0FF2781E090E08C0F9D1FE80FF91F8081AA
S11304F014968C931497FB013296E370FF2781E0E6
S113050090E08C0F9D1FE80FF91F808118968C9343
S11305101897FB013396E370FF2781E090E08C0F7E
S11305209D1FE80FF91F80811C968C930F900F90EC
S11305300F900F90DF91CF9108952F923F924F9299
S11305405F926F927F928F929F92AF92BF92CF925F
S1130550DF92EF92FF920F931F93CF93DF93CDB768
S1130560DEB76E970FB6F894DEBF0FBECDBF2C0179
S11305703B01542FDB019E8B8D8B4096988F8F8B84
S1130580F2018D919081892781938F89988DE81745
S1130590F907B9F79301205F3F4F22242394DE012A
S11305A01196BA8BA98BA05FA98FF2013396FB8FAA
S11305B0EA8FCE0141969C8B8B8B523008F49CC001
S11305C08E010F5F1F4FD801C201FC014191CF0181
S11305D0E42FF0E0EA56FF4FE491ED93F98DFA131E
S11305E0F4CF61E0CE0102962C8F3D8F5E8F55DFF4
S11305F062E0CE01039651DF63E0CE0104964DDF45
S1130600CE0102964C01DE0113965D01FE01349683
S11306106F01EA8CFB8C5E8D3D8D2C8DD4016C9129
S1130620F80180816827D6013C90F5018081382645
S113063036264BE182E02C8F3D8F5E8FCBDDF701B8
S11306403397D8019C91892783258083F5016081A4
S1130650D4018C9168274BE182E0BCDDF70132972D
S1130660D4019C91892783258083F6016081D5017B
S11306708C9168274BE182E0ADDDF7013197D5011C
S11306809C91892783258083F8016081D6018C9110
S113069068274BE182E09EDDF601908189273826A8
S11306A0D7013C920C5F1F4FB4E08B0E911CE4E029
S11306B0AE0EB11CF4E0CF0ED11C44E0E40EF11CEC
S11306C02C8D3D8D5E8D8B899C890817190709F047
S11306D0A5CFF20180E090E0D901A80FB91F608195
S11306E04C9146274193019680319105A9F72394B3
S11306F05150205F3F4F61CFD201EC91F0E0EA56B8
S1130700FF4FE491ED93EF89F88DAE17BF07A9F77A
S113071061E0C2010196C1DE62E0C2010296BDDE63
S113072063E0C2010396B9DEF0E12F9E10011124AB
S113073080E090E0FC01E20DF31DE60DF71DAD89AC
S1130740BE893C91208123272D93BE8BAD8B0196CE
S11307508031910579F76E960FB6F894DEBF0FBE1F
S1130760CDBFDF91CF911F910F91FF90EF90DF905C
S1130770CF90BF90AF909F908F907F906F905F903D
S11307804F903F902F9008958F929F92AF92BF9277
S1130790CF92DF92EF92FF920F931F93CF93DF9349
S11307A0EA018B01E5E016950795EA95E1F7C02E7D
S11307B07801FF249701295F3F4FD22EDD0CDD0C19
S11307C0AB01F3E056954795FA95E1F7BC01CE01EC
S11307D01CD3602F802F90E08D1508F06FC0482F38
S11307E050E0DA01A150B04CAA0FBB1FAA0FBB1FE7
S11307F0AC0FBD1F0D911D912D913C911397861740
S113080009F178E0C71241C0782F7770743009F08D
S11308103CC0E02FF0E0EA56FF4FE4910E2FE12FA9
S1130820F0E0EA56FF4FE4911E2FE22FF0E0EA5683
S1130830FF4FE4912E2FE32FF0E0EA56FF4FE491AF
S11308403E2F23C0682F6C0D702FA32EE12FF0E0F4
S1130850EA56FF4FB490E22FF0E0EA56FF4FE491DE
S11308601E2FEA2DF0E0EA56FF4FE4912E2FE72FDA
S1130870F0E0EA56FF4FE4913E2FE92FF0E0E45711
S1130880FF4FE4910E2F0B259F5FFA01EE19FF092C
S1130890EE0FFF1FEE0FFF1FEC0FFD1F80809180F6
S11308A0A280B380082519252A253B2514960D938B
S11308B01D932D933C9317978F5F8ECFDF91CF912C
S11308C01F910F91FF90EF90DF90CF90BF90AF906A
S11308D09F908F900895AB0160E071E055CFA8958B
S11308E084B7877F84BFE0E6F0E0808188618083FD
S11308F010820895CF93DF93CDB7DEB7C05FD140A8
S11309000FB6F894DEBF0FBECDBF3E018FE1681A6B
S11309108EEF780A80E1F301982F11929A95E9F706
S11309205E01EFE8AE1AEEEFBE0A90E4EEE0F1E00D
S1130930D50101900D929A95E1F76E01FFE4CF1A6B
S1130940FEEFDF0A90E2F60111929A95E9F7EEE4E0
S1130950F1E0DE01AF52BE4F01900D928A95E1F7AE
S1130960F894BDDF6BD180E091E09093790280939D
S11309707802909377028093760290937502809325
S11309807402BC0182E791E090D26091760270918A
S1130990770288EA91E089D2850145EBE42E41E0B3
S11309A0F42EF80181918F011F928F93FF92EF92A1
S11309B0809177028F93809176028F932FD20F903C
S11309C00F900F900F900F900F900C151D0549F785
S11309D0DF92CF9289EB91E09F938F93809177027E
S11309E08F93809176028F9319D24601F0E28F0E95
S11309F0911C0F900F900F900F900F900F90860105
S1130A0035EBE32E31E0F32EF80181918F011F9233
S1130A108F93FF92EF92809177028F938091760269
S1130A208F93FCD10F900F900F900F900F900F9019
S1130A300815190549F7609176027091770284ECE4
S1130A4091E033D28E010F521E4F4801F0E18F0E18
S1130A50911C25EBE22E21E0F22EF80181918F0109
S1130A601F928F93FF92EF92809177028F938091E0
S1130A7076028F93D3D10F900F900F900F900F9019
S1130A800F900815190549F77E01FFECEF1AFEEFE8
S1130A90FF0A87019E012F5F3F4FAE014F525E4F09
S1130AA0B501C601A4DB60917602709177028CECEB
S1130AB091E0FBD12701170180E2280E311C470188
S1130AC00EE611E0F40181914F011F928F931F9361
S1130AD00F93809177028F93809176028F939ED1AA
S1130AE00F900F900F900F900F900F90821493041B
S1130AF049F7470100E110E09701200F311FB501CC
S1130B00600F711FA401CE010196EEDB005F1F4F41
S1130B10F0E18F0E911C0034110571F7609176029B
S1130B207091770288EE91E0C0D10EE611E0F201F7
S1130B3081912F011F928F931F930F9380917702BE
S1130B408F93809176028F9369D10F900F900F90BD
S1130B500F900F900F904A145B0449F78E010F50C9
S1130B601F4F9E012F5F3F4FAE014F525E4FB701A3
S1130B70C601E2DB00E110E021EF30E02C0F3D1F65
S1130B80200F311FB701600F711FA701CE0101961D
S1130B900FDC005F1F4F0034110571F7609176027E
S1130BA07091770287EF91E080D18E010F501F4F33
S1130BB085EB882E81E0982EF80181918F011F9298
S1130BC08F939F928F92809177028F938091760278
S1130BD08F9324D10F900F900F900F900F900F9040
S1130BE00E151F0549F720E430E0A301B501C60145
S1130BF007DC60917602709177028FE092E055D124
S1130C007301F0E1EF0EF11C0EE611E0F3018191A6
S1130C103F011F928F931F930F93809177028F93BD
S1130C20809176028F93FAD00F900F900F900F90CF
S1130C300F900F906E147F0449F7FFCF8AE08093E2
S1130C40C40088E18093C1000895CF93C82F8730F2
S1130C5041F4609178027091790289E192E025D1A2
S1130C600AC08A3011F48DE0F0DF8091C00085FF66
S1130C70FCCFC093C60080E090E0CF910895EF923E
S1130C80FF920F931F93CF93DF93209172023091C1
S1130C907302232B09F09AC0EC0102E212E0809166
S1130CA0C00087FFFCCF8091C00084FDA2C080916A
S1130CB0C00083FDA1C08091C6008D3061F48AE03C
S1130CC0F8018083BE01C1DF82E292E09093730257
S1130CD0809372027BC08A3091F3893009F480E2F8
S1130CE090EE980F9F3510F0803A90F0F2E00137C3
S1130CF01F0721F4BE0187E0A8DFD1CF78019FEF61
S1130D00E91AF90AF8018083BE019FDF8701C7CF82
S1130D10823111F130F4833009F46EC0883051F01F
S1130D20BECF873129F08F3729F0853131F1B7CF24
S1130D30780144C0F2E002321F0709F008F4AFCF93
S1130D40BE0188E082DFBE0180E27FDFBE0188E071
S1130D507CDF01501109A3CFBE018DE076DF82E272
S1130D60E82E82E0F82EE016F10608F098CFBE01D6
S1130D70F70181917F0169DFF6CFF2E002321F07AC
S1130D8009F008F48CCFBE0188E05FDFBE0180E289
S1130D905CDFBE0188E059DF01501109EECFF70195
S1130DA082917F01803209F47ACFBE0188E04DDF61
S1130DB0BE0180E24ADFBE0188E047DF870182E2AC
S1130DC0E81682E0F80609F050F769CFE091720264
S1130DD0F0917302CF010196909373028093720293
S1130DE080818A3021F4109273021092720290E092
S1130DF005C08EEF9FEF02C08FEF9FEFDF91CF9181
S1130E001F910F91FF90EF900895FB01DC0102C048
S1130E1001900D9241505040D8F70895CF93DF933D
S1130E20CDB7DEB7AE01475F5F4F6F8178858D81A7
S1130E309E8167D0DF91CF9108950F931F93CF9335
S1130E40DF93FB01238121FD03C08FEF9FEF28C0B7
S1130E5022FF16C0468157812481358142175307EA
S1130E6044F4A081B1819D012F5F3F4F31832083E2
S1130E708C93268137812F5F3F4F3783268310C0A1
S1130E80EB01092F182F0084F185E02D0995892B9A
S1130E90E1F68E819F8101969F838E83812F902F0F
S1130EA0DF91CF911F910F910895EF92FF920F93CD
S1130EB01F93CF93DF93DB0113962C9121FF18C06E
S1130EC08B017C01D0E0C0E0F70181917F01882390
S1130ED061F0D8011896ED91FC911997B801099524
S1130EE0892B91F3DFEFCFEFEFCF8D2F9C2F02C033
S1130EF08FEF9FEFDF91CF911F910F91FF90EF90B4
S1130F0008952F923F924F925F926F927F928F92A9
S1130F109F92AF92BF92CF92DF92EF92FF920F9384
S1130F201F93CF93DF93CDB7DEB72C970FB6F8940A
S1130F30DEBF0FBECDBF7C016B018A01FC011782AD
S1130F401682838181FFB0C1CE0101964C01F70165
S1130F509381F60193FD859193FF81916F0188231D
S1130F6009F49EC1853239F493FD859193FF8191F3
S1130F706F01853221F4B70190E05FDFE8CF512C97
S1130F80312C20E02032A0F48B3269F030F480322E
S1130F9059F0833269F420612CC08D3239F08033EA
S1130FA039F4216026C02260246023C0286021C057
S1130FB027FD27C030ED380F3A3078F426FF06C0FD
S1130FC0FAE05F9E300D1124532E13C08AE0389E40
S1130FD0300D1124332E20620CC08E3221F426FDF4
S1130FE05FC1206406C08C3611F4206802C08836C4
S1130FF041F4F60193FD859193FF81916F01811175
S1131000C1CF982F9F7D9554933028F40C5F1F4FC8
S1131010FFE3F9830DC0833631F0833771F08335F4
S113102009F057C021C0F801808189830E5F1F4FEA
S113103044244394512C540114C03801F2E06F0E3F
S1131040711CF801A080B18026FF03C0652D70E0FB
S113105002C06FEF7FEFC5012C874CD12C018301B7
S11310602C852F77222E16C03801F2E06F0E711CEA
S1131070F801A080B18026FF03C0652D70E002C096
S11310806FEF7FEFC5012C872AD12C012C852068B6
S1131090222E830123FC19C0832D90E048165906A3
S11310A0A0F4B70180E290E0C8DE3A94F5CFF501F0
S11310B027FC859127FE81915F01B70190E0BDDE99
S11310C031103A94F1E04F1A51084114510479F760
S11310D0DEC0843611F0893631F5F80127FF07C0E8
S11310E060817181828193810C5F1F4F08C0608190
S11310F07181072E000C880B990B0E5F1F4F2F7602
S1131100722E97FF09C090958095709561957F4FD9
S11311108F4F9F4F2068722E2AE030E0A401F5D053
S1131120A82EA81843C0853729F42F7EB22E2AE0B2
S113113030E025C0F22FF97FBF2E8F36C1F018F4AE
S1131140883579F0ADC0803719F0883721F0A8C010
S11311502F2F2061B22EB4FE0DC08B2D8460B82ECB
S113116009C024FF0AC09F2F9660B92E06C028E04C
S113117030E005C020E130E002C020E132E0F801B7
S1131180B7FE07C060817181828193810C5F1F4F1C
S113119006C06081718180E090E00E5F1F4FA40162
S11311A0B4D0A82EA818FB2DFF777F2E76FE0BC097
S11311B0372D3E7FA51450F474FE0AC072FC08C09B
S11311C0372D3E7E05C0BA2C372D03C0BA2C01C082
S11311D0B52C34FF0DC0FE01EA0DF11D8081803372
S11311E011F4397E09C032FF06C0B394B39404C02D
S11311F0832F867809F0B39433FD12C030FF06C004
S11312005A2CB31418F4530C5B18B32CB31460F4B5
S1131210B70180E290E03C8710DEB3943C85F6CFC2
S1131220B31410F43B1801C0312C34FF11C0B701C2
S113123080E390E03C8701DE3C8532FF16C031FD3F
S113124003C088E790E002C088E590E0B7010CC0D5
S1131250832F867851F031FF02C08BE201C080E217
S113126037FD8DE2B70190E0E8DDA51430F4B70155
S113127080E390E0E2DD5A94F8CFAA94F401EA0DF9
S1131280F11D8081B70190E0D8DDA110F6CF3320A5
S113129009F45DCEB70180E290E0CFDD3A94F7CF58
S11312A0F7018681978102C08FEF9FEF2C960FB6CE
S11312B0F894DEBF0FBECDBFDF91CF911F910F9188
S11312C0FF90EF90DF90CF90BF90AF909F908F9062
S11312D07F906F905F904F903F902F900895FC0106
S11312E00590615070400110D8F7809590958E0F4D
S11312F09F1F0895FC016150704001900110D8F7C0
S1131300809590958E0F9F1F0895FA01AA27283083
S113131051F1203181F1E8946F936E7F6E5F7F4FBE
S11313208F4F9F4FAF4FB1E03ED0B4E03CD0670F3A
S1131330781F891F9A1FA11D680F791F8A1F911D8D
S1131340A11D6A0F711D811D911DA11D20D009F4DD
S113135068943F912AE0269F11243019305D31931F
S1131360DEF6CF010895462F4770405D4193B3E008
S11313700FD0C9F7F6CF462F4F70405D4A3318F0AF
S1131380495D31FD4052419302D0A9F7EACFB4E060
S1131390A6959795879577956795BA95C9F7009718
S11313A06105710508959B01AC010A2E06945795B9
S11313B0479537952795BA95C9F7620F731F841F10
S10D13C0951FA01D0895F894FFCFB7
S11313CA000000030000000025063F06000000019B
S11313DA02030405060708090A0B0C0D0E0F000187
S11313EA02030405060708090A0B0C0D0E0F000177
S11313FA02030405060708090A0B0C0D0E0F000167
S113140A02030405060708090A0B0C0D0E0F000156
S113141A02030001020300010203000102030A4B52
S113142A65797363686564756C653A200A002558A2
S113143A20000A0A48656C6C6F2C20776F726C6402
S113144A2120596F7520726561647920666F722054
S113145A736F6D652041455320456E6372797074CC
S113146A696F6E3F200A0A00506C61696E74657870
S113147A743A090900256420000A4B6579402578E5
S113148A3A0909000A49563A090909000A496E74CF
S113149A65726D65646961746520636970686572F3
S11314AA746578743A0909000A4369706865727444
S11314BA6578743A0909000A446563727970746537
S11314CA6420436970686572746578743A09000A1D
S11314DA486173683A090909002A72696E672A0A17
S10514EA0000FC
S9030000FC
