S017000041544D656761313238345F54524E472E7372656395
S113000045C0000060C000005EC000005CC000008D
S11300105AC0000058C0000056C0000054C0000080
S113002078C0000050C000004EC000004CC000006A
S11300304AC0000048C0000046C0000044C00000A0
S113004042C0000040C000003EC000003CC00000B0
S11300503AC0000038C0000036C0000034C00000C0
S113006032C0000030C000002EC000002CC00000D0
S11300702AC0000028C0000026C0000024C00000E0
S113008022C0000020C000001EC0000011241FBEBA
S1130090CFEFD0E4DEBFCDBF11E0A0E0B1E0ECEDE6
S11300A0FAE000E00BBF02C007900D92A634B1073E
S11300B0D9F721E0A6E4B1E001C01D92A53FB20743
S11300C0E1F702D009C59CCFA895F894E0E6F0E0EA
S11300D0808188618083108280818861808380E44C
S11300E0808385B5816085BDC4D0EFEEF1E080E00A
S11300F091E09583848391838083938382839C019D
S113010049E250E061E070E08EE091E009D2789439
S1130110FFCF1F920F920FB60F9211240BB60F92BE
S1130120EF92FF920F931F932F933F934F935F93FD
S11301306F937F938F939F93AF93BF93CF93DF93EB
S1130140EF93FF9380914A0196B5E82FF0E0E356D0
S1130150FE4F90838F5F80934A01803208F470C011
S1130160EDE9F1E0CDEBD1E080E090E0DC0121911C
S11301707C018D01E20EF11C011D111DA8019701E6
S1130180A1E0B4E0A5D18B019C01689415F83695E3
S11301902795179507951694D1F7DC01CB01802795
S11301A09127A227B327EC17FD0709F7AC01BD017E
S11301B0440F551F661F771F440F551F661F771F77
S11301C0440F551F661F771F840F951FA61FB71F67
S11301D0AC01BD01032E3BE0769567955795479595
S11301E03A95D1F7302D9A01AB01282739274A27B0
S11301F05B27A1E0B0E86CD160934601709347019E
S113020080934801909349017F936F93AA27BB275A
S11302109F938F9388E391E09F938F93EFEEF1E0A8
S113022083818F9382818F936CD110924A010DB791
S11302301EB7085F1F4F0FB6F8941EBF0FBE0DBF49
S1130240FF91EF91DF91CF91BF91AF919F918F91EA
S11302507F916F915F914F913F912F911F910F91DA
S1130260FF90EF900F900BBE0F900FBE0F901F905A
S1130270189582E08093C00088E08093C40088E1F0
S11302808093C1000895CF93C82F873061F42091E3
S1130290F3013091F40147E050E061E070E08EE357
S11302A091E03ED10BC08A3011F48DE0ECDFE0EC3C
S11302B0F0E0908195FFFDCFC093C60080E090E010
S11302C0CF9108956F927F928F929F92AF92BF9237
S11302D0CF92DF92EF92FF920F931F93CF93DF930E
S11302E020919B0130919C01232B09F0C7C08C0104
S11302F00F2EFBE48F2EF1E09F2EF02DC0ECD0E00A
S11303000F2EF6ECCF2ED12CF02D54010F2EFAE443
S11303106F2EF1E07F2EF02D88818823ECF7888101
S113032084FDBFC0888183FDBFC0F60180818D300C
S113033011F08A3061F48AE0F4018083B801A3DF0C
S11303408BE491E090939C0180939B0197C089304A
S113035039F090EE980F9F3520F0803AA8F001C054
S113036080E2FAE98F16F1E09F0621F4B80187E0F4
S11303708ADFD2CF74019FEFE91AF90AF40180836E
S1130380B80181DF4701C8CF8231B9F130F483303D
S113039009F48DC08830E9F0BFCF873129F08F3759
S11303A0C1F0853179F0B8CFFBE48F16F1E09F06F8
S11303B009F008F4B1CFF40131978081803209F05B
S11303C045C0AACF8BE4881681E0980609F048F569
S11303D0A3CF9BE4891691E0990609F008F49CCF19
S11303E0B80188E050DFB80180E24DDFB80188E051
S11303F04ADFE1E08E1A91088FCFB8018DE043DF28
S1130400FBE48F16F1E09F0609F008F485CF75012F
S1130410B801F70181917F0136DFE814F904C1F7CF
S11304207BCFB80188E02FDFB80180E22CDFB80170
S113043088E029DFF1E08F1A91088BE4881681E0C7
S1130440980679F7F30131964F0166CF7401F1E014
S1130450EF1AF108B80188E016DFB80180E213DF73
S1130460B80188E010DF4701EA14FB0409F454CF13
S1130470F70182917F01803269F74ECFE0919B01B1
S1130480F0919C01CF01019690939C0180939B0174
S113049080818A3021F410929C0110929B0190E09B
S11304A008C08EEF9FEF05C08FEF9FEF02C08FEF64
S11304B09FEFDF91CF911F910F91FF90EF90DF900D
S11304C0CF90BF90AF909F908F907F906F90089542
S11304D009D0A59F900DB49F900DA49F800D911DF0
S11304E011240895A29FB001B39FC001A39F700D72
S11304F0811D1124911DB29F700D811D1124911D28
S11305000895CF93DF93CDB7DEB7AE01475F5F4F5A
S11305106F8178858D819E8145D0DF91CF9108953B
S11305208F929F92AF92BF92CF92DF92EF92FF92FF
S11305300F931F93CF93DF935B014A017901D90194
S113054013962C9121FF1DC0C0E0D0E0C815D90539
S1130550D9F08C016C01CA0CDB1CC8010C151D05FB
S113056071F00F5F1F4FD7011896ED91FC91199709
S1130570B701DC018C910995892B79F305C021968B
S1130580E5CF80E090E001C0CE01DF91CF911F91D3
S11305900F91FF90EF90DF90CF90BF90AF909F901E
S11305A08F9008952F923F924F925F926F927F9215
S11305B08F929F92AF92BF92CF92DF92EF92FF926F
S11305C00F931F93CF93DF93CDB7DEB72C970FB65E
S11305D0F894DEBF0FBECDBF7C016B018A01FC0124
S11305E017821682838181FFB0C1CE0101964C012E
S11305F0F7019381F60193FD859193FF81916F013A
S1130600882309F49EC1853239F493FD859193FFC3
S113061081916F01853221F4B70190E0C7D1E8CF11
S1130620512C312C20E02032A0F48B3269F030F4CC
S1130630803259F0833269F420612CC08D3239F054
S1130640803339F4216026C02260246023C02860EE
S113065021C027FD27C030ED380F3A3078F426FF4B
S113066006C0FAE05F9E300D1124532E13C08AE0B9
S1130670389E300D1124332E20620CC08E3221F4AA
S113068026FD5FC1206406C08C3611F4206802C0C8
S1130690883641F4F60193FD859193FF81916F01B2
S11306A08111C1CF982F9F7D9554933028F40C5F0E
S11306B01F4FFFE3F9830DC0833631F0833771F0A8
S11306C0833509F057C021C0F801808189830E5F0A
S11306D01F4F44244394512C540114C03801F2E0B8
S11306E06F0E711CF801A080B18026FF03C0652D38
S11306F070E002C06FEF7FEFC5012C874CD12C0155
S113070083012C852F77222E16C03801F2E06F0E5C
S1130710711CF801A080B18026FF03C0652D70E034
S113072002C06FEF7FEFC5012C872AD12C012C85E5
S11307302068222E830123FC19C0832D90E04816E3
S11307405906A0F4B70180E290E030D13A94F5CF95
S1130750F50127FC859127FE81915F01B70190E0A7
S113076025D131103A94F1E04F1A51084114510443
S113077079F7DEC0843611F0893631F5F80127FFA8
S113078007C060817181828193810C5F1F4F08C013
S113079060817181072E000C880B990B0E5F1F4F2F
S11307A02F76722E97FF09C090958095709561956C
S11307B07F4F8F4F9F4F2068722E2AE030E0A401B4
S11307C02DD1A82EA81843C0853729F42F7EB22E28
S11307D02AE030E025C0F22FF97FBF2E8F36C1F01A
S11307E018F4883579F0ADC0803719F0883721F0D6
S11307F0A8C02F2F2061B22EB4FE0DC08B2D8460B3
S1130800B82E09C024FF0AC09F2F9660B92E06C0D7
S113081028E030E005C020E130E002C020E132E011
S1130820F801B7FE07C060817181828193810C5FFA
S11308301F4F06C06081718180E090E00E5F1F4F02
S1130840A401ECD0A82EA818FB2DFF777F2E76FEEE
S11308500BC0372D3E7FA51450F474FE0AC072FC01
S113086008C0372D3E7E05C0BA2C372D03C0BA2CE4
S113087001C0B52C34FF0DC0FE01EA0DF11D8081CD
S1130880803311F4397E09C032FF06C0B394B394A7
S113089004C0832F867809F0B39433FD12C030FF6F
S11308A006C05A2CB31418F4530C5B18B32CB314AD
S11308B060F4B70180E290E03C8778D0B3943C8543
S11308C0F6CFB31410F43B1801C0312C34FF11C01F
S11308D0B70180E390E03C8769D03C8532FF16C0C5
S11308E031FD03C088E790E002C088E590E0B701DD
S11308F00CC0832F867851F031FF02C08BE201C017
S113090080E237FD8DE2B70190E050D0A51430F4B9
S1130910B70180E390E04AD05A94F8CFAA94F40146
S1130920EA0DF11D8081B70190E040D0A110F6CF0F
S1130930332009F45DCEB70180E290E037D03A94D9
S1130940F7CFF7018681978102C08FEF9FEF2C9636
S11309500FB6F894DEBF0FBECDBFDF91CF911F91CC
S11309600F91FF90EF90DF90CF90BF90AF909F904A
S11309708F907F906F905F904F903F902F9008954D
S1130980FC010590615070400110D8F78095909556
S11309908E0F9F1F0895FC0161507040019001105B
S11309A0D8F7809590958E0F9F1F08950F931F93EE
S11309B0CF93DF93FB01238121FD03C08FEF9FEFD2
S11309C028C022FF16C046815781248135814217F1
S11309D0530744F4A081B1819D012F5F3F4F3183C0
S11309E020838C93268137812F5F3F4F3783268363
S11309F010C0EB01092F182F0084F185E02D099513
S1130A00892BE1F68E819F8101969F838E83812FAE
S1130A10902FDF91CF911F910F910895FA01AA278A
S1130A20283051F1203181F1E8946F936E7F6E5F2D
S1130A307F4F8F4F9F4FAF4FB1E03ED0B4E03CD0DB
S1130A40670F781F891F9A1FA11D680F791F8A1FBE
S1130A50911DA11D6A0F711D811D911DA11D20D025
S1130A6009F468943F912AE0269F11243019305DDF
S1130A703193DEF6CF010895462F4770405D4193D0
S1130A80B3E00FD0C9F7F6CF462F4F70405D4A331D
S1130A9018F0495D31FD4052419302D0A9F7EACFE5
S1130AA0B4E0A6959795879577956795BA95C9F714
S1130AB000976105710508959B01AC010A2E069407
S1130AC05795479537952795BA95C9F7620F731FC0
S10F0AD0841F951FA01D0895F894FFCF0B
S1130ADC00000003000000004301620100004865AF
S1130AEC6C6C6F2C20776F726C6421205072696E61
S1130AFC74696E672072616E646F6D206E756D62C1
S1130B0C6572732E2E0A0A00255825580A002A727B
S1090B1C696E672A0A005D
S9030000FC
