:100000000C9429000C9446000C9446000C94460075
:100010000C9446000C9446000C9446000C94460048
:100020000C9446000C9446000C9446000C94460038
:100030000C9446000C9446000C9446000C94460028
:100040000C9446000C9446000102040810204080E5
:100050001B3611241FBECFE5D4E0DEBFCDBF11E0BB
:10006000A0E6B0E0E4EBF0E302C005900D92A83901
:10007000B107D9F711E0A8E9B1E001C01D92AB3B8F
:10008000B107E1F70E94D7010C9400180C9400000E
:1000900080E888B91ABA80E487BB14BA11BA8FEF26
:1000A0008BBB9FEB98BB85BB82BB1092A10119BE95
:1000B00012BE81E083BF0895FF920F931F93CF93E9
:1000C000DF93EC018B01F42EFF2071F082E0003011
:1000D000180740F4E199FECFC8010F5F1F4F0E943F
:1000E00043188993FA9491F781E0CDB7DEB7E5E044
:1000F0000C942C18CF92DF92FF920F931F93CF9303
:10010000DF93EC018B01F42EFF2079F022E0C03068
:10011000D20748F4E199FECFCE012196F801619112
:100120008F010E944B18FA9489F781E0DF91CF91FB
:100130001F910F91FF90DF90CF9008950E94480685
:1001400008950E94850608950E94880608950E94D9
:1001500003060895A8E1B0E0E0EBF0E00C9411187C
:100160001092A0018091A101E2B7F0E090A1E82FE8
:10017000F0E0E770F070E856FE4F90838F5F809359
:10018000A101883038F491E0892F6896E4E00C945E
:100190002D1846C01092A10188E068E971E048E09E
:1001A0000E94A3058E010F5F1F4FC8016EE270E031
:1001B00048E10E945C00882339F490E0892F68961A
:1001C000E4E00C942D182CC0809198019091990135
:1001D000A0919A01B0919B0189839A83AB83BC83E0
:1001E00080919C0190919D01A0919E01B0919F01F1
:1001F0008D839E83AF83B887C801BE01675F7F4F41
:1002000040EA51E021E00E94540586E290E0B80106
:1002100048E00E947A0091E0882309F0B5CFCDCF65
:10022000A2E2B0E0E6E1F1E00C940B186C01109250
:10023000A00181E08093B9018E010D5F1F4FC801BD
:1002400066E270E040E20E945C00882329F480E0CE
:10025000A296EAE00C9427188B819C81AD81BE8127
:100260000196A11DB11D8B839C83AD83BE8386E265
:1002700090E0B80148E00E947A00882341F3C982E7
:10028000DA827E010894E11CF11C8EEFB70142E096
:100290000E94A3051A8309838EEFB70142E00E94F2
:1002A000A3051A8309838EEFB70142E00E94A305DC
:1002B00083E1A82EB12CAC0EBD1EBA82A9828EEFAE
:1002C000B70142E00E94A305C801B50140EA51E030
:1002D00021E00E9454058EEF60E070E040E00E9453
:1002E000A3058B859C85AD85BE852B813C814D8189
:1002F0005E8182279327A427B527F6018083918307
:10030000A283B3838F859889A989BA892F8138857B
:1003100049855A8582279327A427B5278483958307
:10032000A683B783C601B50140EA51E021E00E94EF
:100330005405F60180819181A281B3812B813C819A
:100340004D815E8182279327A427B5278B879C87C1
:10035000AD87BE8784819581A681B7812F8138853D
:1003600049855A8582279327A427B5278F87988B9D
:10037000A98BBA8B8E01055F1F4FC801B50140EAFA
:1003800051E021E00E9454058EE290E0B80148E27D
:100390000E947A00882309F45ACF8EEF60E670E05D
:1003A00044E00E94A3051092B90181E051CFA3E37C
:1003B000B0E0EDEDF1E00C94091880E181BD0E9400
:1003C00048008BE30E949E008AEA0E949E0034E16E
:1003D000832E912C8C0E9D1ED401E5E6F0E080E288
:1003E00001900D928150E1F724E0C22ED12CCC0E69
:1003F000DD1E80E1F60111928A95E9F7CE010196A2
:1004000061E070E041E00E945C00882309F468C06C
:1004100089818D3108F064C0EE24E3948E010E5F73
:100420001F4F0FC06E2D70E06E5F7F4FC80141E01F
:100430000E945C008823E1F18A810E949E00E3947F
:100440008981E81678F393E0A92EB12CAC0EBD1E7D
:1004500009EB11E01092A5011092A40184EAE82EA4
:1004600081E0F82E0E94A700F70181937F01F9EB4C
:10047000EF16F1E0FF06B1F70E94AA008091A401F7
:100480008C7F8038B1F48091A50190E08E7F9070D0
:10049000803B910531F0813B91051CF0803C91053A
:1004A00069F080E09DE60E948A020E94AA00D2CFF5
:1004B000FFCF80E09EE60E948A02F7CFC5010E942E
:1004C0001001F7017097D60181918D930E171F07C8
:1004D000D9F7C601B401A50120E00E945405E5CF7B
:1004E000FFCF9093A3018093A20108958091A5016D
:1004F0000E949E0008958091A50180950E949E0013
:1005000008958091A3010E949E008091A2010E9403
:100510009E0008951F93182F892F0E949E00812FFF
:100520000E949E001F910895EF92FF920F931F93D8
:10053000CF93DF93182F062F662361F0E12EE7019A
:100540007E01F92EE7010E94A7008993AE01411BAD
:100550004017C8F3CDB7DEB7E6E00C942B185091E6
:10056000A60140E02091A70130E0242B352B28176D
:10057000390731F086E89AE60E94710280E008951A
:1005800081E008959091A801981731F080E097E6F6
:100590000E94710280E0089581E00895A4E0B0E037
:1005A000E4EDF2E00C941318FC01808189838481CE
:1005B0008A8380858B8384858C8370E0CB018370F4
:1005C00090709E012F5F3F4F820F931FDC018C9133
:1005D0008083CB01019683709070820F931FDC01A2
:1005E0008C918483CB01029683709070820F931F4D
:1005F000DC018C918087DB011396A370B070A20F91
:10060000B31F8C9184872496E2E00C942F18ABE200
:10061000B0E0EDE0F3E00C9403184C015B015DA346
:100620004CA32FA30EA3002309F47BC12CA13DA151
:10063000B9A6A8A6D50180E090E0F4014081FC01B4
:10064000E40FF11DEF70F070E050FE4D54914C91AD
:1006500054275C93F90141919F0145274D930196E1
:100660008031910551F7FFA1F23008F45DC1F4012A
:1006700020814FA0F1E0FBA3AE014F5E5F4F5BA76F
:100680004AA711E2212E312C2C0E3D1E3E0108946A
:10069000611C711CC401942C2C019BA1892F90E03A
:1006A00082959295907F9827807F9827ACA1BDA1D5
:1006B000A80FB91FBAA3A9A3DE015196E5E8F0E09F
:1006C00080E101900D928150E1F730E0DE0151961A
:1006D000BD01A901FB018191BF0190E0FA01E80F82
:1006E000F91FEF70F070FE2FEE279501280F391FCC
:1006F000D9012C91E20FF11DE050F04FE491860DED
:10070000971DDC01EC936215730521F7CE0102966B
:1007100061E00E94CE02CE01039662E00E94CE020A
:10072000CE01049663E00E94CE0275018301D92CAC
:100730004301F801618180816827C3808281C826D6
:10074000C62682E04BE10E948E06D8019C919C2532
:100750009827F701908312966C91129711968C91BD
:10076000682782E04BE10E948E06D80111969C9189
:1007700011979C259827F701918313966C911397F5
:1007800012968C91682782E04BE10E948E06D80178
:1007900012969C9112979C259827F70192836C9151
:1007A00013968C91682782E04BE10E948E06D80157
:1007B00013969C9113979C259827F70193830C5FC0
:1007C0001F4F44E050E0E40EF51E8AA59BA50817D4
:1007D000190709F0AECFC4019D2C6C0129A13AA1E3
:1007E000D50180E090E0F2014081E42FF0E0319605
:1007F000EF70F070E295F295F07FFE27E07FFE2724
:10080000E80FF91FE050F04E6491F60161936F011B
:10081000F90141919F015C91452746274D9301962F
:100820008031910501F7FEA1FF2309F477C04BA1A8
:100830004F5F4BA3D2018C9190E001968F70907026
:10084000282F8C939A94B92DB23008F026CF42010C
:100850000FA110E002951295107F1027007F10273E
:10086000ECA1FDA10E0F1F1FD50180E090E002C09A
:10087000F4012081FC01E20FF11DEF70F070FE2FFA
:10088000EE272C91E20FF11DE050F04FE491ED9333
:1008900001968031910561F7C501019661E00E94E2
:1008A000CE02C501029662E00E94CE02C501039607
:1008B00063E00E94CE02D50180E090E0F401208147
:1008C000E22FF0E03196EF70F0707096E295F295BD
:1008D000F07FFE27E07FFE27E80FF91FE050F04E83
:1008E000E4912C912E272D9301968031910531F7BB
:1008F000F80190E0A8A5B9A521918C9182278D934C
:100900009F5F9031C9F7D4018C9190E001968F7070
:1009100090708C93AB96E2E10C941F180E94A40097
:1009200086CF0E94A10082CED4012C9101E091CF0C
:10093000A0E0B0E0EEE9F4E00C940718F82FE92FFE
:100940009B017A01EB01D695C795D295C295CF70E0
:10095000CD27DF70CD27BC2E0C2F10E0A801495FFA
:100960005F4FD42EDD0CDD0C3695279536952795F7
:1009700036952795C7016F2F7E2FA9010E943A183F
:10098000CD1508F07FC07C2F770FAC2E6C2FCC24B8
:1009900025C0FB2DF83009F458C0FA01EE0FFF1FF7
:1009A000EE0FFF1FE20FF31F401B510B440F551FAB
:1009B000440F551F420F531FEA01288139814A8194
:1009C0005B81282739274A275B272083318342838D
:1009D00053836F5F7F5F6D1508F054C09701462FFA
:1009E00050E0FA013197EE0FFF1FEE0FFF1FEE0DE3
:1009F000FF1D80819181A281B381882EE92F7A2EFB
:100A00009B2E6A1531F6F0E0EB56FF4FA0808A2F3F
:100A100090E08B569F4FCB2FD0E0CB56DF4FA82DC9
:100A2000B0E0AB56BF4FEC2DF0E0E85BFF4FE49138
:100A3000C3947E2E7A24FC0180809880FC91872DBF
:100A4000982DA92DBF2FA72EA8CFF62FF770F43021
:100A500009F0A3CFA82FB0E0AB56BF4FF0E0EB56A4
:100A6000FF4F872D90E08B569F4FC92DD0E0CB567E
:100A7000DF4F8C909080FC0170806880C401A72DAE
:100A8000B62D8BCFCDB7DEB7EEE00C942318AB01BB
:100A900060E071E00E94980408950F93022F2EE009
:100AA0000E9407030F910895A0EFB0E0EAE5F5E09A
:100AB0000C940B18C82EB92ECB017A01D22EFA0154
:100AC000A0808E010F5F1F4FB8010E944705C7012C
:100AD0006C2D7B2DA8012D2D0E944D05DD2031F0C0
:100AE000C051DF4FEAE00C9427181DC00E94760227
:100AF0000C2D1B2DEE24F80181918F010E949E0088
:100B0000E394FE2DF031B9F78A2D8F700E949E007C
:100B100080E090E90E9471020E947602C051DF4F8E
:100B2000EAE00C94271882E098E190939601809374
:100B3000950180E098E165E971E042E00E947A0069
:100B40001092B9010895A2E0B0E0E9EAF5E00C9452
:100B5000101889838B014A83F090B901FF2041F07E
:100B6000809195019091960128E18030920728F4B8
:100B70002296E5E00C942C1840C01092B9019C011B
:100B80002F5F3F4F3093960120939501BE016F5F19
:100B90007F4F41E00E947A008091950190919601EB
:100BA0009C012F5F3F4F3093960120939501BE012A
:100BB0006E5F7F4F41E00E947A0080919501909195
:100BC0009601B8014A810E947A002A81809195019C
:100BD00090919601820F911D9093960180939501BB
:100BE00080E098E165E971E042E00E947A00F092CD
:100BF000B9012296E5E00C942C1865E16A95F1F7AD
:100C0000089569E7FBCF7F936F935F934F9361E004
:100C10006093BA01BE98C698B699FECFB699FCCF3C
:100C2000882799276FE1EADF22D0000059E04427A6
:100C300062E400000000E2DF1AD0470F889470FDE4
:100C40000894879561E45A95B1F7881F40FD08C064
:100C50006CE4D4DF99274F915F916F917F91089554
:100C60006CE4CCDFBE9AC69866EBC8DFD3CF77279B
:100C70008894B6990894791FC0DF8894B69908942F
:100C8000791FBBDF8894B6990894791F76950895EB
:100C90006F937F936091BA01662329F0B2DFB1DFD1
:100CA00060E06093BA01C69ABE9AC69867E7A6DF6D
:100CB00098E07727879510F0C69802C0C69A73957A
:100CC00066E79CDF00009A95A9F770FD04C000005C
:100CD0000000C69804C00000C69A0000000060E74B
:100CE0008DDFC69A67E78ADFBE98C6988894B69962
:100CF000089430F08795B699FECF6AE37FDFD3CFB3
:100D000064E77CDF7F916F910895BF9AC79A089539
:100D1000BF9AC798089569E771CF0895782F8827FB
:100D2000769531F008F48627660F08F46427F8CF2B
:100D300008F486270895000000000000000000006D
:100D400000000000000000000000000000000000A3
:100D50000000000000000000000000000000000093
:100D60000000000000000000000000000000000083
:100D70000000000000000000000000000000000073
:101000006C737874FD6460CA3F0E6824F1D8A479CB
:10101000C58DC672F55648FFA2DBADA093AB7DCF60
:10102000B8F29C293930F8C33BAAEAFE7ED73E1AB3
:101030000BC82CCC17990A95081D8FEDE428BD7AB2
:10104000068C2315146155AF5D34D9BC26EC208B7A
:101050005CDE0FE22FF3BE5465C4B136454357C082
:10106000DFE0A5F44C423C8A4AF60D705F3390A74E
:101070005EAC4F809D9237FAB3B9D52E1FF0FCDDE0
:10108000C2031CE350984B18CBA871326B52167CEC
:101090006F8E40D32D259F8749E1B71BD15104D4D2
:1010A000EF3D350546092B53CDDCA36D9E9AEB76BB
:1010B000E8C7386282DA41A66359FBE56A75A10781
:1010C000B5772A2113A9BBC9E7D27B1044B2848526
:1010D0007F31BA69470CF9016E3A58B689CE129140
:1010E000EEF7971E66D6819B941188E6C15A27D0E9
:1010F00083AE8602B0E94D674E962200BF5BB419FD
:10110000409DE1C81D513706F3595DC44D414A5514
:10111000F64492AA9994E29BC6716FCC4BFFB4FC43
:101120002307EE47C7D39302FAC1090010A5CB816C
:10113000438411DDD4B62431AC33A02EF515F13241
:10114000B219D51F85E00D64966C582D2C1AB53F49
:10115000F96E7A7C0F88FD5C6D87CA16DB36E76511
:101160009EA90A664934CF73B3057B75CD9CD9E639
:10117000E4C5C92617EC808AC30EABA4B97695677F
:10118000452F6B520B4891F22172A169DA253AFB87
:10119000ED3D68E8228ED870BEA61C14EA79B756D9
:1011A0004FD2A3A7549AE5F46A12307F3C0C04D6C0
:1011B0003E984C53DCC2605A9F78E3BB5B01FED182
:1011C000BCBD8B7D2942EBDEF082902A18134E8C39
:1011D000A82BF7B08F61035738C0357E508308467F
:1011E000E91E63F8DFB128ADA2B8EF5F27AECED716
:1011F000208D6286391BAF775E74D0893BBF97BA6A
:101200003CA321AF1AFA3DFE8B4CD21EB9DB3E2B1C
:10121000CEF50F06AA1F8EC4082C48E1DCC80D9C31
:101220007EC9C360F044F3BB4BF9A59D9B9694ED3A
:1012300056FCCB524E425A45924FC7EE5E120938C9
:1012400001CCABA479B6689ACAEB29C6E318858F9E
:101250000ABC7A7493C2E9D6A69169053B467CC064
:10126000886219C539D46AE861F67375870053F24C
:1012700063992257152330BA16BD10DAEF8A6B0234
:101280007790B4EC0E54DEF197315C43CDD3556FBB
:101290001D65703F0333D90BDD40A8AC955BFBEABD
:1012A000A9B11B1376E559B832E2E767812D7FD7E4
:1012B0007D2E66AE2AD5F435204A5D644704FD9E36
:1012C0007B5186DFB034B598822F896D143678A0B3
:1012D000B7AD50E0A128D8C111E6F76CBED0A22767
:1012E000CF37713A8C5F490724A7BFF86E80580C3E
:1012F0008DFF259F1C178341B2B372844D26D1E424
:101300004154B1D374B826E194579070C54BC95677
:10131000F667A2B68B224662AEE475C06C659FA4E8
:1013200087FEFCF1F7CF9321D1992E9A0AA9A31435
:101330005263783484AD25F82F30282438A1963CA8
:10134000E5EF7289AC4381A0F002DC13CEC1A66B3D
:10135000AA162C516F03FBCCBC83A8F91E10D660D3
:1013600098396AED1F199C0B8200BE53AF7308E2D7
:101370006801E085B07AD77CD05A497F3D48F309AF
:10138000053FB9A729365BFD9BB43E6486DEFA1D96
:10139000809131FFC6C22AB761B35969551A0F77D8
:1013A000BD1547EB0D8D8858D2338F1C7971DBC387
:1013B000F4976E2D0E37204A5F9EBF40C40C441731
:1013C000CA125C7E07E345E8F2DF5EDAB5EC3B115A
:1013D0004DC8BAD4069D8C7BABB242CB8A3AC7DDEE
:1013E0006632EA0492D5CD4E6D2335E6501B5DA5DD
:1013F0008EBB4C27EE18D9D82BE97D76F54F95E7B3
:10140000B15C8D0F07EDA07C65E297369304101652
:101410004670DF55FC063247EF8A670ED873BF75FA
:10142000D31CFF0DA964C1CE7D86EAE08EAFA34C2C
:10143000A7F6B38CD96F111F235EA519F4C3600CF6
:101440002195DE96AC1B05A6F3FE88F19C2EF8C014
:10145000272B203F993337AE773B5D6C2AF78BA261
:101460009F7F9B58C659CA44BEDC4E5B29EE7BB7B2
:101470007ACFA1EB90AB636AADB9F968496D842D61
:101480003AE9622C52AA5F14E50B693DC2419DDA2C
:10149000727924E69AE8FA40432881B4D6D7E11756
:1014A00051D5FDD0341EBAE35371C51D4AE708EC8F
:1014B0004DC4A4BDC8D28535B5DB42C7837409923B
:1014C0008013DD3CD4CC767E48E4B21A8757028282
:1014D000B04F50914B18CB036122FB982F45013838
:1014E000316B94BBF51289D1B6A80A3054F2263973
:1014F00056666EBC00785A153EF08F9E25B8C9CD51
:101500002F293DAA0FAEDB5C4599D43E36B46588E1
:101510004C864AE1375EB3D67E0B3FC56CE6497F09
:10152000759A96B7D9D3BF44F7F85D9034C625EACB
:101530003559FACD209C671A262856E0B58ACF9EE9
:10154000F9C117A5C8B1C7CA9F3C2295AFE7AC182F
:101550009BB2CE135564024E970E0AA00619121EB6
:101560008E42D7106277E5877DF360FF61A246A6C1
:1015700014BD547051C08094535A92A9D298F64326
:10158000E3A478FB045032DC2D66936B155BD0032B
:101590002ED8EEEF8DB8117A79C3D1A3DF1D404B61
:1015A000D531DE7324FC486ADA83270DE9C4EC6880
:1015B000AB304DBAFE7BE28C0CBCEBF1849DFD742C
:1015C000BB3B6EBE238BDD71474FF5ED05E42AB9B9
:1015D00001387C16A1C21B583AF22172A86976899B
:1015E000001FCB6D0933918FE8B02BCC82AD520830
:1015F000F4F0811CA7B6C9072C63413985575F6F8A
:101600002729EF5985BA91C0563AC2F5932F15682C
:10161000F7F89F52C93BE52A957AB899DCD64BB0CA
:101620000471CA30E96370468943EE455138D9BC2C
:10163000964A31DBBB39876A2620A532A10053D4F4
:10164000555CA69D97DD4CF9B21B7F5BCF5E9B8FEF
:10165000FC72F06FAD6EA9494D811FD8786D88EA94
:101660000198AF051609111DBD941CC16B5A410D9F
:1016700033909A2DE8A017A3CEF6AA18BEC7C5C806
:10168000B303FEE4928B7BF23FA4B54274F183ED89
:101690008CD50228CBE667E33EDA7CD1F32B654795
:1016A000CC76ACDE12D0444FD721E0E1B782751E74
:1016B0006922649C541A0CDFABECF4775F0BD33DCA
:1016C0006C23364E588A6050FFFB138EB9A808C6AB
:1016D000BFE7C324A28D075D100F62C43C06809E45
:1016E000FD357D2E66A78679370E1973CDAE57145A
:1016F0004048E2FAEB0AB62534B4B161842C7ED2BC
:1017000097EAD06C0A3DC5A93F6E457AA610D6D897
:101710004FB429236647856AD51AC436AD600708D9
:101720004326C7AEBA11BC76B98F9C16CF358EFB57
:101730002BACFF5ECD5ADFD99578C64424CEB5696F
:101740007064A130A480E44D06B322686259A3AA54
:101750001577928727E07EB2B6569152900F8D038F
:10176000F2BEA5943EE36B42E2EEF6E9FA5067FE64
:10177000373A3841E75509315CE85F17D2656FCCDD
:10178000127C0E8BBD4A5BC00D84746D1B01FC4C3A
:10179000B89AD40C2E8325C11C981934D7FD2A730E
:1017A000E18A7D481E1FDE28B0BB2FED215389330F
:1017B000C22CF4A0880B135420F3E5AB639BDD9699
:1017C00039F7574671EC0400AF9F75A7B1C9DC9398
:1017D000617FF9C33B9DF0EFA2F8725DDB3C1840DE
:1017E000EBA851328CE6F1C886795899D182CA02A9
:1017F0002D81D37B9E4E4BCBDA49F514051DB7BF27
:10180000B0B8120A1BFA46D5C444419174DC8E224A
:101810000DC58DDE96577689C7FEE9833D5EA7E448
:101820004F1733D4527DF7ADE0FF9234CCF6706E93
:101830009CD3C6BEA87A90A00F0BE37E4958F83619
:1018400099D2946CA4EAFC2F5B1C0487AFFB23CDD8
:101850003C865C2EE220B4BF27D11011477285EE82
:101860007C25F2D83B169713CE2A8C2103DB95B743
:1018700043F30E14627B8B02CF5445B28401731D77
:10188000C3606ADD1850E7533E065AE84E373538D4
:10189000F1685FF5E6F9E1ED4D64EC319BAAB1FD2D
:1018A0000C82009F5D9E59B9BD71EF28889D781A02
:1018B000A5AC566D672DBC0942EB8FAB3FAE6B7F7D
:1018C00066BAC12B4BC9779AD6D055C251F0A32422
:1018D000F4813AC0199380B679B31EB5A1C8294CDA
:1018E00007086FA239CB15DA658A48692C26BB40F8
:1018F000D7D91FA9754A6130A6CA320563DFE598BA
:101900001BB7E54DA8787DFDEC7FC322332B818981
:10191000DD9E6704BAD0C7FEB04F6EAFE7B4FC34AB
:101920005749CFF50DABC6D994CE446BED0A2E7650
:101930000FC1617047DA323699A9439187FFEAA552
:10194000F41AC296BE3D256216C5D39D55ADEBA0D7
:10195000D7BC4B7E2829E81E868D19DB1765BF058D
:101960008EACE23A18B513F72AAE2F02E1CB1C4534
:10197000244A38BD8B7C6DF63BB2425B2D37CA7A68
:10198000010C0E77D1633F076ADE6921E45359FAEF
:10199000C48893A208D55D74D4D8C0DFCC6651C882
:1019A0002341A4B111D648848060A764A639BB3511
:1019B0004652970692B6D27B3085145E546F959C42
:1019C0001D9AC968FB6CE9EFA34EF07212F8835FB1
:1019D0007510F1988C278A408FB9AA20F903B8CDE9
:1019E00079821F155071B35CE32CF2009B56313E97
:1019F000A1DCE65A3C0BF39F0958734C9026E0EEAD
:101A0000A6969E4CF088AAE5CE007F6ED548393D5B
:101A1000C19B644B05E279214658FAC0A402D6C99D
:101A200040BFA061BBE83BF391D20B68DFB5F1C8C2
:101A300070E32DCC243C868EB81442EA77A7F2726C
:101A4000BD34544D382275C5452BB2377384F962C5
:101A5000A1250D20C4EE4A13A38135EDBA17F81C59
:101A60008289D4166A180AB0B3D87144262711E7C0
:101A7000CA1992DCA25AAFE415FB99CD32B16D2A96
:101A80008A3F511B605B939A5D490998B99D74DD4B
:101A90006F8F6BA836A93AB44E2CBEABD91E8B47BC
:101AA000D7DBD0CF69C3C75E87CBAD9CDA077B524B
:101AB000D1652E665CEBF556030E78016CDE0830BE
:101AC0005706437C299FE1EFD3AE55E9043390FCE0
:101AD00023EC0FFD5994313E8D761A107E5F53BC76
:101AE000B6802FA50CF6C2B71F7A97FE28834F85C4
:101AF00041AC7DFFF71D508C951267C663F4E0E69C
:101B0000575322BF04156AA48FC0E29A26F4FCCC76
:101B1000A3BC68CEAA90322C4B13886F210EF1AB78
:101B2000A29BDFB50261B8FB995182D10BCAD52ABD
:101B30001898CD1D80287ED2E4EC564EA647891A0F
:101B40000893EE195DD8412FAF1F4852273E5ED74C
:101B500076927DD0875FEBC9792084AE4A674FCB00
:101B60008D7B4D4C2E1BB2D9DA6072007CBEE3E84F
:101B70004007DB58A7F3917F8EC530C8B6F873A035
:101B8000B71EF7D3F2632337F0F9310A713B55E002
:101B90002DE174B3C1D44624DE50C35CC201E50517
:101BA00038116DB0F6C7A1ED34ADA903A5BAB1BD2A
:101BB0005A62B4066B1264693C9F81360C440FBBB9
:101BC00096FA596E833FC4B9858BF54316296C3D4F
:101BD000D63935147A701CE7545BFE339765864915
:101BE000EF25E94294FD1075DDA89C66CF45EADC3F
:101BF0008C8A9E09AC0D78FFE63A779D9517C62B27
:101C00007D0FD56FECE773B142438274BDD62114CA
:101C10003FC781CA7CAFB9F7D4574F089E70A8FC64
:101C2000475DA01051D82831E116079C4E2052D7AD
:101C30008BA1762F40C4456872DF799DE4C6885039
:101C40008DDE965EDA2504C5D0BAAD94B7F40D6E7C
:101C50005941EBE38615A948C212179771DD8F270A
:101C6000ED9580CFF3C329FB2DB0585C65AB0B1A03
:101C70008760441CFEA42E0167C1ACB33D23A59F21
:101C80009369D2A7E5D3C04AE64DE02A1F7A9BF2BA
:101C90007892E935C9249A189106838577F0A302D2
:101CA000FA4C8A8463321926566199F5CBB68C308A
:101CB000F13C5B548946986A3A1BD93613E8757F24
:101CC000A60C3BA2BEB2AAB562BF371EAEE2F9C8EF
:101CD0008E39339000B4034BBB09556D6B66641DA0
:101CE0003E05FFF65AEF7E34F8DCB8112C38FD6C57
:101CF000CC53D15FEA0ACD0E7BBC22EE492BCEDB62
:101D00002D18EF844DBB7A7B884ADED556EC3644DD
:101D1000C59149A731766EEDCE809645F3B8FE06A3
:101D2000EE6B1977A53E2FD80811E1682999647EDA
:101D300069B1FFDDA440E64B517CFD79164F98B2A6
:101D40005734CD8EAD9483E9FC3D1CE367AFE7B417
:101D50001EB6E448AE2E2BFB71902CBFDAD2786011
:101D60002332925C65618914C210FACAF6B9ACD408
:101D7000A69C1A048A95F85E38179DC7257D59BE22
:101D8000CBA2432613D974DF73F9EADC9EEB50AA89
:101D90003B9AC94EBCBA3FA821A31DF00CD0AB4161
:101DA00009B58FF2CCA0586F1F200B5ABDB375C375
:101DB000464CD12A0FE0220353A17FB06D6205C8C3
:101DC000F1C0DB97270E865B8C938B879B02359F38
:101DD000245D5F52546C3082723A8D39A90A00B783
:101DE00055C401152881E5C10D47D663CFC63C0710
:101DF000E2F71270D71B854237F433D366E86AF5F1
:101E0000735E76F24019BD97BE66D2F04FAB44E9DF
:101E10001E0767EE9626716B64E1781631AAD7200B
:101E20008FC14A99B7FC09F19ECAA846793EE26182
:101E30004587DAD1E3594B3917228BE0B4427475E8
:101E40001837C892722AB15693A90B159A8551F783
:101E50001FCDC5F5B6F9DBA33D2C539D6E6A1B86DD
:101E60009F7EB023DDD56F77B91147EB21A1F42414
:101E700032F3EC13A068BBE83B5881C29BA2E68C0E
:101E8000AE5CBF706D62C70A434925DEEF000C2DC2
:101E90002F105504BCB2CC7ABA06FD80AFC3605790
:101EA000AC2EFF12DF034EA4953441C6B5B3A73064
:101EB000F67CD3E5E491A55FADC4294CD61CD07B5C
:101EC000FB38DC3CE769FA65F8ED7F1D14D84D8AD4
:101ED00048026CD9C9C00833CB5A1A0E8E27CEEAF5
:101EE000357D368205A6B80F522B5D50635B8D3F62
:101EF0009C8388840D94903ACFFE98D4012854890D
:101F000016BB54B00F2D99416842E6BF0D89A18CD4
:101F1000DF2855CEE9871E9B948ED9691198F8E188
:101F20009E1DC186B95735610EF6034866B53E70F1
:101F30008A8BBD4B1F74DDE8C6B4A61C2E2578BA6B
:101F400008AE7A65EAF4566CA94ED58D6D37C8E7B0
:101F500079E4959162ACD3C25C2406490A3A32E036
:101F6000DB0B5EDE14B8EE4688902A22DC4F8160DF
:101F700073195D643D7EA7C41744975FEC130CCDC5
:101F8000D2F3FF1021DAB6BCF5389D928F40A351F1
:101F9000A89F3C507F02F94585334D43FBAAEFD003
:101FA000CF584C4A39BECB6A5BB1FC20ED00D1530F
:101FB000842FE329B3D63B52A05A6E1B1A2C8309F7
:101FC00075B227EBE28012079A059618C323C7045F
:101FD0001531D871F1E5A534CCF73F362693FDB71E
:101FE000C072A49CAFA2D4ADF04759FA7DC982CA91
:101FF00076ABD7FE2B670130C56F6BF27B777C63C6
:10200000B8B62D2389121C87B8B62D2389121C87D8
:10201000121C108BB62D858B121C108BB62D858B48
:102020002D8589B41C10B8212D8589B41C10B821C8
:10203000102D231E851C871E102D231E851C871E18
:1020400089121C87B8B62D2389121C87B8B62D2398
:10205000B62D858B121C108BB62D858B121C108B08
:102060001C10B8212D8589B41C10B8212D8589B488
:10207000851C871E102D231E851C871E102D231ED8
:10208000B8B62D2389121C87B8B62D2389121C8758
:10209000121C108BB62D858B121C108BB62D858BC8
:1020A0002D8589B41C10B8212D8589B41C10B82148
:1020B000102D231E851C871E102D231E851C871E98
:1020C00089121C87B8B62D2389121C87B8B62D2318
:1020D000B62D858B121C108BB62D858B121C108B88
:1020E0001C10B8212D8589B41C10B8212D8589B408
:1020F000851C871E102D231E851C871E102D231E58
:10210000005CA3FF539AF03995C9366AC60F65ACD7
:102110000F65AC005CA3FF539AF03995C9366AC6C7
:10212000366AC60F65AC005CA3FF539AF03995C9B7
:102130003995C9366AC60F65AC005CA3FF539AF0A7
:10214000539AF03995C9366AC60F65AC005CA3FF97
:102150005CA3FF539AF03995C9366AC60F65AC0087
:1021600065AC005CA3FF539AF03995C9366AC60F77
:102170006AC60F65AC005CA3FF539AF03995C93667
:1021800095C9366AC60F65AC005CA3FF539AF03957
:102190009AF03995C9366AC60F65AC005CA3FF5347
:1021A000A3FF539AF03995C9366AC60F65AC005C37
:1021B000AC005CA3FF539AF03995C9366AC60F6527
:1021C000C60F65AC005CA3FF539AF03995C9366A17
:1021D000C9366AC60F65AC005CA3FF539AF0399507
:1021E000F03995C9366AC60F65AC005CA3FF539AF7
:1021F000FF539AF03995C9366AC60F65AC005CA3E7
:10220000000F3639535C656A959AA3ACC6C9F0FFD6
:1022100000000000000000000000000000000000BE
:1022200000000000000000000000000000000000AE
:10223000000000000000000000000000000000009E
:10224000000000000000000000000000000000008E
:10300000F8940C9458182F923F924F925F926F92BF
:103010007F928F929F92AF92BF92CF92DF92EF9268
:10302000FF920F931F93CF93DF93CDB7DEB7CA1BE9
:10303000DB0B0FB6F894DEBF0FBECDBF09942A8814
:10304000398848885F846E847D848C849B84AA84BC
:10305000B984C884DF80EE80FD800C811B81AA8149
:10306000B981CE0FD11D0FB6F894DEBF0FBECDBF14
:10307000ED010895FB01DC0102C001900D92415069
:103080005040D8F70895E199FECF9FBB8EBBE09AE0
:1030900099278DB30895262FE199FECF9FBB8EBB54
:1030A0002DBB0FB6F894E29AE19A0FBE01960895EF
:0430B000F894FFCFC2
:1030B400444F4E45006CECC67F287D083DEB876687
:1030C400F0738B36CF164ED9B246951090869D0874
:1030D400285D2E193B00020406080A0C0E010305A4
:1030E40007090B0D0F637C777BF26B6FC5300167AB
:1030F4002BFED7AB76CA82C97DFA5947F0ADD4A26C
:10310400AF9CA472C0B7FD9326363FF7CC34A5E537
:10311400F171D8311504C723C31896059A07128094
:10312400E2EB27B27509832C1A1B6E5AA0523BD6C8
:10313400B329E32F8453D100ED20FCB15B6ACBBEED
:10314400394A4C58CFD0EFAAFB434D338545F90299
:103154007F503C9FA851A3408F929D38F5BCB6DAAE
:103164002110FFF3D2CD0C13EC5F974417C4A77E54
:103174003D645D197360814FDC222A908846EEB865
:1031840014DE5E0BDBE0323A0A4906245CC2D3AC9F
:10319400629195E479E7C8376D8DD54EA96C56F4E4
:1031A400EA657AAE08BA78252E1CA6B4C6E8DD74A2
:1031B4001F4BBD8B8A703EB5664803F60E613557CA
:1031C400B986C11D9EE1F8981169D98E949B1E871A
:1031D400E9CE5528DF8CA1890DBFE6426841992DBF
:0831E4000FB054BB16021800E5
:00000001FF
