:020000021000EC
:10F0000045C0000060C000005EC000005CC00000A1
:10F010005AC0000058C0000056C0000054C0000094
:10F0200052C0000050C000004EC000004CC00000A4
:10F030004AC0000048C0000046C0000044C00000B4
:10F0400042C0000040C000003EC000003CC00000C4
:10F050003AC0000038C0000036C0000034C00000D4
:10F0600032C0000030C000002EC000002CC00000E4
:10F070002AC0000028C0000026C0000024C00000F4
:10F0800022C0000020C000001EC0000011241FBECE
:10F09000CFEFD0E4DEBFCDBF11E0A0E0B1E0E8E209
:10F0A000FAEF01E00BBF02C007900D92AE33B1073B
:10F0B000D9F721E0AEE3B1E001C01D92AF36B2074F
:10F0C000E1F7F7D3AFC49CCF4EE003C04CE001C0E2
:10F0D0004AE02F923F924F925F926F927F928F926F
:10F0E0009F92AF92BF92CF92DF92EF92FF920F93D7
:10F0F0001F93CF93DF938F939F93DB01FC01842FAA
:10F10000E89481909190A190B190C190D190E190BC
:10F11000F190019111912191319141915191619120
:10F1200071919BE1F4EF0D9080240D9090240D904F
:10F13000A0240D90B0240D90C0240D90D0240D90EB
:10F14000E0240D90F0240D9000250D9010250D90D9
:10F1500020250D9030250D9040250D9050250D90C7
:10F1600060250D9070252EF5FF91EF91819291927F
:10F17000A192B192C192D192E192F1920193119335
:10F18000219331934193519361937193DF91CF9187
:10F190001F910F91FF90EF90DF90CF90BF90AF90B5
:10F1A0009F908F907F906F905F904F903F902F90A7
:10F1B00008958A9509F46894E82D8490EC2DC49004
:10F1C000E02F0491E42F4491E92D2490ED2D9490AB
:10F1D000E12FD490E52F1491522DEA2D2490EE2D9D
:10F1E0003490E22FA490E62FE490222D632DEB2D96
:10F1F0002490E72FB490E32F7491EF2D3491F22CEB
:10F200000EF491CF0A2C0B24402C282C892408249E
:10F21000880C08F4892680248224392C3A24330C63
:10F2200008F4392630249324440C08F44926402459
:10F23000A4242B24220C08F429262024B2240E2CEA
:10F240000F24402C2C2CCD240C24CC0C08F4C926E3
:10F25000C024C2243D2C3E24330C08F4392630242B
:10F26000D324440C08F449264024E4242F24220CFF
:10F2700008F429262024F224022E0326402C202ED6
:10F2800001270026000F08F4092700250225312E4A
:10F290003226330C08F4392630241325440C08F4A4
:10F2A0004926402424252326220C08F4292620243C
:10F2B0003225062E0726402C242E45270426440FEF
:10F2C00008F4492740254225352E3626330C08F40C
:10F2D000392630245325440C08F44926402464255B
:10F2E0002726220C08F42926202472251CCFAB01E6
:10F2F00071E060E000C0EF92FF920F931F93CF93F5
:10F30000DF93FA01EA01DC017695679566956695CB
:10F31000262F0D9001922A95E1F76695669563FB7D
:10F32000362F762F795F770F770FDF011497262F0F
:10F33000E0E0F4EF7F0111E04D915D918D919D91A1
:10F340003217B1F05EF5022F0770043039F5F7017E
:10F35000E40FF11D4491F701E50FF11D5491F70100
:10F36000E80FF11D8491F701E90FF11D949116C08A
:10F37000360FF701E40FF11D0491F701E50FF11DC0
:10F380004491F701E80FF11D5491F701E90FF11DC8
:10F390008491902F4127110F08F41BE1FD01099082
:10F3A00004260192099005260192099008260192EF
:10F3B0000990092601922395271709F0BDCFE894FB
:10F3C000DF91CF911F910F91FF90EF900895000072
:10F3D000000000000000000000000000000000002D
:10F3E000000000000000000000000000000000001D
:10F3F000000000000000000000000000000000000D
:10F40000637C777BF26B6FC53001672BFED7AB76E1
:10F41000CA82C97DFA5947F0ADD4A2AF9CA472C08C
:10F42000B7FD9326363FF7CC34A5E5F171D83115F9
:10F4300004C723C31896059A071280E2EB27B2751A
:10F4400009832C1A1B6E5AA0523BD6B329E32F8492
:10F4500053D100ED20FCB15B6ACBBE394A4C58CF8A
:10F46000D0EFAAFB434D338545F9027F503C9FA85E
:10F4700051A3408F929D38F5BCB6DA2110FFF3D22C
:10F48000CD0C13EC5F974417C4A77E3D645D1973E0
:10F4900060814FDC222A908846EEB814DE5E0BDBDA
:10F4A000E0323A0A4906245CC2D3AC629195E47911
:10F4B000E7C8376D8DD54EA96C56F4EA657AAE086B
:10F4C000BA78252E1CA6B4C6E8DD741F4BBD8B8A06
:10F4D000703EB5664803F60E613557B986C11D9E6C
:10F4E000E1F8981169D98E949B1E87E9CE5528DFE3
:10F4F0008CA1890DBFE6426841992D0FB054BB160F
:10F500008F929F92AF92BF92CF92DF92EF92FF9233
:10F510000F931F93CF93DF93CDB7DEB7C05FD109B1
:10F520000FB6F894DEBF0FBECDBF862E972E8A0190
:10F530006901BE016F5F7F4FDADEC114D104A9F407
:10F540001FC03D91808138273193E017F107C9F73B
:10F55000BE016F5F7F4F8A2D9B2DB6DD80E1E80EE7
:10F56000F11CEC14FD0438F00BC0E12CF12CA02EA2
:10F57000B12E005F1F4FA82DB92DEA2DFB2DE1CF35
:10F58000C051DF4F0FB6F894DEBF0FBECDBFDF9185
:10F59000CF911F910F91FF90EF90DF90CF90BF9090
:10F5A000AF909F908F9008959FE088E10FB6F894F8
:10F5B000A895809360000FBE90936000D7D18630ED
:10F5C000E9F7A895A895A895CBD18823E9F3CED1E2
:10F5D000A895811101C0FFCF81E080936E01FFCF1C
:10F5E0009FE088E10FB6F894A895809360000FBE65
:10F5F00090936000BBD1C82FB9D1C82ED12CE12C7B
:10F60000F12C7601DD24CC24FC2AB0D1C82FAED158
:10F61000C82ADC2AA895AAD1C82FA8D1882E912C57
:10F62000A12CB12C540199248824BC2A9FD1C82F25
:10F630009DD1A895882A9C2A8C0C9D1CAE1CBF1CB1
:10F64000C814D904EA04FB0480F4EBBEF6018791E8
:10F65000A8957ED1A8958FEFC81AD80AE80AF80AAB
:10F66000C814D904EA04FB0480F3FFCFCF92DF92E1
:10F67000EF92FF92CF939FE088E10FB6F894A895A0
:10F68000809360000FBE9093600082E090E09FD175
:10F690006C01E12CF12CC114D104E104F10409F452
:10F6A000FFCFA895EBBEF601C7918C2F78D18FEFD5
:10F6B000C81AD80AE80AF80AC111F4CFA8950FB6FB
:10F6C000F894A89580916000886180936000109202
:10F6D00060000FBE0C940000CF91FF90EF90DF9080
:10F6E000CF9008958F929F92AF92BF92CF92DF9268
:10F6F000EF92FF92CF93DF936B017C0107B600FC82
:10F70000FDCFF999FECF83E0F601E0925B00809394
:10F710005700E895EA012196460157018FEF981AA4
:10F72000A80AB80AD701C60151E0FE01319740810D
:10F73000288130E0322F2227240F311D07B600FC2C
:10F74000FDCFF999FECF0901FC01A0935B00509316
:10F750005700E895112422960296A11DB11D881527
:10F760009905AA05BB0509F707B600FCFDCFF99975
:10F77000FECF85E0F601E0925B0080935700E895AC
:10F7800007B600FCFDCFF999FECF81E180935700C9
:10F79000E895DF91CF91FF90EF90DF90CF90BF90F1
:10F7A000AF909F908F900895CF93DF93CDB7DEB742
:10F7B000DA950FB6F894DEBF0FBECDBF9FE088E1AB
:10F7C0000FB6F894A895809360000FBE90936000E8
:10F7D00000C0C6D08823E9F3C9D0082F10E0102F4D
:10F7E0000027C4D0082BC2D0E82EF12CFE2CEE242A
:10F7F000BDD0E82A0115110571F080E090E0E7D056
:10F800000817190718F481E0A3D0FFCFA895B80115
:10F8100080E090E0E1D0A895B70182E090E0DCD0F4
:10F82000A89580E095D0812C912CA12CB12C612C35
:10F83000712CA8959BD0C82ED12CDC2CCC2496D032
:10F84000C80ED11CACD0A8951C141D04BCF401E05A
:10F8500010E00C0F1D1F0A0D1B1DAC0CBD1CEE246F
:10F86000E394F12CEC0EFD1EEA0CFB1CA8957ED057
:10F87000F80181938F01EE15FF05C1F7A114F1E0A6
:10F88000BF0611F0CD2891F4A895B40180E090E076
:10F89000AE014F5F5F4F26DF939480E580D0892DC6
:10F8A0007ED080E07CD0A895A62CB72C80E050D0EC
:10F8B000C0CF0F931F93CF93DF9339D05FD0A8951C
:10F8C00080E291E074D020E230E04EE351E060E06D
:10F8D00071E08EE491E014DE87E391E068D0CEE33E
:10F8E000D1E00EE411E089915AD0C017D107D9F7C1
:10F8F00084B1837E84B985B18C6185B91A9903C0BE
:10F9000085E526D051DF1B9903C082E521D068DE52
:10F910001C9903C083E41CD047DE82E419D0A6DE24
:10F9200080E090E0DF91CF911F910F9108951092A8
:10F93000CD0085E18093CC00E8ECF0E0808182602E
:10F94000808388E18093C90086E08093CA0008958F
:10F95000E8ECF0E0908195FFFDCF8093CE00089514
:10F960008091C800881F8827881F0895E8ECF0E080
:10F9700080818823ECF78091CE0008951092C50015
:10F9800085E18093C400E0ECF0E0808182608083B8
:10F9900088E18093C10086E08093C2000895E0EC86
:10F9A000F0E0908195FFFDCF8093C6000895CF933E
:10F9B000DF93EC018881882329F02196F0DF89917B
:10F9C0008111FCCF80E0EBDFDF91CF910895A8E1BA
:10F9D000B0E042E050E006C00196272F12D010C0E0
:10F9E000DC01CB01FC01F999FECF06C0F2BDE1BDFF
:10F9F000F89A319600B40D9241505040B8F70895EE
:10FA0000262FF999FECF92BD81BDF89A019700B4D7
:10FA1000021639F01FBA20BD0FB6F894FA9AF99A77
:08FA20000FBE0895F894FFCF1A
:10FA2800000102030405060708090A0B0C0D0E0F56
:10FA3800000102030405060708090A0B0C0D0E0F46
:10FA48000D0A57652061726520696E2062757369B9
:0EFA58006E6573730D0A00486173683A090009
:040000031000F000F9
:00000001FF
