:1000000001020408102040801B36637C777BF26B72
:100010006FC53001672BFED7AB76CA82C97DFA590E
:1000200047F0ADD4A2AF9CA472C0B7FD9326363F73
:10003000F7CC34A5E5F171D8311504C723C3189660
:10004000059A071280E2EB27B27509832C1A1B6E02
:100050005AA0523BD6B329E32F8453D100ED20FCA4
:10006000B15B6ACBBE394A4C58CFD0EFAAFB434DA7
:10007000338545F9027F503C9FA851A3408F929D44
:1000800038F5BCB6DA2110FFF3D2CD0C13EC5F9734
:100090004417C4A77E3D645D197360814FDC222A3A
:1000A000908846EEB814DE5E0BDBE0323A0A490671
:1000B000245CC2D3AC629195E479E7C8376D8DD5E5
:1000C0004EA96C56F4EA657AAE08BA78252E1CA6BD
:1000D000B4C6E8DD741F4BBD8B8A703EB56648031D
:1000E000F60E613557B986C11D9EE1F8981169D9A0
:1000F0008E949B1E87E9CE5528DF8CA1890DBFE623
:10010000426841992D0FB054BB1612E0A0E0B1E057
:10011000EEE6F4E200E00BBF02C007900D92AA32B7
:10012000B107D9F722E0AAE2B2E001C01D92A033E4
:10013000B207E1F71092CD0087E08093CC00E8ECA5
:10014000F0E080818260808388E18093C90086E04E
:100150008093CA0008959091C80095FFFCCF8093CA
:10016000CE0008958091C800881F8827881F0895B1
:100170008091C80087FFFCCF8091CE0008958091C8
:10018000C80087FF03C08091CE00F9CF0895CF93B8
:10019000DF93EC018991882319F00E94AB00FACF1C
:1001A000DF91CF9108951092C50087E08093C4003D
:1001B000E0ECF0E080818260808388E18093C10080
:1001C00086E08093C20008959091C00095FFFCCF17
:1001D0008093C60008958091C000881F8827881FDB
:1001E00008958091C00087FFFCCF8091C6000895DC
:1001F0008091C00087FF03C08091C600F9CF0895A9
:10020000CF93DF93EC018991882319F00E94E400D9
:10021000FACFDF91CF910895A2E0B0E0E2E1F1E002
:100220000C94DF0F6B017901B90149835A830E9455
:100230002B0E4981E42F5A81F52F5801CF014096AA
:10024000D80121912D93E817F907D9F7B701C80113
:100250000E949A08F601005F1F4F8191D5019C9181
:1002600089278D935D01A017B107B9F72296EAE0BF
:100270000C94FB0FEF92FF920F931F93CF93DF939A
:100280007B01E901FA0189019A01205F3F4FDE01FC
:1002900041914D93E217F307D9F7BC01CE010E94BB
:1002A0009A08F70160968191D8019C9189278D93D6
:1002B0008D01AC17BD07B9F7CDB7DEB7E6E00C94FA
:1002C000FF0F8F929F92AF92BF92DF92EF92FF92B9
:1002D0000F931F93CF93DF93CDB7DEB7C250D140BA
:1002E0000FB6F894DEBF0FBECDBF5B014901BE0162
:1002F0006F5F7F4FCF5FDE4F4883C150D140CE5FED
:10030000DE4F5883C250D1400E942B0ECF5FDE4F8C
:100310004881C150D140E42FCE5FDE4F5881C2509A
:10032000D140F52F7E0181EFE80EF11CD70180E16D
:10033000D82EDE0C81918D93DA12FCCF8501C80195
:100340008A199B0988159905B8F4BE016F5F7F4F24
:10035000C7010E949A08D801F70181919C918927D1
:100360008D93DE12FACFF701D8018D918193DE12C1
:10037000FCCF005F1F4FE3CFCE5FDE4F0FB6F89488
:10038000DEBF0FBECDBFDF91CF911F910F91FF90C8
:10039000EF90DF90BF90AF909F908F900895A2E074
:1003A000B0E0E5EDF1E00C94DF0F6B017901B901EC
:1003B00049835A830E942B0E4981E42F5A81F52FDD
:1003C0005801CF014096D80121912D93E817F907E4
:1003D000D9F7B701C8010E949A08F601005F1F4FC4
:1003E0008191D5019C9189278D935D01A017B1075B
:1003F000B9F72296EAE00C94FB0FEF92FF920F936D
:100400001F93CF93DF937B01E901FA0189019A01E0
:10041000205F3F4FDE0141914D93E217F307D9F77B
:10042000BC01CE010E949A08F70160968191D80123
:100430009C9189278D938D01AC17BD07B9F7CDB776
:10044000DEB7E6E00C94FF0FA2E1B1E0EAE2F2E0F1
:100450000C94DB0F5B014901BE016F5F7F4FCF5EE4
:10046000DE4F4883C151D140CE5EDE4F5883C2512A
:10047000D1400E942B0ECF5EDE4F4881C151D1404A
:10048000E42FCE5EDE4F5881C251D140F52F7E0160
:1004900081E0E80EF81ED70190E1792E7E0C819163
:1004A0008D937A12FCCF85016E01E1EFCE0ED11C47
:1004B00080E1682E6C0CC8018A199B098815990582
:1004C00030F5BE016F5F7F4FC7010E949A08B601E9
:1004D000D601C801FC012191CF012D936A12FACFF8
:1004E000C8019601D7014D91F90151919F0145270E
:1004F000FC014193CF017A12F6CFD701FB01819124
:10050000BF018D936E12FACF005F1F4FD4CFCE5E26
:10051000DE4FEEE00C94F70FA0EFB0E0E2E9F2E07E
:100520000C94DD0F6B017A015901BE016F5F7F4FA3
:100530000E942B0E00E010E0470180E1880E911C24
:100540000A151B05A0F4D601A00FB11FF7018D916C
:10055000908189278193E815F905C9F7BE016F5F7E
:100560007F4FC7010E949A08005F1F4FE9CFC0511B
:10057000DF4FECE00C94F90F1F920F920FB60F9221
:1005800011240BB60F922F933F934F935F936F936A
:100590007F938F939F93AF93BF93EF93FF9380913C
:1005A0002B02882361F080E88093610083E08093D0
:1005B000610085B58E7F85BD10922B020BC080E84F
:1005C000809361001092610085B5816085BD81E0F6
:1005D00080932B020E9486116AE070E00E94C30F94
:1005E00087BDFF91EF91BF91AF919F918F917F91C7
:1005F0006F915F914F913F912F910F900BBE0F9094
:100600000FBE0F901F901895A8E6B3E0EAE0F3E064
:100610000C94D70F7E012FEAE21A2CEFF20A80E148
:10062000F70111928A95E9F798E288E10FB6F894FC
:10063000A895809360000FBE909360000E94B20066
:10064000811101C0FBCF5E01FFE0AF1AFDEFBF0AD1
:10065000450120E3820E911C6501A814B90431F014
:100660000E94B800F50181935F01F7CFA89520E2C1
:1006700030E0A701B60188E791E00E948C02A895BE
:10068000F701D6019096C7014096F12CE817F907BB
:1006900039F031912D913217C9F3FF24F394F6CF3D
:1006A000FF2041F085E10E94AB0082EC91E00E94C6
:1006B0000001FFCFA8958E010F5D1C4F9E012F5F9B
:1006C0003D4F48E151E0B60188E391E00E94CF013F
:1006D0009801205F3F4FB601605F7F4FA601CE01BA
:1006E0008F5F9D4F0E94FD01A895E0E0F1E0D801E9
:1006F00021E0E831F20739F091918D919817C1F31B
:10070000FF24F394F5CFFF2041F085E10E94AB0078
:100710008CEC91E00E940001FFCFA895C55CDC4FF6
:100720008881CB53D34090E0982F8827092E000C66
:10073000AA0BBB0BC45CDC4F2881CC53D340822B6B
:10074000C15CDC4F4881CF53D34050E0542F442745
:10075000052E000C660B770BC05CDC4F2881C05463
:10076000D340422B480F591F6A1F7B1F452F562F1E
:10077000672F7727CD59DC4F59834883C356D34021
:100780004115584740F04FEF57E7CD59DC4F59839B
:100790004883C356D340A895892F9A2FAB2FBB27E8
:1007A0005C01092E000CAA0BBB0B2227382F492F06
:1007B0005A2FCB59DC4F288339834A835B83C55634
:1007C000D340212C312C21016E0131E0C30ED31E08
:1007D0003E014FEF641A4DEF740ACD59DC4F88810A
:1007E0009981C356D3408A159B0508F483C0CB5921
:1007F000DC4F488159816A817B81C556D340420DC7
:10080000531D641D751DD6016BBFFA0187918D9331
:100810004F5F5F4F6F4F7F4FA615B705A9F7A8959C
:10082000CE010196CF59DC4F99838883C156D340BE
:100830004C01E12CF12CA114B10479F4E114F10480
:10084000B9F48E010F5F1F4F930148E151E0B601EB
:1008500088E391E00E940C0117C0E114F10441F417
:100860009E012F5F3F4FAE014F5B5C4FB60107C04B
:100870009401A40140515109B6016E0D7F1DCE01B6
:100880008F5F9D4F0E943A01F0E1EF0EF11C20E1D5
:10089000820E911CE11431E0F30669F6FE01EF507F
:1008A000FE4FDE01AF5BBC4FE615F70519F08191F5
:1008B0008D93FACFCF59DC4FE881F981C156D340EF
:1008C0008191CF59DC4FF983E883C156D3400E9410
:1008D000AB00CF59DC4F28813981C156D3402C154C
:1008E0003D0541F73FEFA31AB30A4FEF341A440A0C
:1008F000540A73CFA895FFCF8F929F92AF92BF9269
:10090000CF92DF92FF92FFB6F89407B600FCFDCFBE
:10091000F999FECF23E0FB0180935B002093570001
:10092000E8954B015C0120E030E0B1E0FA01E20F14
:10093000F31FA081E181F0E0FE2FEE276F01CA0EC8
:10094000D11C07B600FCFDCFF999FECF0601F401DA
:10095000A0925B00B0935700E89511242E5F3F4FA3
:10096000E2E08E0E911CA11CB11C2115E1E03E07B6
:10097000E9F607B600FCFDCFF999FECF25E0FB01B3
:1009800080935B0020935700E89507B600FCFDCFED
:10099000F999FECF81E180935700E895FFBEFF9063
:1009A000DF90CF90BF90AF909F908F900895A2E17D
:1009B000B3E0EDEDF4E00C94D70F6E018FE0C81AB0
:1009C0008DEFD80A80E1F60111928A95E9F780E06F
:1009D00090E00E94A611CF5EDC4F99838883C151BD
:1009E000D34098E288E10FB6F894A8958093600010
:1009F0000FBE90936000412C6EE7562E612C712C37
:100A0000A12CB12C7E01FFEFEF1AFDEFFF0A0E942F
:100A1000B200811101C0FBCFA8958E010F5F1E4F60
:100A20000E94B800F80181938F01EE15FF05C1F710
:100A3000AE014F5F5E4FC301B2010E947C04FDE72F
:100A4000AF16B10451F020E031E0A601BE016F5FA6
:100A50007E4F88E991E00E948C0286E00E94AB0004
:100A6000A8958FEFA81AB80A9FEF591A690A790A50
:100A7000EEE7AE16B10459F6F601CE018F5F9E4F38
:100A80006C019F01205F3F4FDC0180E0E217F3071C
:100A900031F041919D914917C9F381E0F7CF882347
:100AA00039F185E10E94AB0087ED91E00E940001E1
:100AB0008FEFF60181936F01EE15FF05D1F7A89531
:100AC000C12C5EE7D52EE12CF12CAE014F5F5E4FBD
:100AD000C701B6010E947C04A895FFEFDF1AEF0A58
:100AE000FF0AC1148CEFD806E104F10471F7FFCFBF
:100AF000A89586E00E94AB0080EE91E00E94000184
:100B0000412C4CEF542E612C712C812C912C5401D2
:100B1000B301A2015E5761097109DE01AF5FBE4FEB
:100B20006BBFFA0187918D934F5F5F4F6F4F7F4F80
:100B3000AE15BF05A9F7A895FE01EF5FFE4F1F0197
:100B4000C12CD12C81149104A104B10499F4C114D5
:100B5000D104E9F48E010F5F1F4F9E012F5F3D4FBF
:100B600048E251E0BE016F5F7E4F88E591E00E9450
:100B7000CF011AC0C114D10451F49E012F5F3F4F21
:100B8000AE014F5F5C4FBE016F5F7E4F0AC021E038
:100B900030E02C0F3D1F2C0D3D1DA101405151098E
:100BA000B101C7010E94FD01F0E1CF0ED11C80E12F
:100BB000280E311CC11491E0D90621F6A895FE013A
:100BC000EF50FE4FDE01AF5FBC4FEE15FF0519F091
:100BD00081918D93FACFAE014F5F5F4FC301B20198
:100BE0000E947C04A895EFEF5E1A6E0A7E0AFFEF62
:100BF0008F1A9F0AAF0ABF0A41148AE7580681E09C
:100C00006806710409F084CFA89586E00E94AB00C5
:100C100088EE91E00E94000180E09CEFA0E0B0E04F
:100C2000ABBFFC01679176916115710509F44FC066
:100C3000CF5EDC4FE881F981C151D3406E177F0749
:100C400008F041C085E10E94AB0083EF91E00E9473
:100C50000001812C3EE7932EA12CB12C1FEFFE0149
:100C6000EF5FFE4F1193EE15FF05E1F7AE014F5F09
:100C70005E4FC501B4010E947C04FFEF9F1AAF0ACA
:100C8000BF0A81148CEF9806A104B10441F7A8951E
:100C90001FEFFE01EF5FFE4F1193EE15FF05E1F729
:100CA000AE014F5F5E4FC501B4010E947C049FEF0F
:100CB000991AA90AB90A8114EAE79E06E1E0AE068C
:100CC000B10439F7FFCF80E090E00E94AC11A89505
:100CD0008BEF91E00E94000186E00E94AB00812C26
:100CE00028E7922EA12CB12CB501A4015B576F4FC0
:100CF0007F4FDE01AF5FBE4F6BBFFA0187918D93CF
:100D00004F5F5F4F6F4F7F4FAE15BF05A9F7AE0125
:100D10004F5F5E4FC501B4010E947C04FFEF9F1A34
:100D2000AF0ABF0A81148CE79806A104B104E1F66A
:100D3000A895812C99249394A92CB12C9E012F5F06
:100D40003E4FD501C401ABBFFC014791F90141936E
:100D50009F010196A11DB11DEE15FF05A1F7A895F4
:100D6000C501B401715081409109AE014F5F5E4FE2
:100D70000E947C04FFEF9F1AAF0ABF0A811489E723
:100D8000980681E0A806B104C9F6A895812C8EE7E3
:100D9000982EA12CB12C1FEFFE01EF5FFE4F119397
:100DA000EE15FF05E1F7AE014F5F5E4FC501B401DF
:100DB0000E947C049FEF991AA90AB90A8114EAE7F4
:100DC0009E06E1E0AE06B10439F7A89584E092E012
:100DD0000E94000186E00E94AB00FFCFA1E1B1E0DC
:100DE000E4EFF6E00C94D70FCB5FDE4F9983888356
:100DF000C550D140C95FDE4F59834883C750D140A9
:100E0000C75FDE4F39832883C950D1406B01CB01C6
:100E1000770FAA0BBB0B2227382F492F5A2FCF5FF2
:100E2000DE4F288339834A835B83C150D140AE01B2
:100E30004F5F5F4F4A01A12CB12CB62EA41AB50A00
:100E4000212C312C21013E0151E0650E751EC55F3C
:100E5000DE4F8882CB50D140192DC95FDE4F4881CB
:100E60005981C750D140C416D50608F086C0CF5F5F
:100E7000DE4F488159816A817B81C150D140420D4A
:100E8000531D641D751D9501220D331D7401002332
:100E900009F444C0C701820F931FC05FDE4F28834F
:100EA000C051D140CF5EDE4F3883C151D140C45FC5
:100EB000DE4F4883CC50D140C35FDE4F5883CD50C6
:100EC000D140C25FDE4F6883CE50D140C15FDE4F5C
:100ED0007883CF50D1400E949E11F7018083C05F7C
:100EE000DE4F2881C051D140CF5EDE4F3881C151E5
:100EF000D140C45FDE4F4881CC50D140C35FDE4F4C
:100F00005881CD50D140C25FDE4F6881CE50D14074
:100F1000C15FDE4F7881CF50D14005C06BBFFA0171
:100F20008791F7018083FFEFEF1AFF0A4F5F5F4F52
:100F30006F4F7F4FE614F70409F0A9CFA89520E082
:100F400031E0C75FDE4F48815981C950D140C55F4C
:100F5000DE4F6881CB50D140712FCB5FDE4F88814F
:100F60009981C550D1400E948C022FEFC21AD20A3B
:100F70003FEF331A430A530A70CFCF5EDE4FE2E1F0
:100F80000C94F30FA0E1B0E0E8ECF7E00C94E30F71
:100F9000CE0101967C0180E1F70111928A95E9F773
:100FA00098E288E10FB6F894A895809360000FBE90
:100FB000909360000E94B200811101C0FBCF0E949B
:100FC000B800863021F5A8958CE092E00E940001DF
:100FD00000E0970140E052E060EE71E088E991E0C6
:100FE0000E94EE06A8958E010F5E1F4FE016F106D7
:100FF00031F0F70181917F010E94AB00F7CFA895F6
:101000000E94B200811101C0FBCFA895FFCF60966E
:10101000E6E00C94FF0FA0E2B0E0E1E1F8E00C9410
:10102000E10F7E0121E1E20EF11C80E1F701119256
:101030008A95E9F798E288E10FB6F894A89580932D
:1010400060000FBE9093600000E097014FED51E00B
:1010500060E070E088E991E00E94EE06DE01119602
:10106000CD0140E05FED61E070E06BBFFA012791D8
:10107000FC012193CF014F5F5F4F6F4F7F4F403196
:10108000FFED5F07F1E06F07710579F7F70180E089
:10109000AE15BF0531F02D9191912917C9F381E06B
:1010A000F7CF882329F08DE192E00E940001FFCF65
:1010B00080E098E7A0E0B0E0ABBFFC0117911F3FD4
:1010C000B1F0C12C88E7D82EE12CF12C112361F06E
:1010D000EBBEF6011791812F0E94E4002FEFC21A98
:1010E000D20AE20AF20AF2CF8AE00E94E400A8954E
:1010F0000FB6F894A8958091600088618093600095
:10110000109260000FBE0C940000A096E8E00C94D2
:10111000FD0F82E084BD80936E000E9486116AE01C
:1011200070E00E94C30F87BD089583E085BD0895D8
:1011300015BC08954EE00E94F6080895A4E0B0E0C2
:10114000E4EAF8E00C94E70FDC018C9189831496B3
:101150008C9114978A8318968C9118978B831C9680
:101160008C911C978C83862F8370E1E0F0E0EC0F6C
:10117000FD1FE80FF11D80818C9370E0FB0131961B
:10118000E370FF2781E090E08C0F9D1FE80FF91FAF
:10119000808114968C931497FB013296E370FF279D
:1011A00081E090E08C0F9D1FE80FF91F8081189659
:1011B0008C931897FB013396E370FF2781E090E052
:1011C0008C0F9D1FE80FF91F80811C968C9324962D
:1011D000E2E00C940310982F991F9927991F2BE197
:1011E000929F902D1124880F89270895A2E3B0E0E3
:1011F000ECEFF8E00C94D70F8C015B01E42E0E9419
:1012000086116E0121E2C20ED11C3601E0E19E2E54
:101210009C0C0E948611F30181933F019E12F9CF2D
:1012200075E0F72E0E9486110E948611FA94F11043
:10123000F9CF0E94861165E070E00E94C30F882EEE
:101240000E94861160E170E00E94C30F90E0981543
:1012500020F48F5F8F709F5FFACF8F5F8F70282F82
:1012600030E0F60141916F01F801E20FF31F908128
:1012700094279083D501A20FB31F2C912427922786
:1012800090839C10EACFCC24C394D12C55E0652EDA
:10129000712C60E1862E912C4C2C8E2D8F19823072
:1012A00008F4DDC20E948611582E0E948611B301F7
:1012B0000E94C30F482E0E948611B4010E94C30FE2
:1012C000282F19AA89A9803180F439A82AAB0E9455
:1012D0008611E1E1F0E0EC0FFD1FE30DF11D8083CD
:1012E00089A98F5F89AB2AA9EDCFF1E0FF1520F422
:1012F0003DE0C316D10491F430E0341578F42F5F4B
:101300002F70852D90E0865F9F4F092E000CAA0B51
:10131000BB0BABBFFC0157903F5FEFCF19AA89A968
:101320008031E8F42F5F2F70822F90E0F801E80FF2
:10133000F91F408150E0465F5F4F052E000C660BA1
:10134000770B6BBFFA014791E1E1F0E0EC0FFD1F75
:10135000E80FF91F408389A98F5F89ABE0CF41E097
:101360004F1520F45DE0C516D10481F484E08415A6
:1013700068F0852D90E0865F9F4F092E000CAA0B28
:10138000BB0BABBFFC0157904394F0CF19AA89A9BE
:10139000803158F559A80E948611E1E0F0E0EC0F89
:1013A000FD1FE50DF11DB4010E94C30F808399A9B3
:1013B00029A989A961E170E06C0F7D1F690F711D7A
:1013C000E1E0F0E0EC0FFD1FE80FF11DA1E1B0E05E
:1013D000AC0FBD1FA20FB11D90818C918927FB011D
:1013E000808389A98F5F89ABD2CF61E0CE0142961D
:1013F0000E949E0861E0CE0102960E949E0862E073
:10140000CE0143960E949E0862E0CE0103960E94A0
:101410009E0863E0CE0144960E949E0863E0CE01E0
:1014200004960E949E0819AA89A9843008F0EBC08E
:1014300099A939A989A929A9A2E1B0E0AC0FBD1FDA
:10144000F4E03F9FA00DB11D1124E3E1F0E0EC0FAB
:10145000FD1F34E0839FE00DF11D11245C9080811D
:101460005826E1E1F0E0EC0FFD1F44E0949FE00D11
:10147000F11D112490815926E4E1F0E0EC0FFD1FED
:1014800054E0259FE00DF11D11248081582689A983
:1014900099A9A2E1B0E0AC0FBD1FE4E09E9FA00DB2
:1014A000B11D1124E1E1F0E0EC0FFD1F24E0829F6B
:1014B000E00DF11D11249C91808189270E94EB0889
:1014C00099A929A9F80134E0239FE00DF11D112409
:1014D000A1E1B0E0AC0FBD1F44E0949FA00DB11D91
:1014E00011249C9195258927808389A999A9A3E135
:1014F000B0E0AC0FBD1F54E0959FA00DB11D1124AD
:10150000E2E1F0E0EC0FFD1F94E0899FE00DF11D9A
:1015100011249C91808189270E94EB0899A929A90F
:10152000F80134E0239FE00DF11D1124A2E1B0E0A9
:10153000AC0FBD1F44E0949FA00DB11D11249C91E0
:1015400095258927818389A999A9A4E1B0E0AC0FE9
:10155000BD1F54E0959FA00DB11D1124E3E1F0E003
:10156000EC0FFD1F94E0899FE00DF11D11249C916B
:10157000808189270E94EB0899A929A9F80134E004
:10158000239FE00DF11D1124A3E1B0E0AC0FBD1FBE
:1015900044E0949FA00DB11D11249C9195258927AD
:1015A000828399A989A9A4E1B0E0AC0FBD1F54E0E2
:1015B000959FA00DB11D1124E1E1F0E0EC0FFD1F9E
:1015C00094E0899FE00DF11D11249C918081892771
:1015D0000E94EB0899A929A9F80134E0239FE00DA6
:1015E000F11D1124A4E1B0E0AC0FBD1F44E0949FB5
:1015F000A00DB11D11249C9159268525838389A9AD
:101600008F5F89AB11CF19AA89A9843008F0F7C080
:1016100099A939A989A929A9A2E0B0E0AC0FBD1FF9
:1016200054E0359FA00DB11D1124E3E0F0E0EC0F74
:10163000FD1F34E0839FE00DF11D11245C9080813B
:101640005826E1E0F0E0EC0FFD1F44E0949FE00D30
:10165000F11D112490815926E4E0F0E0EC0FFD1F0C
:1016600054E0259FE00DF11D11248081582689A9A1
:1016700099A9A2E0B0E0AC0FBD1FE4E09E9FA00DD1
:10168000B11D1124E1E0F0E0EC0FFD1F24E0829F8A
:10169000E00DF11D11249C91808189270E94EB08A7
:1016A00099A929A9E1E1F0E0EC0FFD1F34E0239FA7
:1016B000E00DF11D1124A1E0B0E0AC0FBD1F44E02E
:1016C000949FA00DB11D11249C919525892780839D
:1016D00089A999A9A3E0B0E0AC0FBD1F54E0959F84
:1016E000A00DB11D1124E2E0F0E0EC0FFD1F94E02D
:1016F000899FE00DF11D11249C91808189270E9412
:10170000EB0899A929A9E2E1F0E0EC0FFD1F34E014
:10171000239FE00DF11D1124A2E0B0E0AC0FBD1F2E
:1017200044E0949FA00DB11D11249C91952589271B
:10173000808389A999A9A4E0B0E0AC0FBD1F54E053
:10174000959FA00DB11D1124E3E0F0E0EC0FFD1F0B
:1017500094E0899FE00DF11D11249C9180818927DF
:101760000E94EB0899A929A9E3E1F0E0EC0FFD1F25
:1017700034E0239FE00DF11D1124A3E0B0E0AC0F95
:10178000BD1F44E0949FA00DB11D11249C9195258F
:101790008927808399A989A9A4E0B0E0AC0FBD1F77
:1017A00054E0959FA00DB11D1124E1E0F0E0EC0F95
:1017B000FD1F94E0899FE00DF11D11249C91808113
:1017C00089270E94EB0899A929A9E4E1F0E0EC0F30
:1017D000FD1F34E0239FE00DF11D1124A4E0B0E0D3
:1017E000AC0FBD1F44E0949FA00DB11D11249C912E
:1017F00059268525808389A98F5F89AB05CF0E94F3
:101800008611B4010E94C30F19AAA60134E0440F47
:10181000551F3A95E1F799A99031E0F48F5F8F70E9
:10182000282F30E0D801A20FB31FFA01E20FF31FF7
:10183000EA0DFB1D60819C919627E1E1F0E0EC0F41
:10184000FD1FE20FF31F208192279C9399A99F5FB0
:1018500099ABE1CFF3945FEFC51AD50A1DCD512C9A
:101860000E948611D82E0E94861165E070E00E94C9
:10187000C30FC82E0E94861160E170E00E94C30F62
:1018800090E09C1578F48F5F8F704D2D50E0465F8F
:101890005F4F052E000C660B770B6BBFFA01D790DC
:1018A0009F5FEFCF90E17E01E1E1EE0EF11C8F5FD3
:1018B0008F70282F30E0F801E20FF31F408150E0D5
:1018C000465F5F4F052E000C660B770B6BBFFA016E
:1018D0004791F701E20FF31F4083915041F7F4E085
:1018E000FC1568F08D2D90E0865F9F4F092E000C4F
:1018F000AA0BBB0BABBFFC01D790C394F0CF9E01EA
:101900002F5F3F4F49016701190120E1622E712CC1
:1019100020E12E0D2AAB0E948611B3010E94C30F55
:10192000F40181934F01F6019081892781936F0122
:101930002AA92E13EFCF61E0CE0142960E949E08A5
:1019400061E0CE0102960E949E0862E0CE014396BD
:101950000E949E0862E0CE0103960E949E0863E00A
:10196000CE0144960E949E0863E0CE0104960E9438
:101970009E080E94861160E170E00E94C30FD82E7D
:101980000E94861165E070E00E94C30FC82E90E1AE
:10199000992E0E9486119A949110FBCF90E09C158D
:1019A00030F481E08D0D8F70D82E9F5FF8CF20E14D
:1019B00084E0440C551C8A95E1F781E08D0D8F7011
:1019C000D82E90E0F701E80FF91F4081F801E80FE9
:1019D000F91F4083D201A80FB91FAA0DBB1D3C916E
:1019E0003427D101A80FB91F9C91832F89278083A9
:1019F000215019F7E296E2E10C94F30FA9E0B0E070
:101A0000E4E0FDE00C94D70F8C015A017B0145E026
:101A1000F694E7944A95E1F72E2C47019924240186
:101A200027E0420E511C342D330F330F39876B01E1
:101A300053E0D694C7945A95E1F7512C652C712C3C
:101A40006C147D0440F40E948611F501E60DF71D2B
:101A5000808B5394F3CFA601B801C5010E94951164
:101A60000E94861165E070E00E94C30F082F0E945B
:101A70008611182F0E94861183703E2C5E2C412CFB
:101A800035E0632E712C2985521608F0E0C0252D13
:101A900030E03E832D83690131E0C31A30ECD30A74
:101AA000CC0CDD1CCC0CDD1C95012C0D3D1D3887AC
:101AB0002F83F901408151816281738149835A8367
:101AC0006B837C83531409F44AC0F8E02F12A1C041
:101AD000952D9770943009F09CC090E0901769F0B4
:101AE000412F50E0465F5F4F052E000C660B770BD1
:101AF0006BBFFA0117919F5FF1CF44E050E08F5F19
:101B00008370A1E0B0E0AC0FBD1FA80FB11D6C91B8
:101B100070E0665F7F4F6B01770FEE08FF08EBBE4A
:101B2000F60197919C934150510949F7053068F4AB
:101B3000812F90E0865F9F4F092E000CAA0BBB0BF4
:101B4000ABBFFC0117910F5FF1CF0E948611B3016B
:101B50000E94C30F082F0E94861183705AC0352C33
:101B6000320C99813A8139833B813A833C813B83B2
:101B70009C8390E0901769F0412F50E0465F5F4FE3
:101B8000052E000C660B770B6BBFFA0117919F5F58
:101B9000F1CF44E050E08F5F8370A1E0B0E0AC0F84
:101BA000BD1FA80FB11D6C9170E0665F7F4F6B0188
:101BB000770FEE08FF08EBBEF60197919C9341501A
:101BC000510949F7053068F4812F90E0865F9F4FF7
:101BD000092E000CAA0BBB0BABBFFC0117910F5FCA
:101BE000F1CF0E948611B3010E94C30F082F0E94FB
:101BF00086118370442D50E040505040052E000C5B
:101C0000660B770B6BBFFA0147919981492749838E
:101C10004394ED81FE81E819F909EE0FFF1FEE0FE5
:101C2000FF1FEA0DFB1DC080D180E280F380498157
:101C30005A816B817C814C255D256E257F25EF8146
:101C4000F885448355836683778353941CCF299604
:101C5000E2E10C94F30FAB0160E071E00E94FE0C36
:101C600008950F931F93CF93DF93EB019C012F5F98
:101C70003F4FFC014491442309F448C0413091F4A2
:101C80000296F9012491222349F0FC0145915491D7
:101C9000029621504C175D07B1F73AC09C012250C3
:101CA000310931C0423081F4F901459154919C01D0
:101CB0002D5F3F4FF90185919491C417D50718F115
:101CC0008C179D0700F124C0433001F5F9014591BF
:101CD0005491FC013396A591B491FC013596659120
:101CE00074919C01295F3F4FF90105911491C4172C
:101CF000D50748F0AC17BD0730F0CE010E94AF0FFA
:101D00008017910729F0C9010196B0CF80E001C08A
:101D100081E0DF91CF911F910F910895FC012491F3
:101D2000213009F401960196FC0185919491089562
:101D3000A0E0B0E0EEE9FEE00C94E10F8B01FC01C5
:101D400024913196213099F5E491CE2FD0E07C0199
:101D5000F2E0EF0EF11CDB018D919C91892B11F0CB
:101D600090E00DC0CE01880F991F0E940E10F8015F
:101D700091838083892BA1F780E090E0A8C0292F70
:101D800030E02C173D0788F4F70145915491220F5C
:101D9000331FF801A081B181A20FB31F4D935C9353
:101DA000F2E0EF0EF11C9F5FEACFCE0190C023302E
:101DB00009F04EC0C591D491FC013396C590D490E2
:101DC000FC013596E590F4900796FC01259134913D
:101DD000C6018C1B9D0BB7010E94AF0FFB01CE010A
:101DE000B7010E94AF0F8217930711F431960BC011
:101DF0002E0D3F1DA901481B590BCA01B7010E94B6
:101E0000AF0FC80FD91FD8018D919C91892B11F06C
:101E100080E00BC0CF01880F991F0E940E10F801BF
:101E200091838083892BA1F7A7CF282F30E0CC1591
:101E3000DD0508F04BC0220F331FD801ED91FC9156
:101E4000E20FF31FD183C083CE0DDF1D8F5FEDCF77
:101E5000223009F091CFC591D4910396FC01E59011
:101E6000F490C7018C1B9D0B33E0969587953A95AE
:101E7000E1F79E01277033272115310511F40196F2
:101E800003C02896C21BD30BF80120813181232B7C
:101E900011F080E00AC0880F991F0E940E10D8012F
:101EA0008D939C93892BA9F767CF282F30E0CE150F
:101EB000DF0560F4220F331FD801ED91FC91E20F92
:101EC000F31FD183C08328968F5FEFCFC901CDB7B1
:101ED000DEB7E8E00C94FD0F809166009BEA899FD5
:101EE000812D11248695885D809366000E949A005A
:101EF0000E94D3000E948908A89584B7877F84BF79
:101F00000FB6F894A8958091600088618093600076
:101F1000109260000FBE84B1837E84B985B18C615C
:101F200085B91A9905C085E50E94AB000E94D704C7
:101F30001B9905C082E50E94AB000E9404031C9916
:101F400006C083E40E94AB000E94C20705C082E481
:101F50000E94AB000E940B0880E090E00895AA1B4D
:101F6000BB1B51E107C0AA1FBB1FA617B70710F084
:101F7000A61BB70B881F991F5A95A9F780959095B6
:101F8000BC01CD01089597FB072E16F4009407D0ED
:101F900077FD09D00E94AF0F07FC05D03EF4909565
:101FA00081959F4F0895709561957F4F08952F9269
:101FB0003F924F925F926F927F928F929F92AF92D9
:101FC000BF92CF92DF92EF92FF920F931F93CF9326
:101FD000DF93CDB7DEB7CA1BDB0B0FB6F894DEBFBD
:101FE0000FBECDBF09942A88398848885F846E84E3
:101FF0007D848C849B84AA84B984C884DF80EE802D
:10200000FD800C811B81AA81B981CE0FD11D0FB635
:10201000F894DEBF0FBECDBFED010895CF93DF93DF
:102020008230910510F482E090E0E0912E02F09170
:102030002F0220E030E0C0E0D0E0309711F1408185
:10204000518148175907C0F04817590761F4828138
:102050009381209719F09B838A832BC090932F0242
:1020600080932E0226C02115310519F0421753071F
:1020700018F49A01BE01DF01EF010280F381E02D27
:10208000DCCF2115310509F1281B390B243031052E
:1020900090F412968D919C9113976115710521F022
:1020A000FB019383828304C090932F0280932E02BE
:1020B000FD01329644C0FD01E20FF31F819391931D
:1020C000225031092D933C933AC020912C0230913B
:1020D0002D02232B41F42091BA013091BB013093A2
:1020E0002D0220932C022091B8013091B9012115C5
:1020F000310541F42DB73EB74091BC015091BD016F
:10210000241B350BE0912C02F0912D02E217F3070E
:10211000A0F42E1B3F0B2817390778F0AC014E5F57
:102120005F4F2417350748F04E0F5F1F50932D0265
:1021300040932C028193919302C0E0E0F0E0CF0144
:10214000DF91CF9108950F931F93CF93DF93009763
:1021500009F48CC0FC0132971382128200912E0286
:1021600010912F020115110581F420813181820F18
:10217000931F20912C0230912D022817390779F5F1
:10218000F0932D02E0932C0271C0D80140E050E0A2
:10219000AE17BF0750F412962D913C911397AD01E5
:1021A0002115310509F1D901F3CF9D01DA013383FE
:1021B000228360817181860F971F8217930769F4CC
:1021C000EC0128813981260F371F2E5F3F4F318365
:1021D00020838A819B8193838283452B29F4F0930A
:1021E0002F02E0932E0242C01396FC93EE931297B7
:1021F000ED01499159919E01240F351FE217F30714
:1022000071F480819181840F951F029611969C93A1
:102210008E938281938113969C938E931297E0E024
:10222000F0E0D80112968D919C911397009719F0C8
:10223000F8018C01F6CF8D919C9198012E5F3F4F54
:10224000820F931F20912C0230912D0228173907FD
:1022500069F4309729F410922F0210922E0202C0D6
:102260001382128210932D0200932C02DF91CF91E2
:102270001F910F9108958F929F92AF92BF92CF922C
:10228000DF92EF92FF92CF93DF93EC016881798127
:102290008A819B81611571058105910521F464E2B4
:1022A00079ED8BE597E02DE133EF41E050E00E94BE
:1022B000D41149015A019B01AC01A7EAB1E40E9483
:1022C000F3116B017C01ACEEB4EFA50194010E9407
:1022D0000112DC01CB018C0D9D1DAE1DBF1DB7FF92
:1022E00003C00197A109B04888839983AA83BB835F
:1022F0009F77DF91CF91FF90EF90DF90CF90BF90CD
:10230000AF909F908F9008950C943B118EEB91E0CD
:102310000C943B11A0E0B0E08093BE019093BF010C
:10232000A093C001B093C1010895FB01DC0102C07C
:1023300001900D9241505040D8F70895F999FECF81
:1023400092BD81BDF89A992780B50895A8E1B0E0C3
:1023500042E050E00C94B4110196272F0E94C31163
:102360000C94C211DC01CB01FC01F999FECF06C02F
:10237000F2BDE1BDF89A319600B40D924150504043
:10238000B8F70895262FF999FECF92BD81BDF89A2E
:10239000019700B4021639F01FBA20BD0FB6F894A9
:1023A000FA9AF99A0FBE0895052E97FB1EF4009431
:1023B0000E94EB1157FD07D00E94061207FC03D0C4
:1023C0004EF40C94EB1150954095309521953F4F6C
:1023D0004F4F5F4F089590958095709561957F4F11
:1023E0008F4F9F4F08950E942812A59F900DB49F74
:1023F000900DA49F800D911D11240895B7FF0C949A
:10240000F3110E94F311821B930B0895A1E21A2E7F
:10241000AA1BBB1BFD010DC0AA1FBB1FEE1FFF1F88
:10242000A217B307E407F50720F0A21BB30BE40BD8
:10243000F50B661F771F881F991F1A9469F760951F
:102440007095809590959B01AC01BD01CF010895D9
:10245000A29FB001B39FC001A39F700D811D1124E5
:0E246000911DB29F700D811D1124911D0895D4
:10246E00EFC20512A8381F428699895E14290B57B0
:10247E00764AF503AA33FE86F2C42784156E7AD403
:10248E0058173E5D5D02FC91D32E52A803D5F981FB
:10249E00335754A6DC5B50B5D7567DAB746BBE92EA
:1024AE0006B91DC9F0EF906DB275376F78E64C55D1
:1024BE006967BE09235B1F142422990B25D1A567DA
:1024CE00DE90AFA9378AE8898722235895728C0847
:1024DE00E70EEBA1189FC1FD7B14B924CDD3CBFD24
:1024EE00A434AB955572B8FFDAA6DA61B3C2F937E8
:1024FE00EA5292CC022B8A7FC7A20CEDACF23A20A4
:10250E00522B565E54893B0CD920F4E4A85E054349
:10251E0023CC426D876617AD2002300220000100E9
:10252E00000057726F6E67205242480057726F6EEE
:10253E006720524250570057726F6E6720480A004C
:10254E00476F6F6420480A00476F6F642044435002
:10255E00540A004661696C65640A005375636365CD
:10256E0073730A004C6F616465640A0043616C63A7
:10257E00756C6174696E67204861736800465720F8
:0A258E00436F72727570746564008B
:00000001FF
